{
  "abi": [
    {
      "inputs": [],
      "name": "increment",
      "outputs": [],
      "stateMutability": "nonpayable",
      "type": "function"
    },
    {
      "inputs": [],
      "name": "number",
      "outputs": [
        {
          "internalType": "uint256",
          "name": "",
          "type": "uint256"
        }
      ],
      "stateMutability": "view",
      "type": "function"
    },
    {
      "inputs": [
        {
          "internalType": "uint256",
          "name": "newNumber",
          "type": "uint256"
        }
      ],
      "name": "setNumber",
      "outputs": [],
      "stateMutability": "nonpayable",
      "type": "function"
    }
  ],
  "bytecode": {
    "object": "0x608080604052346100155760df908161001b8239f35b600080fdfe6080806040526004361015601257600080fd5b600090813560e01c9081633fb5c1cb1460915781638381f58a146075575063d09de08a14603e57600080fd5b346072578060031936011260725780546000198114605e57600101815580f35b634e487b7160e01b82526011600452602482fd5b80fd5b905034608d5781600319360112608d57602091548152f35b5080fd5b82346072576020366003190112607257600435815580f3fea2646970667358221220c0db1a19c831592990f032eb122a5efff482a35faa83b72a796184a4264f320764736f6c63430008110033",
    "linkReferences": {}
  },
  "methodIdentifiers": {
    "increment()": "d09de08a",
    "number()": "8381f58a",
    "setNumber(uint256)": "3fb5c1cb"
  },
  "id": 0
}