{
  "_format": "hh-sol-artifact-1",
  "contractName": "SSVNetwork",
  "sourceName": "contracts/SSVNetwork.sol",
  "abi": [
    {
      "inputs": [],
      "name": "AccountAlreadyEnabled",
      "type": "error"
    },
    {
      "inputs": [],
      "name": "ApprovalNotWithinTimeframe",
      "type": "error"
    },
    {
      "inputs": [],
      "name": "BelowMinimumBlockPeriod",
      "type": "error"
    },
    {
      "inputs": [],
      "name": "BurnRatePositive",
      "type": "error"
    },
    {
      "inputs": [],
      "name": "CallerNotOperatorOwner",
      "type": "error"
    },
    {
      "inputs": [],
      "name": "CallerNotValidatorOwner",
      "type": "error"
    },
    {
      "inputs": [],
      "name": "ExceedManagingOperatorsPerAccountLimit",
      "type": "error"
    },
    {
      "inputs": [],
      "name": "FeeExceedsIncreaseLimit",
      "type": "error"
    },
    {
      "inputs": [],
      "name": "FeeTooLow",
      "type": "error"
    },
    {
      "inputs": [],
      "name": "NegativeBalance",
      "type": "error"
    },
    {
      "inputs": [],
      "name": "NoPendingFeeChangeRequest",
      "type": "error"
    },
    {
      "inputs": [],
      "name": "NotEnoughBalance",
      "type": "error"
    },
    {
      "inputs": [],
      "name": "OperatorWithPublicKeyNotExist",
      "type": "error"
    },
    {
      "inputs": [],
      "name": "ValidatorWithPublicKeyNotExist",
      "type": "error"
    },
    {
      "anonymous": false,
      "inputs": [
        {
          "indexed": true,
          "internalType": "address",
          "name": "ownerAddress",
          "type": "address"
        }
      ],
      "name": "AccountEnable",
      "type": "event"
    },
    {
      "anonymous": false,
      "inputs": [
        {
          "indexed": true,
          "internalType": "address",
          "name": "ownerAddress",
          "type": "address"
        }
      ],
      "name": "AccountLiquidation",
      "type": "event"
    },
    {
      "anonymous": false,
      "inputs": [
        {
          "indexed": false,
          "internalType": "uint256",
          "name": "value",
          "type": "uint256"
        }
      ],
      "name": "DeclareOperatorFeePeriodUpdate",
      "type": "event"
    },
    {
      "anonymous": false,
      "inputs": [
        {
          "indexed": true,
          "internalType": "address",
          "name": "ownerAddress",
          "type": "address"
        },
        {
          "indexed": false,
          "internalType": "uint32",
          "name": "operatorId",
          "type": "uint32"
        }
      ],
      "name": "DeclaredOperatorFeeCancelation",
      "type": "event"
    },
    {
      "anonymous": false,
      "inputs": [
        {
          "indexed": false,
          "internalType": "uint256",
          "name": "value",
          "type": "uint256"
        }
      ],
      "name": "ExecuteOperatorFeePeriodUpdate",
      "type": "event"
    },
    {
      "anonymous": false,
      "inputs": [
        {
          "indexed": false,
          "internalType": "uint256",
          "name": "value",
          "type": "uint256"
        },
        {
          "indexed": true,
          "internalType": "address",
          "name": "ownerAddress",
          "type": "address"
        },
        {
          "indexed": true,
          "internalType": "address",
          "name": "senderAddress",
          "type": "address"
        }
      ],
      "name": "FundsDeposit",
      "type": "event"
    },
    {
      "anonymous": false,
      "inputs": [
        {
          "indexed": false,
          "internalType": "uint256",
          "name": "value",
          "type": "uint256"
        },
        {
          "indexed": true,
          "internalType": "address",
          "name": "ownerAddress",
          "type": "address"
        }
      ],
      "name": "FundsWithdrawal",
      "type": "event"
    },
    {
      "anonymous": false,
      "inputs": [
        {
          "indexed": false,
          "internalType": "uint8",
          "name": "version",
          "type": "uint8"
        }
      ],
      "name": "Initialized",
      "type": "event"
    },
    {
      "anonymous": false,
      "inputs": [
        {
          "indexed": false,
          "internalType": "uint256",
          "name": "value",
          "type": "uint256"
        }
      ],
      "name": "LiquidationThresholdPeriodUpdate",
      "type": "event"
    },
    {
      "anonymous": false,
      "inputs": [
        {
          "indexed": false,
          "internalType": "uint256",
          "name": "value",
          "type": "uint256"
        }
      ],
      "name": "MinimumBlocksBeforeLiquidationUpdate",
      "type": "event"
    },
    {
      "anonymous": false,
      "inputs": [
        {
          "indexed": false,
          "internalType": "uint256",
          "name": "oldFee",
          "type": "uint256"
        },
        {
          "indexed": false,
          "internalType": "uint256",
          "name": "newFee",
          "type": "uint256"
        }
      ],
      "name": "NetworkFeeUpdate",
      "type": "event"
    },
    {
      "anonymous": false,
      "inputs": [
        {
          "indexed": false,
          "internalType": "uint256",
          "name": "value",
          "type": "uint256"
        },
        {
          "indexed": false,
          "internalType": "address",
          "name": "recipient",
          "type": "address"
        }
      ],
      "name": "NetworkFeesWithdrawal",
      "type": "event"
    },
    {
      "anonymous": false,
      "inputs": [
        {
          "indexed": true,
          "internalType": "address",
          "name": "ownerAddress",
          "type": "address"
        },
        {
          "indexed": false,
          "internalType": "uint32",
          "name": "operatorId",
          "type": "uint32"
        },
        {
          "indexed": false,
          "internalType": "uint256",
          "name": "blockNumber",
          "type": "uint256"
        },
        {
          "indexed": false,
          "internalType": "uint256",
          "name": "fee",
          "type": "uint256"
        }
      ],
      "name": "OperatorFeeDeclaration",
      "type": "event"
    },
    {
      "anonymous": false,
      "inputs": [
        {
          "indexed": true,
          "internalType": "address",
          "name": "ownerAddress",
          "type": "address"
        },
        {
          "indexed": false,
          "internalType": "uint32",
          "name": "operatorId",
          "type": "uint32"
        },
        {
          "indexed": false,
          "internalType": "uint256",
          "name": "blockNumber",
          "type": "uint256"
        },
        {
          "indexed": false,
          "internalType": "uint256",
          "name": "fee",
          "type": "uint256"
        }
      ],
      "name": "OperatorFeeExecution",
      "type": "event"
    },
    {
      "anonymous": false,
      "inputs": [
        {
          "indexed": false,
          "internalType": "uint256",
          "name": "value",
          "type": "uint256"
        }
      ],
      "name": "OperatorFeeIncreaseLimitUpdate",
      "type": "event"
    },
    {
      "anonymous": false,
      "inputs": [
        {
          "indexed": false,
          "internalType": "uint256",
          "name": "value",
          "type": "uint256"
        }
      ],
      "name": "OperatorMaxFeeIncreaseUpdate",
      "type": "event"
    },
    {
      "anonymous": false,
      "inputs": [
        {
          "indexed": true,
          "internalType": "uint32",
          "name": "id",
          "type": "uint32"
        },
        {
          "indexed": false,
          "internalType": "string",
          "name": "name",
          "type": "string"
        },
        {
          "indexed": true,
          "internalType": "address",
          "name": "ownerAddress",
          "type": "address"
        },
        {
          "indexed": false,
          "internalType": "bytes",
          "name": "publicKey",
          "type": "bytes"
        },
        {
          "indexed": false,
          "internalType": "uint256",
          "name": "fee",
          "type": "uint256"
        }
      ],
      "name": "OperatorRegistration",
      "type": "event"
    },
    {
      "anonymous": false,
      "inputs": [
        {
          "indexed": false,
          "internalType": "uint32",
          "name": "operatorId",
          "type": "uint32"
        },
        {
          "indexed": true,
          "internalType": "address",
          "name": "ownerAddress",
          "type": "address"
        }
      ],
      "name": "OperatorRemoval",
      "type": "event"
    },
    {
      "anonymous": false,
      "inputs": [
        {
          "indexed": false,
          "internalType": "uint32",
          "name": "operatorId",
          "type": "uint32"
        },
        {
          "indexed": true,
          "internalType": "address",
          "name": "ownerAddress",
          "type": "address"
        },
        {
          "indexed": false,
          "internalType": "uint256",
          "name": "blockNumber",
          "type": "uint256"
        },
        {
          "indexed": false,
          "internalType": "uint256",
          "name": "score",
          "type": "uint256"
        }
      ],
      "name": "OperatorScoreUpdate",
      "type": "event"
    },
    {
      "anonymous": false,
      "inputs": [
        {
          "indexed": true,
          "internalType": "address",
          "name": "previousOwner",
          "type": "address"
        },
        {
          "indexed": true,
          "internalType": "address",
          "name": "newOwner",
          "type": "address"
        }
      ],
      "name": "OwnershipTransferred",
      "type": "event"
    },
    {
      "anonymous": false,
      "inputs": [
        {
          "indexed": false,
          "internalType": "uint256",
          "name": "value",
          "type": "uint256"
        }
      ],
      "name": "RegisteredOperatorsPerAccountLimitUpdate",
      "type": "event"
    },
    {
      "anonymous": false,
      "inputs": [
        {
          "indexed": true,
          "internalType": "address",
          "name": "ownerAddress",
          "type": "address"
        },
        {
          "indexed": false,
          "internalType": "bytes",
          "name": "publicKey",
          "type": "bytes"
        },
        {
          "indexed": false,
          "internalType": "uint32[]",
          "name": "operatorIds",
          "type": "uint32[]"
        },
        {
          "indexed": false,
          "internalType": "bytes[]",
          "name": "sharesPublicKeys",
          "type": "bytes[]"
        },
        {
          "indexed": false,
          "internalType": "bytes[]",
          "name": "encryptedKeys",
          "type": "bytes[]"
        }
      ],
      "name": "ValidatorRegistration",
      "type": "event"
    },
    {
      "anonymous": false,
      "inputs": [
        {
          "indexed": true,
          "internalType": "address",
          "name": "ownerAddress",
          "type": "address"
        },
        {
          "indexed": false,
          "internalType": "bytes",
          "name": "publicKey",
          "type": "bytes"
        }
      ],
      "name": "ValidatorRemoval",
      "type": "event"
    },
    {
      "anonymous": false,
      "inputs": [
        {
          "indexed": false,
          "internalType": "uint256",
          "name": "value",
          "type": "uint256"
        }
      ],
      "name": "ValidatorsPerOperatorLimitUpdate",
      "type": "event"
    },
    {
      "inputs": [
        {
          "internalType": "address",
          "name": "ownerAddress",
          "type": "address"
        }
      ],
      "name": "addressNetworkFee",
      "outputs": [
        {
          "internalType": "uint256",
          "name": "",
          "type": "uint256"
        }
      ],
      "stateMutability": "view",
      "type": "function"
    },
    {
      "inputs": [
        {
          "internalType": "uint32",
          "name": "operatorId",
          "type": "uint32"
        }
      ],
      "name": "cancelDeclaredOperatorFee",
      "outputs": [],
      "stateMutability": "nonpayable",
      "type": "function"
    },
    {
      "inputs": [
        {
          "internalType": "uint32",
          "name": "operatorId",
          "type": "uint32"
        },
        {
          "internalType": "uint256",
          "name": "operatorFee",
          "type": "uint256"
        }
      ],
      "name": "declareOperatorFee",
      "outputs": [],
      "stateMutability": "nonpayable",
      "type": "function"
    },
    {
      "inputs": [
        {
          "internalType": "address",
          "name": "ownerAddress",
          "type": "address"
        },
        {
          "internalType": "uint256",
          "name": "amount",
          "type": "uint256"
        }
      ],
      "name": "deposit",
      "outputs": [],
      "stateMutability": "nonpayable",
      "type": "function"
    },
    {
      "inputs": [
        {
          "internalType": "uint32",
          "name": "operatorId",
          "type": "uint32"
        }
      ],
      "name": "executeOperatorFee",
      "outputs": [],
      "stateMutability": "nonpayable",
      "type": "function"
    },
    {
      "inputs": [
        {
          "internalType": "address",
          "name": "ownerAddress",
          "type": "address"
        }
      ],
      "name": "getAddressBalance",
      "outputs": [
        {
          "internalType": "uint256",
          "name": "",
          "type": "uint256"
        }
      ],
      "stateMutability": "view",
      "type": "function"
    },
    {
      "inputs": [
        {
          "internalType": "address",
          "name": "ownerAddress",
          "type": "address"
        }
      ],
      "name": "getAddressBurnRate",
      "outputs": [
        {
          "internalType": "uint256",
          "name": "",
          "type": "uint256"
        }
      ],
      "stateMutability": "view",
      "type": "function"
    },
    {
      "inputs": [],
      "name": "getDeclaredOperatorFeePeriod",
      "outputs": [
        {
          "internalType": "uint256",
          "name": "",
          "type": "uint256"
        }
      ],
      "stateMutability": "view",
      "type": "function"
    },
    {
      "inputs": [],
      "name": "getExecuteOperatorFeePeriod",
      "outputs": [
        {
          "internalType": "uint256",
          "name": "",
          "type": "uint256"
        }
      ],
      "stateMutability": "view",
      "type": "function"
    },
    {
      "inputs": [],
      "name": "getLiquidationThresholdPeriod",
      "outputs": [
        {
          "internalType": "uint256",
          "name": "",
          "type": "uint256"
        }
      ],
      "stateMutability": "view",
      "type": "function"
    },
    {
      "inputs": [],
      "name": "getNetworkEarnings",
      "outputs": [
        {
          "internalType": "uint256",
          "name": "",
          "type": "uint256"
        }
      ],
      "stateMutability": "view",
      "type": "function"
    },
    {
      "inputs": [],
      "name": "getNetworkFee",
      "outputs": [
        {
          "internalType": "uint256",
          "name": "",
          "type": "uint256"
        }
      ],
      "stateMutability": "view",
      "type": "function"
    },
    {
      "inputs": [
        {
          "internalType": "uint32",
          "name": "operatorId",
          "type": "uint32"
        }
      ],
      "name": "getOperatorById",
      "outputs": [
        {
          "internalType": "string",
          "name": "",
          "type": "string"
        },
        {
          "internalType": "address",
          "name": "",
          "type": "address"
        },
        {
          "internalType": "bytes",
          "name": "",
          "type": "bytes"
        },
        {
          "internalType": "uint256",
          "name": "",
          "type": "uint256"
        },
        {
          "internalType": "uint256",
          "name": "",
          "type": "uint256"
        },
        {
          "internalType": "uint256",
          "name": "",
          "type": "uint256"
        },
        {
          "internalType": "bool",
          "name": "",
          "type": "bool"
        }
      ],
      "stateMutability": "view",
      "type": "function"
    },
    {
      "inputs": [
        {
          "internalType": "uint32",
          "name": "operatorId",
          "type": "uint32"
        }
      ],
      "name": "getOperatorDeclaredFee",
      "outputs": [
        {
          "internalType": "uint256",
          "name": "",
          "type": "uint256"
        },
        {
          "internalType": "uint256",
          "name": "",
          "type": "uint256"
        },
        {
          "internalType": "uint256",
          "name": "",
          "type": "uint256"
        }
      ],
      "stateMutability": "view",
      "type": "function"
    },
    {
      "inputs": [
        {
          "internalType": "uint32",
          "name": "operatorId",
          "type": "uint32"
        }
      ],
      "name": "getOperatorFee",
      "outputs": [
        {
          "internalType": "uint256",
          "name": "",
          "type": "uint256"
        }
      ],
      "stateMutability": "view",
      "type": "function"
    },
    {
      "inputs": [],
      "name": "getOperatorFeeIncreaseLimit",
      "outputs": [
        {
          "internalType": "uint256",
          "name": "",
          "type": "uint256"
        }
      ],
      "stateMutability": "view",
      "type": "function"
    },
    {
      "inputs": [
        {
          "internalType": "bytes",
          "name": "publicKey",
          "type": "bytes"
        }
      ],
      "name": "getOperatorsByValidator",
      "outputs": [
        {
          "internalType": "uint32[]",
          "name": "",
          "type": "uint32[]"
        }
      ],
      "stateMutability": "view",
      "type": "function"
    },
    {
      "inputs": [
        {
          "internalType": "address",
          "name": "ownerAddress",
          "type": "address"
        }
      ],
      "name": "getValidatorsByOwnerAddress",
      "outputs": [
        {
          "internalType": "bytes[]",
          "name": "",
          "type": "bytes[]"
        }
      ],
      "stateMutability": "view",
      "type": "function"
    },
    {
      "inputs": [
        {
          "internalType": "contract ISSVRegistry",
          "name": "registryAddress_",
          "type": "address"
        },
        {
          "internalType": "contract IERC20",
          "name": "token_",
          "type": "address"
        },
        {
          "internalType": "uint64",
          "name": "minimumBlocksBeforeLiquidation_",
          "type": "uint64"
        },
        {
          "internalType": "uint64",
          "name": "operatorMaxFeeIncrease_",
          "type": "uint64"
        },
        {
          "internalType": "uint64",
          "name": "declareOperatorFeePeriod_",
          "type": "uint64"
        },
        {
          "internalType": "uint64",
          "name": "executeOperatorFeePeriod_",
          "type": "uint64"
        }
      ],
      "name": "initialize",
      "outputs": [],
      "stateMutability": "nonpayable",
      "type": "function"
    },
    {
      "inputs": [
        {
          "internalType": "address",
          "name": "ownerAddress",
          "type": "address"
        }
      ],
      "name": "isLiquidatable",
      "outputs": [
        {
          "internalType": "bool",
          "name": "",
          "type": "bool"
        }
      ],
      "stateMutability": "view",
      "type": "function"
    },
    {
      "inputs": [
        {
          "internalType": "address",
          "name": "ownerAddress",
          "type": "address"
        }
      ],
      "name": "isLiquidated",
      "outputs": [
        {
          "internalType": "bool",
          "name": "",
          "type": "bool"
        }
      ],
      "stateMutability": "view",
      "type": "function"
    },
    {
      "inputs": [
        {
          "internalType": "address[]",
          "name": "ownerAddresses",
          "type": "address[]"
        }
      ],
      "name": "liquidate",
      "outputs": [],
      "stateMutability": "nonpayable",
      "type": "function"
    },
    {
      "inputs": [],
      "name": "owner",
      "outputs": [
        {
          "internalType": "address",
          "name": "",
          "type": "address"
        }
      ],
      "stateMutability": "view",
      "type": "function"
    },
    {
      "inputs": [
        {
          "internalType": "uint256",
          "name": "amount",
          "type": "uint256"
        }
      ],
      "name": "reactivateAccount",
      "outputs": [],
      "stateMutability": "nonpayable",
      "type": "function"
    },
    {
      "inputs": [
        {
          "internalType": "string",
          "name": "name",
          "type": "string"
        },
        {
          "internalType": "bytes",
          "name": "publicKey",
          "type": "bytes"
        },
        {
          "internalType": "uint256",
          "name": "fee",
          "type": "uint256"
        }
      ],
      "name": "registerOperator",
      "outputs": [
        {
          "internalType": "uint32",
          "name": "operatorId",
          "type": "uint32"
        }
      ],
      "stateMutability": "nonpayable",
      "type": "function"
    },
    {
      "inputs": [
        {
          "internalType": "bytes",
          "name": "publicKey",
          "type": "bytes"
        },
        {
          "internalType": "uint32[]",
          "name": "operatorIds",
          "type": "uint32[]"
        },
        {
          "internalType": "bytes[]",
          "name": "sharesPublicKeys",
          "type": "bytes[]"
        },
        {
          "internalType": "bytes[]",
          "name": "sharesEncrypted",
          "type": "bytes[]"
        },
        {
          "internalType": "uint256",
          "name": "amount",
          "type": "uint256"
        }
      ],
      "name": "registerValidator",
      "outputs": [],
      "stateMutability": "nonpayable",
      "type": "function"
    },
    {
      "inputs": [
        {
          "internalType": "uint32",
          "name": "operatorId",
          "type": "uint32"
        }
      ],
      "name": "removeOperator",
      "outputs": [],
      "stateMutability": "nonpayable",
      "type": "function"
    },
    {
      "inputs": [
        {
          "internalType": "bytes",
          "name": "publicKey",
          "type": "bytes"
        }
      ],
      "name": "removeValidator",
      "outputs": [],
      "stateMutability": "nonpayable",
      "type": "function"
    },
    {
      "inputs": [],
      "name": "renounceOwnership",
      "outputs": [],
      "stateMutability": "nonpayable",
      "type": "function"
    },
    {
      "inputs": [
        {
          "internalType": "address",
          "name": "newOwner",
          "type": "address"
        }
      ],
      "name": "transferOwnership",
      "outputs": [],
      "stateMutability": "nonpayable",
      "type": "function"
    },
    {
      "inputs": [
        {
          "internalType": "uint64",
          "name": "newDeclareOperatorFeePeriod",
          "type": "uint64"
        }
      ],
      "name": "updateDeclareOperatorFeePeriod",
      "outputs": [],
      "stateMutability": "nonpayable",
      "type": "function"
    },
    {
      "inputs": [
        {
          "internalType": "uint64",
          "name": "newExecuteOperatorFeePeriod",
          "type": "uint64"
        }
      ],
      "name": "updateExecuteOperatorFeePeriod",
      "outputs": [],
      "stateMutability": "nonpayable",
      "type": "function"
    },
    {
      "inputs": [
        {
          "internalType": "uint64",
          "name": "blocks",
          "type": "uint64"
        }
      ],
      "name": "updateLiquidationThresholdPeriod",
      "outputs": [],
      "stateMutability": "nonpayable",
      "type": "function"
    },
    {
      "inputs": [
        {
          "internalType": "uint256",
          "name": "fee",
          "type": "uint256"
        }
      ],
      "name": "updateNetworkFee",
      "outputs": [],
      "stateMutability": "nonpayable",
      "type": "function"
    },
    {
      "inputs": [
        {
          "internalType": "uint64",
          "name": "newOperatorMaxFeeIncrease",
          "type": "uint64"
        }
      ],
      "name": "updateOperatorFeeIncreaseLimit",
      "outputs": [],
      "stateMutability": "nonpayable",
      "type": "function"
    },
    {
      "inputs": [
        {
          "internalType": "uint32",
          "name": "operatorId",
          "type": "uint32"
        },
        {
          "internalType": "uint32",
          "name": "score",
          "type": "uint32"
        }
      ],
      "name": "updateOperatorScore",
      "outputs": [],
      "stateMutability": "nonpayable",
      "type": "function"
    },
    {
      "inputs": [
        {
          "internalType": "bytes",
          "name": "publicKey",
          "type": "bytes"
        },
        {
          "internalType": "uint32[]",
          "name": "operatorIds",
          "type": "uint32[]"
        },
        {
          "internalType": "bytes[]",
          "name": "sharesPublicKeys",
          "type": "bytes[]"
        },
        {
          "internalType": "bytes[]",
          "name": "sharesEncrypted",
          "type": "bytes[]"
        },
        {
          "internalType": "uint256",
          "name": "amount",
          "type": "uint256"
        }
      ],
      "name": "updateValidator",
      "outputs": [],
      "stateMutability": "nonpayable",
      "type": "function"
    },
    {
      "inputs": [
        {
          "internalType": "uint32",
          "name": "operatorId",
          "type": "uint32"
        }
      ],
      "name": "validatorsPerOperatorCount",
      "outputs": [
        {
          "internalType": "uint32",
          "name": "",
          "type": "uint32"
        }
      ],
      "stateMutability": "view",
      "type": "function"
    },
    {
      "inputs": [],
      "name": "version",
      "outputs": [
        {
          "internalType": "uint32",
          "name": "",
          "type": "uint32"
        }
      ],
      "stateMutability": "pure",
      "type": "function"
    },
    {
      "inputs": [
        {
          "internalType": "uint256",
          "name": "amount",
          "type": "uint256"
        }
      ],
      "name": "withdraw",
      "outputs": [],
      "stateMutability": "nonpayable",
      "type": "function"
    },
    {
      "inputs": [],
      "name": "withdrawAll",
      "outputs": [],
      "stateMutability": "nonpayable",
      "type": "function"
    },
    {
      "inputs": [
        {
          "internalType": "uint256",
          "name": "amount",
          "type": "uint256"
        }
      ],
      "name": "withdrawNetworkEarnings",
      "outputs": [],
      "stateMutability": "nonpayable",
      "type": "function"
    }
  ],
  "bytecode": "0x608060405234801561001057600080fd5b5061577680620000216000396000f3fe608060405234801561001057600080fd5b50600436106102de5760003560e01c806368465f7d11610186578063a985994b116100e3578063dd83fcb611610097578063f2fde38b11610071578063f2fde38b1461066e578063f8f08d7f14610681578063fc0438301461069457600080fd5b8063dd83fcb61461062a578063e40cb19d14610648578063eb6080221461065b57600080fd5b8063b2f569c5116100c8578063b2f569c5146105f1578063d223174114610604578063d379a5f21461061757600080fd5b8063a985994b146105cb578063b083ab35146105de57600080fd5b8063853828b61161013a5780638da5cb5b1161011f5780638da5cb5b146105475780639040f7c314610562578063a3b3f6061461058c57600080fd5b8063853828b614610511578063857475661461051957600080fd5b8063715018a61161016b578063715018a6146104ee578063777915cb146104f657806379e3e4e4146104fe57600080fd5b806368465f7d146104c957806370f97314146104db57600080fd5b80632e1d2f051161023f57806347e7ef24116101f357806357c7ce22116101cd57806357c7ce22146104835780635f10ac30146104a35780636512447d146104b657600080fd5b806347e7ef241461044457806354fd4d501461045757806356d9a2cc1461047057600080fd5b80633631983f116102245780633631983f1461040b57806336881f181461041e578063400aa7ce1461043157600080fd5b80632e1d2f05146103e557806335046722146103f857600080fd5b80631f1f9fd5116102965780632563c64e1161027b5780632563c64e146103ac5780632afe872f146103bf5780632e1a7d4d146103d257600080fd5b80631f1f9fd51461038657806321f7957b1461039957600080fd5b8063053e8349116102c7578063053e834914610335578063154996bb146103555780631be2bd741461036a57600080fd5b80630260d443146102e3578063042e02cf14610312575b600080fd5b6102f66102f1366004614890565b61069c565b6040516103099796959493929190614905565b60405180910390f35b610325610320366004614977565b610750565b6040519015158152602001610309565b610348610343366004614a1c565b610761565b6040516103099190614a9c565b610368610363366004614890565b6107f0565b005b60705467ffffffffffffffff165b604051908152602001610309565b610368610394366004614ae6565b610866565b6103686103a7366004614b8d565b610964565b6103786103ba366004614977565b6109cf565b6103686103cd366004614ae6565b6109ec565b6103686103e0366004614ae6565b610ac9565b6103686103f3366004614890565b610b7b565b610378610406366004614977565b610ce3565b610368610419366004614c6f565b610cf1565b61036861042c366004614c8c565b610d54565b61036861043f366004614890565b610e0f565b610368610452366004614d0e565b610f6d565b614e205b60405163ffffffff9091168152602001610309565b61037861047e366004614977565b610f7b565b610496610491366004614977565b610f96565b6040516103099190614d3a565b6103686104b1366004614dba565b611022565b6103686104c4366004614c6f565b611149565b60675467ffffffffffffffff16610378565b6103686104e9366004614df3565b6111f2565b610368611422565b610378611488565b61036861050c366004614c6f565b61149a565b6103686114fd565b61052c610527366004614890565b611556565b60408051938452602084019290925290820152606001610309565b6033546040516001600160a01b039091168152602001610309565b60665474010000000000000000000000000000000000000000900467ffffffffffffffff16610378565b61032561059a366004614977565b6001600160a01b03166000908152606d60205260409020600101546c01000000000000000000000000900460ff1690565b6103686105d9366004614e11565b61159b565b61045b6105ec366004614e53565b6116ec565b6103686105ff366004614ec7565b6118aa565b610368610612366004614ae6565b611917565b61045b610625366004614890565b611ae2565b60705468010000000000000000900467ffffffffffffffff16610378565b610368610656366004614b8d565b611b6e565b610368610669366004614c6f565b611b9c565b61036861067c366004614977565b611bff565b61037861068f366004614890565b611cde565b610378611d70565b6065546040517f0260d44300000000000000000000000000000000000000000000000000000000815263ffffffff83166004820152606091600091839183918291829182916001600160a01b031690630260d44390602401600060405180830381865afa158015610711573d6000803e3d6000fd5b505050506040513d6000823e601f3d908101601f191682016040526107399190810190614f68565b959e949d50929b5090995097509550909350915050565b600061075b82611d95565b92915050565b6065546040517f053e83490000000000000000000000000000000000000000000000000000000081526060916001600160a01b03169063053e8349906107ab908590600401615021565b600060405180830381865afa1580156107c8573d6000803e3d6000fd5b505050506040513d6000823e601f3d908101601f1916820160405261075b9190810190615058565b806107fa81611dd5565b63ffffffff82166000818152607160209081526040808320805467ffffffffffffffff191681556001810184905560020192909255905191825233917fb5c93858369b86b0bdf3a8c475316d42d2cd139306d28b3d5d4123b9b867455c91015b60405180910390a25050565b6033546001600160a01b031633146108c55760405162461bcd60e51b815260206004820181905260248201527f4f776e61626c653a2063616c6c6572206973206e6f7420746865206f776e657260448201526064015b60405180910390fd5b6067547fb12de2022a8c992455195d1cdfe49c528c96a325adc99e12b6eab59d56654ea2906109099068010000000000000000900467ffffffffffffffff16611efe565b60408051918252602082018490520160405180910390a1610928611f17565b610930611f47565b61093981611fa3565b606760086101000a81548167ffffffffffffffff021916908367ffffffffffffffff16021790555050565b88886109708282612032565b6109b0338c8c8080601f01602080910402602001604051908101604052809392919081815260200183838082843760009201919091525061216192505050565b6109c2338c8c8c8c8c8c8c8c8c6122ac565b5050505050505050505050565b600061075b6109dd83612523565b67ffffffffffffffff16611efe565b336000908152606d60205260409020600101546c01000000000000000000000000900460ff16610a48576040517f44fab0e000000000000000000000000000000000000000000000000000000000815260040160405180910390fd5b610a523382612787565b610a5b336128ce565b610a6433611d95565b15610a9b576040517fad3a8b9e00000000000000000000000000000000000000000000000000000000815260040160405180910390fd5b60405133907fd2cad6abfa380a10a84c0e561544f8deb6eea7dd29a411fa306f902aa6ac5eca90600090a250565b610ad281611fa3565b67ffffffffffffffff16610ae533612acc565b67ffffffffffffffff161015610b27576040517fad3a8b9e00000000000000000000000000000000000000000000000000000000815260040160405180910390fd5b610b38610b3382611fa3565b612bad565b610b4133611d95565b15610b78576040517fad3a8b9e00000000000000000000000000000000000000000000000000000000815260040160405180910390fd5b50565b80610b8581611dd5565b6065546040517fe7b2174800000000000000000000000000000000000000000000000000000000815263ffffffff841660048201526000916001600160a01b03169063e7b2174890602401602060405180830381865afa158015610bed573d6000803e3d6000fd5b505050506040513d601f19601f82011682018060405250810190610c1191906150f2565b9050610c1e836000612d14565b6065546040517f2e1d2f0500000000000000000000000000000000000000000000000000000000815263ffffffff851660048201526001600160a01b0390911690632e1d2f0590602401600060405180830381600087803b158015610c8257600080fd5b505af1158015610c96573d6000803e3d6000fd5b505060405163ffffffff861681526001600160a01b03841692507f10b90e3d042178ee9b3e99a849224b4bf4145b9855274073c0c6bca9c5113b7b915060200160405180910390a2505050565b600061075b6109dd83612acc565b6033546001600160a01b03163314610d4b5760405162461bcd60e51b815260206004820181905260248201527f4f776e61626c653a2063616c6c6572206973206e6f7420746865206f776e657260448201526064016108bc565b610b7881612dc9565b6000610d606001612e19565b90508015610d9557600080547fffffffffffffffffffffffffffffffffffffffffffffffffffffffffffff00ff166101001790555b610da3878787878787612f70565b8015610e0657600080547fffffffffffffffffffffffffffffffffffffffffffffffffffffffffffff00ff169055604051600181527f7f26b83ff96e1f2b6a682f133852f6798a09c465da95921460cefb38474024989060200160405180910390a15b50505050505050565b80610e1981611dd5565b63ffffffff821660009081526071602052604081208054909167ffffffffffffffff9091169003610e76576040517fa6cae01600000000000000000000000000000000000000000000000000000000815260040160405180910390fd5b8060010154421080610e8b5750806002015442115b15610ec2576040517f97e4b51800000000000000000000000000000000000000000000000000000000815260040160405180910390fd5b8054610ed990849067ffffffffffffffff16612d14565b805433907f5e68243d185e61c61d839a6eb781a865dd007c0004b0c1f5f544e4291e7ee96d9085904390610f169067ffffffffffffffff16611efe565b6040805163ffffffff909416845260208401929092529082015260600160405180910390a2505063ffffffff166000908152607160205260408120805467ffffffffffffffff191681556001810182905560020155565b610f778282612787565b5050565b6000610f8682612fc7565b67ffffffffffffffff1692915050565b6065546040517f0e32066a0000000000000000000000000000000000000000000000000000000081526001600160a01b0383811660048301526060921690630e32066a90602401600060405180830381865afa158015610ffa573d6000803e3d6000fd5b505050506040513d6000823e601f3d908101601f1916820160405261075b919081019061510f565b6033546001600160a01b0316331461107c5760405162461bcd60e51b815260206004820181905260248201527f4f776e61626c653a2063616c6c6572206973206e6f7420746865206f776e657260448201526064016108bc565b6065546040517f5f10ac3000000000000000000000000000000000000000000000000000000000815263ffffffff8085166004830152831660248201526001600160a01b0390911690635f10ac3090604401600060405180830381600087803b1580156110e857600080fd5b505af11580156110fc573d6000803e3d6000fd5b50506040805163ffffffff80871682524360208301528516918101919091523392507fc07e279e1b82e9c5a89dc92f0d0fb3ec87c142b3cc1a27411ab82156beef8c36915060600161085a565b6033546001600160a01b031633146111a35760405162461bcd60e51b815260206004820181905260248201527f4f776e61626c653a2063616c6c6572206973206e6f7420746865206f776e657260448201526064016108bc565b6119aa67ffffffffffffffff821610156111e9576040517fb4cce01300000000000000000000000000000000000000000000000000000000815260040160405180910390fd5b610b7881613065565b816111fc81611dd5565b8161120e61120982611fa3565b6130e9565b606754612710906112299067ffffffffffffffff16826151ef565b6065546040517ff8f08d7f00000000000000000000000000000000000000000000000000000000815263ffffffff881660048201526001600160a01b039091169063f8f08d7f90602401602060405180830381865afa158015611290573d6000803e3d6000fd5b505050506040513d601f19601f820116820180604052508101906112b4919061521b565b6112be9190615238565b6112c89190615297565b67ffffffffffffffff166112db84611fa3565b67ffffffffffffffff16111561131d576040517f958065d900000000000000000000000000000000000000000000000000000000815260040160405180910390fd5b604051806060016040528061133185611fa3565b67ffffffffffffffff90811682526070546020909201916113539116426152be565b815260705460209091019067ffffffffffffffff6801000000000000000082048116916113819116426152be565b61138b91906152be565b905263ffffffff85166000818152607160209081526040918290208451815467ffffffffffffffff191667ffffffffffffffff909116178155848201516001820155938201516002909401939093558051918252439282019290925290810184905233907f4892696cd76ab5f9fa4578747dee737eb9061eb170dab27ac24d78f47d3eec599060600160405180910390a250505050565b6033546001600160a01b0316331461147c5760405162461bcd60e51b815260206004820181905260248201527f4f776e61626c653a2063616c6c6572206973206e6f7420746865206f776e657260448201526064016108bc565b611486600061312f565b565b60006114956109dd613199565b905090565b6033546001600160a01b031633146114f45760405162461bcd60e51b815260206004820181905260248201527f4f776e61626c653a2063616c6c6572206973206e6f7420746865206f776e657260448201526064016108bc565b610b78816131bb565b600061150833612523565b67ffffffffffffffff16111561154a576040517ff457a87800000000000000000000000000000000000000000000000000000000815260040160405180910390fd5b611486610b3333612acc565b63ffffffff811660009081526071602052604081208054829182916115849067ffffffffffffffff16611efe565b600182015460029092015490969195509350915050565b6000805b63ffffffff8116831115611639576115e284848363ffffffff168181106115c8576115c86152d6565b90506020020160208101906115dd9190614977565b61320b565b156116295761161c84848363ffffffff16818110611602576116026152d6565b90506020020160208101906116179190614977565b61325d565b61162690836151ef565b91505b61163281615305565b905061159f565b506066546001600160a01b031663a9059cbb3361165f67ffffffffffffffff8516611efe565b6040517fffffffff0000000000000000000000000000000000000000000000000000000060e085901b1681526001600160a01b03909216600483015260248201526044016020604051808303816000875af11580156116c2573d6000803e3d6000fd5b505050506040513d601f19601f820116820180604052508101906116e69190615328565b50505050565b6000816116fb61120982611fa3565b6065546001600160a01b031663580ee1b8888833898961171a8a611fa3565b6040518763ffffffff1660e01b815260040161173b9695949392919061536e565b6020604051808303816000875af115801561175a573d6000803e3d6000fd5b505050506040513d601f19601f8201168201806040525081019061177e91906153c2565b6040805160a0810182524380825260006020808401828152848601838152606086019485526080860184815263ffffffff808a16808752606c90955297909420955186559051600186018054925167ffffffffffffffff90811668010000000000000000027fffffffffffffffffffffffffffffffff00000000000000000000000000000000909416921691909117919091179055915160028401555160039092018054929093167fffffffffffffffffffffffffffffffffffffffffffffffffffffffff000000009092169190911790915590925033907f26a77904793977b23eb8b2d412c486276510e0dc1966a4a2936d4bea0ff86e9d898989896118876109dd8b611fa3565b6040516118989594939291906153df565b60405180910390a35095945050505050565b81816118b68282612032565b6118be611f17565b6118c733613320565b6119073385858080601f01602080910402602001604051908101604052809392919081815260200183838082843760009201919091525061216192505050565b61191033612acc565b5050505050565b6033546001600160a01b031633146119715760405162461bcd60e51b815260206004820181905260248201527f4f776e61626c653a2063616c6c6572206973206e6f7420746865206f776e657260448201526064016108bc565b611979613199565b67ffffffffffffffff1661198c82611fa3565b67ffffffffffffffff1611156119ce576040517fad3a8b9e00000000000000000000000000000000000000000000000000000000815260040160405180910390fd5b6119d781611fa3565b606b80546000906119f390849067ffffffffffffffff166151ef565b825467ffffffffffffffff9182166101009390930a9283029190920219909116179055506066546040517fa9059cbb000000000000000000000000000000000000000000000000000000008152336004820152602481018390526001600160a01b039091169063a9059cbb906044016020604051808303816000875af1158015611a81573d6000803e3d6000fd5b505050506040513d601f19601f82011682018060405250810190611aa59190615328565b50604080518281523360208201527f5564de4b05294182a45c60836e9c0ba86d5c351cf1c0db79e4fe5dd04786de1a91015b60405180910390a150565b6065546040517fd379a5f200000000000000000000000000000000000000000000000000000000815263ffffffff831660048201526000916001600160a01b03169063d379a5f290602401602060405180830381865afa158015611b4a573d6000803e3d6000fd5b505050506040513d601f19601f8201168201806040525081019061075b91906153c2565b611b76611f17565b611b7f33613320565b611b91338a8a8a8a8a8a8a8a8a6122ac565b505050505050505050565b6033546001600160a01b03163314611bf65760405162461bcd60e51b815260206004820181905260248201527f4f776e61626c653a2063616c6c6572206973206e6f7420746865206f776e657260448201526064016108bc565b610b78816133d3565b6033546001600160a01b03163314611c595760405162461bcd60e51b815260206004820181905260248201527f4f776e61626c653a2063616c6c6572206973206e6f7420746865206f776e657260448201526064016108bc565b6001600160a01b038116611cd55760405162461bcd60e51b815260206004820152602660248201527f4f776e61626c653a206e6577206f776e657220697320746865207a65726f206160448201527f646472657373000000000000000000000000000000000000000000000000000060648201526084016108bc565b610b788161312f565b6065546040517ff8f08d7f00000000000000000000000000000000000000000000000000000000815263ffffffff8316600482015260009161075b916001600160a01b039091169063f8f08d7f90602401602060405180830381865afa158015611d4c573d6000803e3d6000fd5b505050506040513d601f19601f820116820180604052508101906109dd919061521b565b6067546000906114959068010000000000000000900467ffffffffffffffff16611efe565b6001600160a01b0381166000908152606d60205260408120600101546c01000000000000000000000000900460ff1615801561075b575061075b82613448565b6065546040517fe7b2174800000000000000000000000000000000000000000000000000000000815263ffffffff831660048201526000916001600160a01b03169063e7b2174890602401602060405180830381865afa158015611e3d573d6000803e3d6000fd5b505050506040513d601f19601f82011682018060405250810190611e6191906150f2565b90506001600160a01b038116611ea3576040517fd5528c8600000000000000000000000000000000000000000000000000000000815260040160405180910390fd5b336001600160a01b03821614801590611ec757506033546001600160a01b03163314155b15610f77576040517fec4de4c900000000000000000000000000000000000000000000000000000000815260040160405180910390fd5b600061075b6298968067ffffffffffffffff8416615419565b611f1f6134a6565b6069805467ffffffffffffffff191667ffffffffffffffff9290921691909117905543606a55565b611f4f613580565b6067805467ffffffffffffffff92909216700100000000000000000000000000000000027fffffffffffffffff0000000000000000ffffffffffffffffffffffffffffffff90921691909117905543606855565b6000611fb26298968083615456565b156120255760405162461bcd60e51b815260206004820152602560248201527f507265636973696f6e206973206f76657220746865206d6178696d756d20646560448201527f66696e656400000000000000000000000000000000000000000000000000000060648201526084016108bc565b61075b629896808361546a565b6065546040517fc87b30380000000000000000000000000000000000000000000000000000000081526000916001600160a01b03169063c87b30389061207e908690869060040161547e565b602060405180830381865afa15801561209b573d6000803e3d6000fd5b505050506040513d601f19601f820116820180604052508101906120bf91906150f2565b90506001600160a01b038116612101576040517f8791c3b400000000000000000000000000000000000000000000000000000000815260040160405180910390fd5b336001600160a01b0382161480159061212557506033546001600160a01b03163314155b1561215c576040517f11ecf9f200000000000000000000000000000000000000000000000000000000815260040160405180910390fd5b505050565b61216b82826135df565b6065546040517fb2f569c50000000000000000000000000000000000000000000000000000000081526001600160a01b039091169063b2f569c5906121b4908490600401615021565b600060405180830381600087803b1580156121ce57600080fd5b505af11580156121e2573d6000803e3d6000fd5b505050506001600160a01b0382166000908152606d60205260409020600101546c01000000000000000000000000900460ff16612273576001600160a01b0382166000908152606d6020526040902060010180546008906122549068010000000000000000900463ffffffff16615492565b91906101000a81548163ffffffff021916908363ffffffff1602179055505b816001600160a01b03167f671ada3835502b9498e4a3116c344293ec3a4ef43f90bb42283d7d66a3f772b28260405161085a9190615021565b6065546040517f9b4ddb5d0000000000000000000000000000000000000000000000000000000081526001600160a01b0390911690639b4ddb5d90612305908d908d908d908d908d908d908d908d908d906004016155c5565b600060405180830381600087803b15801561231f57600080fd5b505af1158015612333573d6000803e3d6000fd5b505050506001600160a01b038a166000908152606d6020526040902060018101546c01000000000000000000000000900460ff166123ae5760018101805460089061238f9068010000000000000000900463ffffffff16615305565b91906101000a81548163ffffffff021916908363ffffffff1602179055505b60005b63ffffffff811688111561247657600089898363ffffffff168181106123d9576123d96152d6565b90506020020160208101906123ee9190614890565b90506123f981613743565b60018301546c01000000000000000000000000900460ff1661245b5763ffffffff8082166000908152606c602052604081206003018054909261243c9116615305565b91906101000a81548163ffffffff021916908363ffffffff1602179055505b6124658d8261378b565b5061246f81615305565b90506123b1565b508115612487576124873383612787565b6124908b611d95565b156124c7576040517fad3a8b9e00000000000000000000000000000000000000000000000000000000815260040160405180910390fd5b8a6001600160a01b03167f888b4bb563730efc1c420fb22b503c3551134948a3a3dce4ffab6380e9ce50258b8b8b8b8b8b8b8b60405161250e989796959493929190615635565b60405180910390a25050505050505050505050565b6001600160a01b0381166000908152606d60205260408120600101546c01000000000000000000000000900460ff161561255f57506000919050565b60005b6001600160a01b0383166000908152606f602052604090205463ffffffff82161015612605576001600160a01b0383166000908152606f6020526040902080546125e991859163ffffffff85169081106125be576125be6152d6565b90600052602060002090600891828204019190066004029054906101000a900463ffffffff16613797565b6125f390836151ef565b91506125fe81615305565b9050612562565b506067546001600160a01b0383166000908152606d602052604090206001015461264e91680100000000000000009081900467ffffffffffffffff16910463ffffffff16615238565b61265890826151ef565b6065546040517f0dc1eeff0000000000000000000000000000000000000000000000000000000081526001600160a01b03858116600483015292935060009290911690630dc1eeff90602401600060405180830381865afa1580156126c1573d6000803e3d6000fd5b505050506040513d6000823e601f3d908101601f191682016040526126e99190810190615058565b905060005b81518163ffffffff16101561278057612725828263ffffffff1681518110612718576127186152d6565b602002602001015161386c565b67ffffffffffffffff168367ffffffffffffffff1611612749575060009392505050565b612764828263ffffffff1681518110612718576127186152d6565b61276e9084615695565b925061277981615305565b90506126ee565b5050919050565b6066546040517f23b872dd000000000000000000000000000000000000000000000000000000008152336004820152306024820152604481018390526001600160a01b03909116906323b872dd906064016020604051808303816000875af11580156127f7573d6000803e3d6000fd5b505050506040513d601f19601f8201168201806040525081019061281b9190615328565b5061282581611fa3565b6001600160a01b0383166000908152606d60205260408120805490919061285790849067ffffffffffffffff166151ef565b92506101000a81548167ffffffffffffffff021916908367ffffffffffffffff160217905550336001600160a01b0316826001600160a01b03167fb91f78378ad1ce7b5c12301896eac25f50d4603d0301406595e6fdfa6ffd6419836040516128c291815260200190565b60405180910390a35050565b6128d6611f17565b6128df81613320565b60005b6001600160a01b0382166000908152606f602052604090205463ffffffff82161015612a11576001600160a01b0382166000908152606f60205260408120805463ffffffff8416908110612938576129386152d6565b90600052602060002090600891828204019190066004029054906101000a900463ffffffff16905061296981613743565b6001600160a01b0383166000908152606e6020908152604080832063ffffffff85168452909152902061299d81858461391e565b805463ffffffff8381166000908152606c60205260408120600301805470010000000000000000000000000000000090940483169390926129e0918591166156be565b92506101000a81548163ffffffff021916908363ffffffff160217905550505080612a0a90615305565b90506128e2565b506065546040517f45413bf40000000000000000000000000000000000000000000000000000000081526001600160a01b038381166004830152909116906345413bf490602401600060405180830381600087803b158015612a7257600080fd5b505af1158015612a86573d6000803e3d6000fd5b505050506001600160a01b03166000908152606d6020526040902060010180547fffffffffffffffffffffffffffffffffffffff00ffffffffffffffffffffffff169055565b600080612ad883613995565b6001600160a01b0384166000908152606d6020526040902054612b05919067ffffffffffffffff166151ef565b90506000612b1284613a88565b6001600160a01b0385166000908152606d6020526040902054612b4b919068010000000000000000900467ffffffffffffffff166151ef565b90508067ffffffffffffffff168267ffffffffffffffff161015612b9b576040517f5e13ed3100000000000000000000000000000000000000000000000000000000815260040160405180910390fd5b612ba58183615695565b949350505050565b336000908152606d602052604090208054829190600890612be590849068010000000000000000900467ffffffffffffffff166151ef565b92506101000a81548167ffffffffffffffff021916908367ffffffffffffffff160217905550606660009054906101000a90046001600160a01b03166001600160a01b031663a9059cbb33612c438467ffffffffffffffff16611efe565b6040517fffffffff0000000000000000000000000000000000000000000000000000000060e085901b1681526001600160a01b03909216600483015260248201526044016020604051808303816000875af1158015612ca6573d6000803e3d6000fd5b505050506040513d601f19601f82011682018060405250810190612cca9190615328565b50337f233f5518707099d7be7f52de7c8094100dae65f0c896a762ebcc5900370d66bc612d0067ffffffffffffffff8416611efe565b60405190815260200160405180910390a250565b63ffffffff82166000908152606c60205260409020612d3283613c10565b436002820155612d4183613743565b6065546040517f8515736100000000000000000000000000000000000000000000000000000000815263ffffffff8516600482015267ffffffffffffffff841660248201526001600160a01b0390911690638515736190604401600060405180830381600087803b158015612db557600080fd5b505af1158015610e06573d6000803e3d6000fd5b6067805467ffffffffffffffff191667ffffffffffffffff83169081179091556040519081527f65703aa387fec070bf1ec4b824c8faee64d3ad3e45b03c119727391b06d168a790602001611ad7565b60008054610100900460ff1615612eb6578160ff166001148015612e3c5750303b155b612eae5760405162461bcd60e51b815260206004820152602e60248201527f496e697469616c697a61626c653a20636f6e747261637420697320616c72656160448201527f647920696e697469616c697a656400000000000000000000000000000000000060648201526084016108bc565b506000919050565b60005460ff808416911610612f335760405162461bcd60e51b815260206004820152602e60248201527f496e697469616c697a61626c653a20636f6e747261637420697320616c72656160448201527f647920696e697469616c697a656400000000000000000000000000000000000060648201526084016108bc565b50600080547fffffffffffffffffffffffffffffffffffffffffffffffffffffffffffffff001660ff92909216919091179055600190565b919050565b6000612f7c6001612e19565b90508015612fb157600080547fffffffffffffffffffffffffffffffffffffffffffffffffffffffffffff00ff166101001790555b612fb9613c78565b610da3878787878787613cfe565b6001600160a01b0381166000908152606d602052604081206001015463ffffffff680100000000000000008204169067ffffffffffffffff16613008613580565b6130129190615695565b61301c9190615238565b6001600160a01b0383166000908152606d602052604090205461075b91907801000000000000000000000000000000000000000000000000900467ffffffffffffffff166151ef565b606680547fffffffff0000000000000000ffffffffffffffffffffffffffffffffffffffff167401000000000000000000000000000000000000000067ffffffffffffffff8481168202929092179283905560405192041681527f0ba69538f9785fc112824ff736c1e58ccf880282e09e53d7eef96598e282d3fa90602001611ad7565b6103e867ffffffffffffffff82161015610b78576040517f732f941300000000000000000000000000000000000000000000000000000000815260040160405180910390fd5b603380546001600160a01b038381167fffffffffffffffffffffffff0000000000000000000000000000000000000000831681179093556040519116919082907f8be0079c531659141344cd1fd0a4f28419497f9722a3daafe3b4186f6b6457e090600090a35050565b606b5460009067ffffffffffffffff166131b16134a6565b6114959190615695565b6070805467ffffffffffffffff191667ffffffffffffffff83169081179091556040519081527fcaf8245d4ec588ab95e4db438be7dde364ed732720724028fefc713816d5371190602001611ad7565b6001600160a01b0381166000908152606d60205260408120600101546c01000000000000000000000000900460ff1615801561075b5750336001600160a01b038316148061075b575061075b82613448565b600061326882613e57565b600061327383612acc565b6001600160a01b0384166000908152606d60205260409020805491925082916010906132be908490700100000000000000000000000000000000900467ffffffffffffffff166151ef565b92506101000a81548167ffffffffffffffff021916908367ffffffffffffffff160217905550826001600160a01b03167f4fa857769e6aa8d98c53ea164735f03821828e6672f227ea817ec1e74d61c34360405160405180910390a292915050565b61332981612fc7565b6001600160a01b0382166000908152606d60205260409020805467ffffffffffffffff9290921678010000000000000000000000000000000000000000000000000277ffffffffffffffffffffffffffffffffffffffffffffffff909216919091179055613395613580565b6001600160a01b03919091166000908152606d60205260409020600101805467ffffffffffffffff191667ffffffffffffffff909216919091179055565b607080547fffffffffffffffffffffffffffffffff0000000000000000ffffffffffffffff166801000000000000000067ffffffffffffffff8416908102919091179091556040519081527f274c410ee0d5c156c7b7a46ff059b0df2394a5943e30bca4d54f01fb78a91c0790602001611ad7565b600061345382612523565b606654613482919074010000000000000000000000000000000000000000900467ffffffffffffffff16615238565b67ffffffffffffffff1661349583612acc565b67ffffffffffffffff161092915050565b600080606560009054906101000a90046001600160a01b03166001600160a01b0316632340e8d36040518163ffffffff1660e01b8152600401602060405180830381865afa1580156134fc573d6000803e3d6000fd5b505050506040513d601f19601f8201168201806040525081019061352091906153c2565b63ffffffff16606760089054906101000a900467ffffffffffffffff1667ffffffffffffffff16606a544361355591906156dd565b61355f9190615419565b6135699190615419565b60695461075b919067ffffffffffffffff166152be565b60675460685460009168010000000000000000900467ffffffffffffffff16906135aa90436156dd565b6135b49190615238565b6067546114959190700100000000000000000000000000000000900467ffffffffffffffff166151ef565b6065546040517f053e83490000000000000000000000000000000000000000000000000000000081526000916001600160a01b03169063053e834990613629908590600401615021565b600060405180830381865afa158015613646573d6000803e3d6000fd5b505050506040513d6000823e601f3d908101601f1916820160405261366e9190810190615058565b905060005b81518163ffffffff1610156116e6576000828263ffffffff168151811061369c5761369c6152d6565b602002602001015190506136af81613743565b6001600160a01b0385166000908152606d60205260409020600101546c01000000000000000000000000900460ff166137285763ffffffff8082166000908152606c60205260408120600301805490926137099116615492565b91906101000a81548163ffffffff021916908363ffffffff1602179055505b6137328582614066565b5061373c81615305565b9050613673565b63ffffffff81166000908152606c6020526040902061376182614072565b60018201805467ffffffffffffffff191667ffffffffffffffff9290921691909117905543905550565b610f77828260016140d4565b6001600160a01b038281166000908152606e6020908152604080832063ffffffff86811680865291909352818420805460655493517ff8f08d7f000000000000000000000000000000000000000000000000000000008152600481019390935294959094700100000000000000000000000000000000900490931692919091169063f8f08d7f90602401602060405180830381865afa15801561383e573d6000803e3d6000fd5b505050506040513d601f19601f82011682018060405250810190613862919061521b565b612ba59190615238565b63ffffffff8181166000818152606c60205260408082206003015460655491517ff8f08d7f0000000000000000000000000000000000000000000000000000000081526004810194909452919391909116916001600160a01b039091169063f8f08d7f90602401602060405180830381865afa1580156138f0573d6000803e3d6000fd5b505050506040513d601f19601f82011682018060405250810190613914919061521b565b61075b9190615238565b6139298383836146e2565b835467ffffffffffffffff9190911668010000000000000000027fffffffffffffffffffffffffffffffff0000000000000000ffffffffffffffff9091161783556139738161478d565b835467ffffffffffffffff191667ffffffffffffffff91909116179092555050565b6065546040517f0dc1eeff0000000000000000000000000000000000000000000000000000000081526001600160a01b0383811660048301526000928392839290911690630dc1eeff90602401600060405180830381865afa1580156139ff573d6000803e3d6000fd5b505050506040513d6000823e601f3d908101601f19168201604052613a279190810190615058565b905060005b81518163ffffffff161015613a7f57613a63828263ffffffff1681518110613a5657613a566152d6565b6020026020010151614072565b613a6d90846151ef565b9250613a7881615305565b9050613a2c565b50909392505050565b600080613a9483612fc7565b6001600160a01b0384166000908152606d6020526040902054613ad59190700100000000000000000000000000000000900467ffffffffffffffff166151ef565b905060005b6001600160a01b0384166000908152606f602052604090205463ffffffff82161015613c09576001600160a01b0384166000908152606e60209081526040808320606f9092528220805483919063ffffffff8616908110613b3d57613b3d6152d6565b90600052602060002090600891828204019190066004029054906101000a900463ffffffff1663ffffffff1663ffffffff1681526020019081526020016000209050613beb8186606f6000896001600160a01b03166001600160a01b031681526020019081526020016000208563ffffffff1681548110613bc057613bc06152d6565b90600052602060002090600891828204019190066004029054906101000a900463ffffffff166146e2565b613bf590846151ef565b92505080613c0290615305565b9050613ada565b5092915050565b613c198161478d565b63ffffffff9091166000908152606c60205260409020600101805467ffffffffffffffff9290921668010000000000000000027fffffffffffffffffffffffffffffffff0000000000000000ffffffffffffffff909216919091179055565b600054610100900460ff16613cf55760405162461bcd60e51b815260206004820152602b60248201527f496e697469616c697a61626c653a20636f6e7472616374206973206e6f74206960448201527f6e697469616c697a696e6700000000000000000000000000000000000000000060648201526084016108bc565b6114863361312f565b600054610100900460ff16613d7b5760405162461bcd60e51b815260206004820152602b60248201527f496e697469616c697a61626c653a20636f6e7472616374206973206e6f74206960448201527f6e697469616c697a696e6700000000000000000000000000000000000000000060648201526084016108bc565b606580546001600160a01b038089167fffffffffffffffffffffffff0000000000000000000000000000000000000000928316179092556066805492881692909116919091179055613dcc84613065565b613dd583612dc9565b613dde826131bb565b613de7816133d3565b606560009054906101000a90046001600160a01b03166001600160a01b0316638129fc1c6040518163ffffffff1660e01b8152600401600060405180830381600087803b158015613e3757600080fd5b505af1158015613e4b573d6000803e3d6000fd5b50505050505050505050565b613e5f611f17565b613e6881613320565b60005b6001600160a01b0382166000908152606f602052604090205463ffffffff82161015613f9a576001600160a01b0382166000908152606f60205260408120805463ffffffff8416908110613ec157613ec16152d6565b90600052602060002090600891828204019190066004029054906101000a900463ffffffff169050613ef281613743565b6001600160a01b0383166000908152606e6020908152604080832063ffffffff851684529091529020613f2681858461391e565b805463ffffffff8381166000908152606c6020526040812060030180547001000000000000000000000000000000009094048316939092613f69918591166156f4565b92506101000a81548163ffffffff021916908363ffffffff160217905550505080613f9390615305565b9050613e6b565b506065546040517f27467a180000000000000000000000000000000000000000000000000000000081526001600160a01b038381166004830152909116906327467a1890602401600060405180830381600087803b158015613ffb57600080fd5b505af115801561400f573d6000803e3d6000fd5b5050506001600160a01b039091166000908152606d6020526040902060010180547fffffffffffffffffffffffffffffffffffffff00ffffffffffffffffffffffff166c0100000000000000000000000017905550565b610f77828260006140d4565b600061407d8261386c565b63ffffffff83166000908152606c602052604090205461409d90436156dd565b6140a79190615238565b63ffffffff83166000908152606c602052604090206001015461075b919067ffffffffffffffff166151ef565b6001600160a01b0383166000908152606e6020908152604080832063ffffffff86168452909152902080547801000000000000000000000000000000000000000000000000900460ff16156144b95761412e81858561391e565b8115614181578054819060109061415e90700100000000000000000000000000000000900463ffffffff16615305565b91906101000a81548163ffffffff021916908363ffffffff1602179055506116e6565b805481906010906141ab90700100000000000000000000000000000000900463ffffffff16615492565b91906101000a81548163ffffffff021916908363ffffffff160217905563ffffffff166000036144b45780546001600160a01b0385166000908152606d60205260409020805467ffffffffffffffff6801000000000000000090930483169260109161422d9185917001000000000000000000000000000000009004166151ef565b825467ffffffffffffffff9182166101009390930a9283029190920219909116179055506001600160a01b0384166000908152606f602052604090208054614277906001906156dd565b81548110614287576142876152d6565b600091825260208083206008830401546001600160a01b0388168452606f90915260409092208354815460079093166004026101000a90930463ffffffff90811693919274010000000000000000000000000000000000000000909204169081106142f4576142f46152d6565b600091825260208083206008830401805460079093166004026101000a63ffffffff81810219909416958416029490941790935583546001600160a01b0388168352606e84526040808420606f90955283208054740100000000000000000000000000000000000000009092049092169392919084908110614378576143786152d6565b6000918252602080832060088304015463ffffffff60046007909416939093026101000a900482168452838101949094526040928301822080549590911674010000000000000000000000000000000000000000027fffffffffffffffff00000000ffffffffffffffffffffffffffffffffffffffff909516949094179093556001600160a01b0387168352606f909152902080548061441a5761441a615711565b6000828152602080822060087fffffffffffffffffffffffffffffffffffffffffffffffffffffffffffffffff90940193840401805463ffffffff600460078716026101000a810219909116909155929093556001600160a01b0387168152606e83526040808220928716825291909252902080547fffffffffffffff000000000000000000000000000000000000000000000000001690555b6116e6565b6001600160a01b0384166000908152606f60205260409020546032101561450c576040517f9722180300000000000000000000000000000000000000000000000000000000815260040160405180910390fd5b6040518060a001604052806145208561478d565b67ffffffffffffffff908116825260006020808401829052600160408086018290526001600160a01b038b16808552606f808552828620805463ffffffff9081166060808c019190915260809a8b01879052938852606e87528488208e8216808a529088528589208c5181548e8b0151988f0151978f01519e909d015115157801000000000000000000000000000000000000000000000000027fffffffffffffff00ffffffffffffffffffffffffffffffffffffffffffffffff9e851674010000000000000000000000000000000000000000027fffffffffffffffff00000000ffffffffffffffffffffffffffffffffffffffff98861670010000000000000000000000000000000002989098167fffffffffffffffff0000000000000000ffffffffffffffffffffffffffffffff998e1668010000000000000000027fffffffffffffffffffffffffffffffff00000000000000000000000000000000909f1692909d16919091179c909c1796909616999099179390931799909916979097179091559482528554908101865594825290206008840401805460046007909516949094026101000a918202919092021990921691909117905550505050565b6001600160a01b0382166000908152606d60205260408120600101546c01000000000000000000000000900460ff1661475e57835463ffffffff7001000000000000000000000000000000008204169067ffffffffffffffff166147458461478d565b61474f9190615695565b6147599190615238565b614761565b60005b8454614783919068010000000000000000900467ffffffffffffffff166151ef565b90505b9392505050565b63ffffffff81166000908152606c60205260408120600201546147b090436156dd565b6065546040517ff8f08d7f00000000000000000000000000000000000000000000000000000000815263ffffffff851660048201526001600160a01b039091169063f8f08d7f90602401602060405180830381865afa158015614817573d6000803e3d6000fd5b505050506040513d601f19601f8201168201806040525081019061483b919061521b565b6148459190615238565b63ffffffff83166000908152606c602052604090206001015461075b919068010000000000000000900467ffffffffffffffff166151ef565b63ffffffff81168114610b7857600080fd5b6000602082840312156148a257600080fd5b81356147868161487e565b60005b838110156148c85781810151838201526020016148b0565b838111156116e65750506000910152565b600081518084526148f18160208601602086016148ad565b601f01601f19169290920160200192915050565b60e08152600061491860e083018a6148d9565b6001600160a01b0389166020840152828103604084015261493981896148d9565b9150508560608301528460808301528360a083015282151560c083015298975050505050505050565b6001600160a01b0381168114610b7857600080fd5b60006020828403121561498957600080fd5b813561478681614962565b7f4e487b7100000000000000000000000000000000000000000000000000000000600052604160045260246000fd5b604051601f8201601f1916810167ffffffffffffffff811182821017156149ec576149ec614994565b604052919050565b600067ffffffffffffffff821115614a0e57614a0e614994565b50601f01601f191660200190565b600060208284031215614a2e57600080fd5b813567ffffffffffffffff811115614a4557600080fd5b8201601f81018413614a5657600080fd5b8035614a69614a64826149f4565b6149c3565b818152856020838501011115614a7e57600080fd5b81602084016020830137600091810160200191909152949350505050565b6020808252825182820181905260009190848201906040850190845b81811015614ada57835163ffffffff1683529284019291840191600101614ab8565b50909695505050505050565b600060208284031215614af857600080fd5b5035919050565b60008083601f840112614b1157600080fd5b50813567ffffffffffffffff811115614b2957600080fd5b602083019150836020828501011115614b4157600080fd5b9250929050565b60008083601f840112614b5a57600080fd5b50813567ffffffffffffffff811115614b7257600080fd5b6020830191508360208260051b8501011115614b4157600080fd5b600080600080600080600080600060a08a8c031215614bab57600080fd5b893567ffffffffffffffff80821115614bc357600080fd5b614bcf8d838e01614aff565b909b50995060208c0135915080821115614be857600080fd5b614bf48d838e01614b48565b909950975060408c0135915080821115614c0d57600080fd5b614c198d838e01614b48565b909750955060608c0135915080821115614c3257600080fd5b50614c3f8c828d01614b48565b9a9d999c50979a9699959894979660800135949350505050565b67ffffffffffffffff81168114610b7857600080fd5b600060208284031215614c8157600080fd5b813561478681614c59565b60008060008060008060c08789031215614ca557600080fd5b8635614cb081614962565b95506020870135614cc081614962565b94506040870135614cd081614c59565b93506060870135614ce081614c59565b92506080870135614cf081614c59565b915060a0870135614d0081614c59565b809150509295509295509295565b60008060408385031215614d2157600080fd5b8235614d2c81614962565b946020939093013593505050565b6000602080830181845280855180835260408601915060408160051b870101925083870160005b82811015614dad577fffffffffffffffffffffffffffffffffffffffffffffffffffffffffffffffc0888603018452614d9b8583516148d9565b94509285019290850190600101614d61565b5092979650505050505050565b60008060408385031215614dcd57600080fd5b8235614dd88161487e565b91506020830135614de88161487e565b809150509250929050565b60008060408385031215614e0657600080fd5b8235614d2c8161487e565b60008060208385031215614e2457600080fd5b823567ffffffffffffffff811115614e3b57600080fd5b614e4785828601614b48565b90969095509350505050565b600080600080600060608688031215614e6b57600080fd5b853567ffffffffffffffff80821115614e8357600080fd5b614e8f89838a01614aff565b90975095506020880135915080821115614ea857600080fd5b50614eb588828901614aff565b96999598509660400135949350505050565b60008060208385031215614eda57600080fd5b823567ffffffffffffffff811115614ef157600080fd5b614e4785828601614aff565b6000614f0b614a64846149f4565b9050828152838383011115614f1f57600080fd5b6147868360208301846148ad565b8051612f6b81614962565b600082601f830112614f4957600080fd5b61478683835160208501614efd565b80518015158114612f6b57600080fd5b600080600080600080600060e0888a031215614f8357600080fd5b875167ffffffffffffffff80821115614f9b57600080fd5b818a0191508a601f830112614faf57600080fd5b614fbe8b835160208501614efd565b9850614fcc60208b01614f2d565b975060408a0151915080821115614fe257600080fd5b50614fef8a828b01614f38565b955050606088015193506080880151925060a0880151915061501360c08901614f58565b905092959891949750929550565b60208152600061478660208301846148d9565b600067ffffffffffffffff82111561504e5761504e614994565b5060051b60200190565b6000602080838503121561506b57600080fd5b825167ffffffffffffffff81111561508257600080fd5b8301601f8101851361509357600080fd5b80516150a1614a6482615034565b81815260059190911b820183019083810190878311156150c057600080fd5b928401925b828410156150e75783516150d88161487e565b825292840192908401906150c5565b979650505050505050565b60006020828403121561510457600080fd5b815161478681614962565b6000602080838503121561512257600080fd5b825167ffffffffffffffff8082111561513a57600080fd5b818501915085601f83011261514e57600080fd5b815161515c614a6482615034565b81815260059190911b8301840190848101908883111561517b57600080fd5b8585015b838110156151b3578051858111156151975760008081fd5b6151a58b89838a0101614f38565b84525091860191860161517f565b5098975050505050505050565b7f4e487b7100000000000000000000000000000000000000000000000000000000600052601160045260246000fd5b600067ffffffffffffffff808316818516808303821115615212576152126151c0565b01949350505050565b60006020828403121561522d57600080fd5b815161478681614c59565b600067ffffffffffffffff8083168185168183048111821515161561525f5761525f6151c0565b02949350505050565b7f4e487b7100000000000000000000000000000000000000000000000000000000600052601260045260246000fd5b600067ffffffffffffffff808416806152b2576152b2615268565b92169190910492915050565b600082198211156152d1576152d16151c0565b500190565b7f4e487b7100000000000000000000000000000000000000000000000000000000600052603260045260246000fd5b600063ffffffff80831681810361531e5761531e6151c0565b6001019392505050565b60006020828403121561533a57600080fd5b61478682614f58565b818352818160208501375060006020828401015260006020601f19601f840116840101905092915050565b60808152600061538260808301888a615343565b6001600160a01b038716602084015282810360408401526153a4818688615343565b91505067ffffffffffffffff83166060830152979650505050505050565b6000602082840312156153d457600080fd5b81516147868161487e565b6060815260006153f3606083018789615343565b8281036020840152615406818688615343565b9150508260408301529695505050505050565b6000817fffffffffffffffffffffffffffffffffffffffffffffffffffffffffffffffff0483118215151615615451576154516151c0565b500290565b60008261546557615465615268565b500690565b60008261547957615479615268565b500490565b602081526000614783602083018486615343565b600063ffffffff8216806154a8576154a86151c0565b7fffffffffffffffffffffffffffffffffffffffffffffffffffffffffffffffff0192915050565b8183526000602080850194508260005b8581101561550b5781356154f38161487e565b63ffffffff16875295820195908201906001016154e0565b509495945050505050565b81835260006020808501808196508560051b810191508460005b878110156155b857828403895281357fffffffffffffffffffffffffffffffffffffffffffffffffffffffffffffffe188360301811261556f57600080fd5b8701803567ffffffffffffffff81111561558857600080fd5b80360389131561559757600080fd5b6155a48682898501615343565b9a87019a9550505090840190600101615530565b5091979650505050505050565b6001600160a01b038a16815260a0602082015260006155e860a083018a8c615343565b82810360408401526155fb81898b6154d0565b90508281036060840152615610818789615516565b90508281036080840152615625818587615516565b9c9b505050505050505050505050565b608081526000615649608083018a8c615343565b828103602084015261565c81898b6154d0565b90508281036040840152615671818789615516565b90508281036060840152615686818587615516565b9b9a5050505050505050505050565b600067ffffffffffffffff838116908316818110156156b6576156b66151c0565b039392505050565b600063ffffffff808316818516808303821115615212576152126151c0565b6000828210156156ef576156ef6151c0565b500390565b600063ffffffff838116908316818110156156b6576156b66151c0565b7f4e487b7100000000000000000000000000000000000000000000000000000000600052603160045260246000fdfea264697066735822122028637b8476c63a8fd2d8c138d272b32ffd395acb52a85d9ab133a0ea3f76d06f64736f6c634300080d0033",
  "linkReferences": {},
  "deployedLinkReferences": {}
}