{
  "_format": "hh-sol-artifact-1",
  "contractName": "StakingPool",
  "sourceName": "contracts/StakingPool.sol",
  "abi": [
    {
      "inputs": [
        {
          "internalType": "address",
          "name": "depositContractAddress_",
          "type": "address"
        },
        {
          "internalType": "address",
          "name": "owner_",
          "type": "address"
        }
      ],
      "stateMutability": "nonpayable",
      "type": "constructor"
    },
    {
      "anonymous": false,
      "inputs": [
        {
          "indexed": true,
          "internalType": "address",
          "name": "owner",
          "type": "address"
        },
        {
          "indexed": true,
          "internalType": "address",
          "name": "approved",
          "type": "address"
        },
        {
          "indexed": true,
          "internalType": "uint256",
          "name": "tokenId",
          "type": "uint256"
        }
      ],
      "name": "Approval",
      "type": "event"
    },
    {
      "anonymous": false,
      "inputs": [
        {
          "indexed": true,
          "internalType": "address",
          "name": "owner",
          "type": "address"
        },
        {
          "indexed": true,
          "internalType": "address",
          "name": "operator",
          "type": "address"
        },
        {
          "indexed": false,
          "internalType": "bool",
          "name": "approved",
          "type": "bool"
        }
      ],
      "name": "ApprovalForAll",
      "type": "event"
    },
    {
      "anonymous": false,
      "inputs": [
        {
          "indexed": false,
          "internalType": "address",
          "name": "depositContractAddress",
          "type": "address"
        },
        {
          "indexed": false,
          "internalType": "address",
          "name": "caller",
          "type": "address"
        }
      ],
      "name": "Deposit",
      "type": "event"
    },
    {
      "anonymous": false,
      "inputs": [
        {
          "indexed": true,
          "internalType": "address",
          "name": "from",
          "type": "address"
        },
        {
          "indexed": true,
          "internalType": "address",
          "name": "to",
          "type": "address"
        },
        {
          "indexed": true,
          "internalType": "uint256",
          "name": "tokenId",
          "type": "uint256"
        }
      ],
      "name": "Transfer",
      "type": "event"
    },
    {
      "stateMutability": "payable",
      "type": "fallback"
    },
    {
      "inputs": [
        {
          "internalType": "address",
          "name": "to",
          "type": "address"
        },
        {
          "internalType": "uint256",
          "name": "tokenId",
          "type": "uint256"
        }
      ],
      "name": "approve",
      "outputs": [],
      "stateMutability": "nonpayable",
      "type": "function"
    },
    {
      "inputs": [
        {
          "internalType": "address",
          "name": "owner",
          "type": "address"
        }
      ],
      "name": "balanceOf",
      "outputs": [
        {
          "internalType": "uint256",
          "name": "",
          "type": "uint256"
        }
      ],
      "stateMutability": "view",
      "type": "function"
    },
    {
      "inputs": [
        {
          "internalType": "address",
          "name": "userAddress",
          "type": "address"
        }
      ],
      "name": "deposit",
      "outputs": [],
      "stateMutability": "payable",
      "type": "function"
    },
    {
      "inputs": [
        {
          "internalType": "uint256",
          "name": "",
          "type": "uint256"
        }
      ],
      "name": "depositAmount",
      "outputs": [
        {
          "internalType": "uint256",
          "name": "",
          "type": "uint256"
        }
      ],
      "stateMutability": "view",
      "type": "function"
    },
    {
      "inputs": [],
      "name": "depositContractAddress",
      "outputs": [
        {
          "internalType": "address",
          "name": "",
          "type": "address"
        }
      ],
      "stateMutability": "view",
      "type": "function"
    },
    {
      "inputs": [
        {
          "internalType": "uint256",
          "name": "tokenId",
          "type": "uint256"
        }
      ],
      "name": "getApproved",
      "outputs": [
        {
          "internalType": "address",
          "name": "",
          "type": "address"
        }
      ],
      "stateMutability": "view",
      "type": "function"
    },
    {
      "inputs": [
        {
          "internalType": "address",
          "name": "owner",
          "type": "address"
        },
        {
          "internalType": "address",
          "name": "operator",
          "type": "address"
        }
      ],
      "name": "isApprovedForAll",
      "outputs": [
        {
          "internalType": "bool",
          "name": "",
          "type": "bool"
        }
      ],
      "stateMutability": "view",
      "type": "function"
    },
    {
      "inputs": [],
      "name": "name",
      "outputs": [
        {
          "internalType": "string",
          "name": "",
          "type": "string"
        }
      ],
      "stateMutability": "view",
      "type": "function"
    },
    {
      "inputs": [
        {
          "internalType": "uint256",
          "name": "tokenId",
          "type": "uint256"
        }
      ],
      "name": "ownerOf",
      "outputs": [
        {
          "internalType": "address",
          "name": "",
          "type": "address"
        }
      ],
      "stateMutability": "view",
      "type": "function"
    },
    {
      "inputs": [],
      "name": "rugpull",
      "outputs": [],
      "stateMutability": "nonpayable",
      "type": "function"
    },
    {
      "inputs": [
        {
          "internalType": "address",
          "name": "from",
          "type": "address"
        },
        {
          "internalType": "address",
          "name": "to",
          "type": "address"
        },
        {
          "internalType": "uint256",
          "name": "tokenId",
          "type": "uint256"
        }
      ],
      "name": "safeTransferFrom",
      "outputs": [],
      "stateMutability": "nonpayable",
      "type": "function"
    },
    {
      "inputs": [
        {
          "internalType": "address",
          "name": "from",
          "type": "address"
        },
        {
          "internalType": "address",
          "name": "to",
          "type": "address"
        },
        {
          "internalType": "uint256",
          "name": "tokenId",
          "type": "uint256"
        },
        {
          "internalType": "bytes",
          "name": "_data",
          "type": "bytes"
        }
      ],
      "name": "safeTransferFrom",
      "outputs": [],
      "stateMutability": "nonpayable",
      "type": "function"
    },
    {
      "inputs": [
        {
          "internalType": "address",
          "name": "operator",
          "type": "address"
        },
        {
          "internalType": "bool",
          "name": "approved",
          "type": "bool"
        }
      ],
      "name": "setApprovalForAll",
      "outputs": [],
      "stateMutability": "nonpayable",
      "type": "function"
    },
    {
      "inputs": [
        {
          "internalType": "bytes",
          "name": "pubkey",
          "type": "bytes"
        },
        {
          "internalType": "bytes",
          "name": "withdrawal_credentials",
          "type": "bytes"
        },
        {
          "internalType": "bytes",
          "name": "signature",
          "type": "bytes"
        },
        {
          "internalType": "bytes32",
          "name": "deposit_data_root",
          "type": "bytes32"
        }
      ],
      "name": "stake",
      "outputs": [],
      "stateMutability": "nonpayable",
      "type": "function"
    },
    {
      "inputs": [
        {
          "internalType": "bytes4",
          "name": "interfaceId",
          "type": "bytes4"
        }
      ],
      "name": "supportsInterface",
      "outputs": [
        {
          "internalType": "bool",
          "name": "",
          "type": "bool"
        }
      ],
      "stateMutability": "view",
      "type": "function"
    },
    {
      "inputs": [],
      "name": "symbol",
      "outputs": [
        {
          "internalType": "string",
          "name": "",
          "type": "string"
        }
      ],
      "stateMutability": "view",
      "type": "function"
    },
    {
      "inputs": [
        {
          "internalType": "uint256",
          "name": "index",
          "type": "uint256"
        }
      ],
      "name": "tokenByIndex",
      "outputs": [
        {
          "internalType": "uint256",
          "name": "",
          "type": "uint256"
        }
      ],
      "stateMutability": "view",
      "type": "function"
    },
    {
      "inputs": [
        {
          "internalType": "address",
          "name": "owner",
          "type": "address"
        },
        {
          "internalType": "uint256",
          "name": "index",
          "type": "uint256"
        }
      ],
      "name": "tokenOfOwnerByIndex",
      "outputs": [
        {
          "internalType": "uint256",
          "name": "",
          "type": "uint256"
        }
      ],
      "stateMutability": "view",
      "type": "function"
    },
    {
      "inputs": [
        {
          "internalType": "uint256",
          "name": "tokenId",
          "type": "uint256"
        }
      ],
      "name": "tokenURI",
      "outputs": [
        {
          "internalType": "string",
          "name": "",
          "type": "string"
        }
      ],
      "stateMutability": "view",
      "type": "function"
    },
    {
      "inputs": [],
      "name": "totalSupply",
      "outputs": [
        {
          "internalType": "uint256",
          "name": "",
          "type": "uint256"
        }
      ],
      "stateMutability": "view",
      "type": "function"
    },
    {
      "inputs": [
        {
          "internalType": "address",
          "name": "from",
          "type": "address"
        },
        {
          "internalType": "address",
          "name": "to",
          "type": "address"
        },
        {
          "internalType": "uint256",
          "name": "tokenId",
          "type": "uint256"
        }
      ],
      "name": "transferFrom",
      "outputs": [],
      "stateMutability": "nonpayable",
      "type": "function"
    },
    {
      "inputs": [],
      "name": "unstake",
      "outputs": [],
      "stateMutability": "nonpayable",
      "type": "function"
    },
    {
      "inputs": [
        {
          "internalType": "uint256",
          "name": "_id",
          "type": "uint256"
        },
        {
          "internalType": "uint256",
          "name": "_amount",
          "type": "uint256"
        }
      ],
      "name": "withdraw",
      "outputs": [],
      "stateMutability": "nonpayable",
      "type": "function"
    },
    {
      "stateMutability": "payable",
      "type": "receive"
    }
  ],
  "bytecode": "0x60806040523480156200001157600080fd5b50604051620020fb380380620020fb8339810160408190526200003491620001ca565b604080518082018252601381527f7374616b696e6720636f6e20616d696f676f73000000000000000000000000006020808301918252835180850190945260058452644652454e5360d81b908401528151919291620000969160009162000107565b508051620000ac90600190602084019062000107565b5050600c80546001600160a81b0319166101006001600160a01b0395861681029190911791829055600d80549190920485166001600160a01b031991821617909155600e80549091169290931691909117909155506200023e565b828054620001159062000201565b90600052602060002090601f01602090048101928262000139576000855562000184565b82601f106200015457805160ff191683800117855562000184565b8280016001018555821562000184579182015b828111156200018457825182559160200191906001019062000167565b506200019292915062000196565b5090565b5b8082111562000192576000815560010162000197565b80516001600160a01b0381168114620001c557600080fd5b919050565b60008060408385031215620001dd578182fd5b620001e883620001ad565b9150620001f860208401620001ad565b90509250929050565b600181811c908216806200021657607f821691505b602082108114156200023857634e487b7160e01b600052602260045260246000fd5b50919050565b611ead806200024e6000396000f3fe6080604052600436106101385760003560e01c80634b2b4e36116100b0578063a22cb4651161006c578063a22cb465146103c9578063b88d4fde146103e9578063c87b56dd14610409578063e2664e4914610429578063e985e9c51461043e578063f340fa011461048757005b80634b2b4e36146103075780634f6ccce7146103275780636352211e1461034757806370a082311461036757806387f8ab261461038757806395d89b41146103b457005b806323b872dd116100ff57806323b872dd146102435780632a4dbd2b146102635780632def6620146102885780632f745c59146102a757806342842e0e146102c7578063441a3e70146102e757005b806301ffc9a71461017557806306fdde03146101aa578063081812fc146101cc578063095ea7b31461020457806318160ddd1461022457005b3661017357600b805490600061014d83611df0565b9091555050600b546000818152600a60205260409020349055610170338261049a565b50005b005b34801561018157600080fd5b50610195610190366004611a6e565b6105ed565b60405190151581526020015b60405180910390f35b3480156101b657600080fd5b506101bf610618565b6040516101a19190611c90565b3480156101d857600080fd5b506101ec6101e7366004611b45565b6106aa565b6040516001600160a01b0390911681526020016101a1565b34801561021057600080fd5b5061017361021f366004611a45565b61073f565b34801561023057600080fd5b506008545b6040519081526020016101a1565b34801561024f57600080fd5b5061017361025e3660046118fb565b610855565b34801561026f57600080fd5b50600c546101ec9061010090046001600160a01b031681565b34801561029457600080fd5b50610173600c805460ff19166002179055565b3480156102b357600080fd5b506102356102c2366004611a45565b610886565b3480156102d357600080fd5b506101736102e23660046118fb565b61091c565b3480156102f357600080fd5b50610173610302366004611b5d565b610937565b34801561031357600080fd5b50610173610322366004611aa6565b610aaa565b34801561033357600080fd5b50610235610342366004611b45565b610c12565b34801561035357600080fd5b506101ec610362366004611b45565b610cb3565b34801561037357600080fd5b506102356103823660046118af565b610d2a565b34801561039357600080fd5b506102356103a2366004611b45565b600a6020526000908152604090205481565b3480156103c057600080fd5b506101bf610db1565b3480156103d557600080fd5b506101736103e4366004611a0b565b610dc0565b3480156103f557600080fd5b50610173610404366004611936565b610dcf565b34801561041557600080fd5b506101bf610424366004611b45565b610e07565b34801561043557600080fd5b50610173610eef565b34801561044a57600080fd5b506101956104593660046118c9565b6001600160a01b03918216600090815260056020908152604080832093909416825291909152205460ff1690565b6101736104953660046118af565b610f1e565b6001600160a01b0382166104f55760405162461bcd60e51b815260206004820181905260248201527f4552433732313a206d696e7420746f20746865207a65726f206164647265737360448201526064015b60405180910390fd5b6000818152600260205260409020546001600160a01b03161561055a5760405162461bcd60e51b815260206004820152601c60248201527f4552433732313a20746f6b656e20616c7265616479206d696e7465640000000060448201526064016104ec565b61056660008383610f51565b6001600160a01b038216600090815260036020526040812080546001929061058f908490611d46565b909155505060008181526002602052604080822080546001600160a01b0319166001600160a01b03861690811790915590518392907fddf252ad1be2c89b69c2b068fc378daa952ba7f163c4a11628f55a4df523b3ef908290a45050565b60006001600160e01b0319821663780e9d6360e01b1480610612575061061282611009565b92915050565b60606000805461062790611db5565b80601f016020809104026020016040519081016040528092919081815260200182805461065390611db5565b80156106a05780601f10610675576101008083540402835291602001916106a0565b820191906000526020600020905b81548152906001019060200180831161068357829003601f168201915b5050505050905090565b6000818152600260205260408120546001600160a01b03166107235760405162461bcd60e51b815260206004820152602c60248201527f4552433732313a20617070726f76656420717565727920666f72206e6f6e657860448201526b34b9ba32b73a103a37b5b2b760a11b60648201526084016104ec565b506000908152600460205260409020546001600160a01b031690565b600061074a82610cb3565b9050806001600160a01b0316836001600160a01b031614156107b85760405162461bcd60e51b815260206004820152602160248201527f4552433732313a20617070726f76616c20746f2063757272656e74206f776e656044820152603960f91b60648201526084016104ec565b336001600160a01b03821614806107d457506107d48133610459565b6108465760405162461bcd60e51b815260206004820152603860248201527f4552433732313a20617070726f76652063616c6c6572206973206e6f74206f7760448201527f6e6572206e6f7220617070726f76656420666f7220616c6c000000000000000060648201526084016104ec565b6108508383611059565b505050565b61085f33826110c7565b61087b5760405162461bcd60e51b81526004016104ec90611cf5565b6108508383836111be565b600061089183610d2a565b82106108f35760405162461bcd60e51b815260206004820152602b60248201527f455243373231456e756d657261626c653a206f776e657220696e646578206f7560448201526a74206f6620626f756e647360a81b60648201526084016104ec565b506001600160a01b03919091166000908152600660209081526040808320938352929052205490565b61085083838360405180602001604052806000815250610dcf565b6001600c5460ff16600281111561095e57634e487b7160e01b600052602160045260246000fd5b14156109ac5760405162461bcd60e51b815260206004820152601b60248201527f63616e6e6f74207769746864726177206f6e6365207374616b6564000000000060448201526064016104ec565b6109b582610cb3565b6001600160a01b0316336001600160a01b031614610a055760405162461bcd60e51b815260206004820152600d60248201526c3737ba103a34329037bbb732b960991b60448201526064016104ec565b6000828152600a6020526040902054811115610a5a5760405162461bcd60e51b81526020600482015260146024820152731b9bdd08195b9bdd59da0819195c1bdcda5d195960621b60448201526064016104ec565b6000828152600a602052604081208054839290610a78908490611d72565b9091555050604051339082156108fc029083906000818181858888f19350505050158015610850573d6000803e3d6000fd5b600e546001600160a01b03163314610af05760405162461bcd60e51b81526020600482015260096024820152682737ba1037bbb732b960b91b60448201526064016104ec565b6020471015610b325760405162461bcd60e51b815260206004820152600e60248201526d0dcdee840cadcdeeaced040cae8d60931b60448201526064016104ec565b600c805460ff19166001179055600d546040516304512a2360e31b81526801bc16d674ec800000916001600160a01b0316906322895118908390610b86908c908c908c908c908c908c908c90600401611c3f565b6000604051808303818588803b158015610b9f57600080fd5b505af1158015610bb3573d6000803e3d6000fd5b5050600c54604080516101009092046001600160a01b031682523360208301527f1944debb24a9aafcf2708be964e412cdb73fc36d6ea24577fd8dcc05b93b4a449450019150610c009050565b60405180910390a15050505050505050565b6000610c1d60085490565b8210610c805760405162461bcd60e51b815260206004820152602c60248201527f455243373231456e756d657261626c653a20676c6f62616c20696e646578206f60448201526b7574206f6620626f756e647360a01b60648201526084016104ec565b60088281548110610ca157634e487b7160e01b600052603260045260246000fd5b90600052602060002001549050919050565b6000818152600260205260408120546001600160a01b0316806106125760405162461bcd60e51b815260206004820152602960248201527f4552433732313a206f776e657220717565727920666f72206e6f6e657869737460448201526832b73a103a37b5b2b760b91b60648201526084016104ec565b60006001600160a01b038216610d955760405162461bcd60e51b815260206004820152602a60248201527f4552433732313a2062616c616e636520717565727920666f7220746865207a65604482015269726f206164647265737360b01b60648201526084016104ec565b506001600160a01b031660009081526003602052604090205490565b60606001805461062790611db5565b610dcb338383611369565b5050565b610dd933836110c7565b610df55760405162461bcd60e51b81526004016104ec90611cf5565b610e0184848484611438565b50505050565b6000818152600260205260409020546060906001600160a01b0316610e865760405162461bcd60e51b815260206004820152602f60248201527f4552433732314d657461646174613a2055524920717565727920666f72206e6f60448201526e3732bc34b9ba32b73a103a37b5b2b760891b60648201526084016104ec565b6000610e9d60408051602081019091526000815290565b90506000815111610ebd5760405180602001604052806000815250610ee8565b80610ec78461146b565b604051602001610ed8929190611bd3565b6040516020818303038152906040525b9392505050565b60405133904780156108fc02916000818181858888f19350505050158015610f1b573d6000803e3d6000fd5b50565b600b8054906000610f2e83611df0565b9091555050600b546000818152600a60205260409020349055610dcb828261049a565b6001600160a01b038316610fac57610fa781600880546000838152600960205260408120829055600182018355919091527ff3f7a9fe364faab93b216da50a3214154f22a0a2b415b23a84c8169e8b636ee30155565b610fcf565b816001600160a01b0316836001600160a01b031614610fcf57610fcf8382611585565b6001600160a01b038216610fe65761085081611622565b826001600160a01b0316826001600160a01b0316146108505761085082826116fb565b60006001600160e01b031982166380ac58cd60e01b148061103a57506001600160e01b03198216635b5e139f60e01b145b8061061257506301ffc9a760e01b6001600160e01b0319831614610612565b600081815260046020526040902080546001600160a01b0319166001600160a01b038416908117909155819061108e82610cb3565b6001600160a01b03167f8c5be1e5ebec7d5bd14f71427d1e84f3dd0314c0f7b2291e5b200ac8c7c3b92560405160405180910390a45050565b6000818152600260205260408120546001600160a01b03166111405760405162461bcd60e51b815260206004820152602c60248201527f4552433732313a206f70657261746f7220717565727920666f72206e6f6e657860448201526b34b9ba32b73a103a37b5b2b760a11b60648201526084016104ec565b600061114b83610cb3565b9050806001600160a01b0316846001600160a01b031614806111865750836001600160a01b031661117b846106aa565b6001600160a01b0316145b806111b657506001600160a01b0380821660009081526005602090815260408083209388168352929052205460ff165b949350505050565b826001600160a01b03166111d182610cb3565b6001600160a01b0316146112395760405162461bcd60e51b815260206004820152602960248201527f4552433732313a207472616e73666572206f6620746f6b656e2074686174206960448201526839903737ba1037bbb760b91b60648201526084016104ec565b6001600160a01b03821661129b5760405162461bcd60e51b8152602060048201526024808201527f4552433732313a207472616e7366657220746f20746865207a65726f206164646044820152637265737360e01b60648201526084016104ec565b6112a6838383610f51565b6112b1600082611059565b6001600160a01b03831660009081526003602052604081208054600192906112da908490611d72565b90915550506001600160a01b0382166000908152600360205260408120805460019290611308908490611d46565b909155505060008181526002602052604080822080546001600160a01b0319166001600160a01b0386811691821790925591518493918716917fddf252ad1be2c89b69c2b068fc378daa952ba7f163c4a11628f55a4df523b3ef91a4505050565b816001600160a01b0316836001600160a01b031614156113cb5760405162461bcd60e51b815260206004820152601960248201527f4552433732313a20617070726f766520746f2063616c6c65720000000000000060448201526064016104ec565b6001600160a01b03838116600081815260056020908152604080832094871680845294825291829020805460ff191686151590811790915591519182527f17307eab39ab6107e8899845ad3d59bd9653f200f220920489ca2b5937696c31910160405180910390a3505050565b6114438484846111be565b61144f8484848461173f565b610e015760405162461bcd60e51b81526004016104ec90611ca3565b60608161148f5750506040805180820190915260018152600360fc1b602082015290565b8160005b81156114b957806114a381611df0565b91506114b29050600a83611d5e565b9150611493565b60008167ffffffffffffffff8111156114e257634e487b7160e01b600052604160045260246000fd5b6040519080825280601f01601f19166020018201604052801561150c576020820181803683370190505b5090505b84156111b657611521600183611d72565b915061152e600a86611e0b565b611539906030611d46565b60f81b81838151811061155c57634e487b7160e01b600052603260045260246000fd5b60200101906001600160f81b031916908160001a90535061157e600a86611d5e565b9450611510565b6000600161159284610d2a565b61159c9190611d72565b6000838152600760205260409020549091508082146115ef576001600160a01b03841660009081526006602090815260408083208584528252808320548484528184208190558352600790915290208190555b5060009182526007602090815260408084208490556001600160a01b039094168352600681528383209183525290812055565b60085460009061163490600190611d72565b6000838152600960205260408120546008805493945090928490811061166a57634e487b7160e01b600052603260045260246000fd5b90600052602060002001549050806008838154811061169957634e487b7160e01b600052603260045260246000fd5b60009182526020808320909101929092558281526009909152604080822084905585825281205560088054806116df57634e487b7160e01b600052603160045260246000fd5b6001900381819060005260206000200160009055905550505050565b600061170683610d2a565b6001600160a01b039093166000908152600660209081526040808320868452825280832085905593825260079052919091209190915550565b60006001600160a01b0384163b1561184157604051630a85bd0160e11b81526001600160a01b0385169063150b7a0290611783903390899088908890600401611c02565b602060405180830381600087803b15801561179d57600080fd5b505af19250505080156117cd575060408051601f3d908101601f191682019092526117ca91810190611a8a565b60015b611827573d8080156117fb576040519150601f19603f3d011682016040523d82523d6000602084013e611800565b606091505b50805161181f5760405162461bcd60e51b81526004016104ec90611ca3565b805181602001fd5b6001600160e01b031916630a85bd0160e11b1490506111b6565b506001949350505050565b80356001600160a01b038116811461186357600080fd5b919050565b60008083601f840112611879578182fd5b50813567ffffffffffffffff811115611890578182fd5b6020830191508360208285010111156118a857600080fd5b9250929050565b6000602082840312156118c0578081fd5b610ee88261184c565b600080604083850312156118db578081fd5b6118e48361184c565b91506118f26020840161184c565b90509250929050565b60008060006060848603121561190f578081fd5b6119188461184c565b92506119266020850161184c565b9150604084013590509250925092565b6000806000806080858703121561194b578081fd5b6119548561184c565b93506119626020860161184c565b925060408501359150606085013567ffffffffffffffff80821115611985578283fd5b818701915087601f830112611998578283fd5b8135818111156119aa576119aa611e4b565b604051601f8201601f19908116603f011681019083821181831017156119d2576119d2611e4b565b816040528281528a60208487010111156119ea578586fd5b82602086016020830137918201602001949094529598949750929550505050565b60008060408385031215611a1d578182fd5b611a268361184c565b915060208301358015158114611a3a578182fd5b809150509250929050565b60008060408385031215611a57578182fd5b611a608361184c565b946020939093013593505050565b600060208284031215611a7f578081fd5b8135610ee881611e61565b600060208284031215611a9b578081fd5b8151610ee881611e61565b60008060008060008060006080888a031215611ac0578283fd5b873567ffffffffffffffff80821115611ad7578485fd5b611ae38b838c01611868565b909950975060208a0135915080821115611afb578485fd5b611b078b838c01611868565b909750955060408a0135915080821115611b1f578485fd5b50611b2c8a828b01611868565b989b979a50959894979596606090950135949350505050565b600060208284031215611b56578081fd5b5035919050565b60008060408385031215611b6f578182fd5b50508035926020909101359150565b81835281816020850137506000828201602090810191909152601f909101601f19169091010190565b60008151808452611bbf816020860160208601611d89565b601f01601f19169290920160200192915050565b60008351611be5818460208801611d89565b835190830190611bf9818360208801611d89565b01949350505050565b6001600160a01b0385811682528416602082015260408101839052608060608201819052600090611c3590830184611ba7565b9695505050505050565b608081526000611c5360808301898b611b7e565b8281036020840152611c6681888a611b7e565b90508281036040840152611c7b818688611b7e565b91505082606083015298975050505050505050565b602081526000610ee86020830184611ba7565b60208082526032908201527f4552433732313a207472616e7366657220746f206e6f6e20455243373231526560408201527131b2b4bb32b91034b6b83632b6b2b73a32b960711b606082015260800190565b60208082526031908201527f4552433732313a207472616e736665722063616c6c6572206973206e6f74206f6040820152701ddb995c881b9bdc88185c1c1c9bdd9959607a1b606082015260800190565b60008219821115611d5957611d59611e1f565b500190565b600082611d6d57611d6d611e35565b500490565b600082821015611d8457611d84611e1f565b500390565b60005b83811015611da4578181015183820152602001611d8c565b83811115610e015750506000910152565b600181811c90821680611dc957607f821691505b60208210811415611dea57634e487b7160e01b600052602260045260246000fd5b50919050565b6000600019821415611e0457611e04611e1f565b5060010190565b600082611e1a57611e1a611e35565b500690565b634e487b7160e01b600052601160045260246000fd5b634e487b7160e01b600052601260045260246000fd5b634e487b7160e01b600052604160045260246000fd5b6001600160e01b031981168114610f1b57600080fdfea2646970667358221220f3b412508e4c02159e335704ccb8cebb7a62c0e4b042a5697bc79243872950ec64736f6c63430008040033",
  "linkReferences": {},
  "deployedLinkReferences": {}
}