{
  "address": "0xe7f1725E7734CE288F8367e1Bb143E90bb3F0512",
  "abi": [
    {
      "inputs": [
        {
          "internalType": "address",
          "name": "depositContract_",
          "type": "address"
        }
      ],
      "stateMutability": "nonpayable",
      "type": "constructor"
    },
    {
      "stateMutability": "payable",
      "type": "fallback"
    },
    {
      "inputs": [
        {
          "internalType": "address",
          "name": "userAddress",
          "type": "address"
        }
      ],
      "name": "deposit",
      "outputs": [],
      "stateMutability": "payable",
      "type": "function"
    },
    {
      "inputs": [],
      "name": "depositContract",
      "outputs": [
        {
          "internalType": "address",
          "name": "",
          "type": "address"
        }
      ],
      "stateMutability": "view",
      "type": "function"
    },
    {
      "inputs": [
        {
          "internalType": "bytes",
          "name": "depositData",
          "type": "bytes"
        }
      ],
      "name": "stake",
      "outputs": [],
      "stateMutability": "nonpayable",
      "type": "function"
    },
    {
      "inputs": [],
      "name": "unstake",
      "outputs": [],
      "stateMutability": "nonpayable",
      "type": "function"
    },
    {
      "inputs": [
        {
          "internalType": "address",
          "name": "",
          "type": "address"
        }
      ],
      "name": "userBalances",
      "outputs": [
        {
          "internalType": "uint256",
          "name": "",
          "type": "uint256"
        }
      ],
      "stateMutability": "view",
      "type": "function"
    },
    {
      "inputs": [
        {
          "internalType": "uint256",
          "name": "_amount",
          "type": "uint256"
        }
      ],
      "name": "withdraw",
      "outputs": [],
      "stateMutability": "nonpayable",
      "type": "function"
    },
    {
      "stateMutability": "payable",
      "type": "receive"
    }
  ],
  "transactionHash": "0x8ddd79f81c56cc129547b4b27fd4529aedd8843927f9a5142ea11cad2c247522",
  "args": [
    "0x00000000219ab540356cBB839Cbe05303d7705Fa"
  ],
  "solcInputHash": "760ea3861232140dd4fd156de4f83dda",
  "bytecode": "0x608060405234801561001057600080fd5b5060405161055138038061055183398101604081905261002f9161005a565b600180546001600160a01b0392909216610100026001600160a81b0319909216919091179055610088565b60006020828403121561006b578081fd5b81516001600160a01b0381168114610081578182fd5b9392505050565b6104ba806100976000396000f3fe6080604052600436106100565760003560e01c806326224c641461005f5780632d1e0c021461009f5780632def6620146100bf5780632e1a7d4d146100de578063e94ad65b146100fe578063f340fa011461013b57005b3661005d57005b005b34801561006b57600080fd5b5061008c61007a36600461037c565b60006020819052908152604090205481565b6040519081526020015b60405180910390f35b3480156100ab57600080fd5b5061005d6100ba3660046103aa565b61014e565b3480156100cb57600080fd5b5061005d6001805460ff19166002179055565b3480156100ea57600080fd5b5061005d6100f9366004610417565b61022d565b34801561010a57600080fd5b506001546101239061010090046001600160a01b031681565b6040516001600160a01b039091168152602001610096565b61005d61014936600461037c565b61034c565b6001805460ff19168117908190556040516801bc16d674ec80000091600091829161010090046001600160a01b031690849061018d908890889061042f565b60006040518083038185875af1925050503d80600081146101ca576040519150601f19603f3d011682016040523d82523d6000602084013e6101cf565b606091505b5091509150816102265760405162461bcd60e51b815260206004820152601d60248201527f657865637574655472616e73616374696f6e3a207478206661696c656400000060448201526064015b60405180910390fd5b5050505050565b6001805460ff16600281111561025357634e487b7160e01b600052602160045260246000fd5b14156102a15760405162461bcd60e51b815260206004820152601b60248201527f63616e6e6f74207769746864726177206f6e6365207374616b65640000000000604482015260640161021d565b336000908152602081905260409020548111156102f75760405162461bcd60e51b81526020600482015260146024820152731b9bdd08195b9bdd59da0819195c1bdcda5d195960621b604482015260640161021d565b3360009081526020819052604081208054839290610316908490610457565b9091555050604051339082156108fc029083906000818181858888f19350505050158015610348573d6000803e3d6000fd5b5050565b6001600160a01b0381166000908152602081905260408120805434929061037490849061043f565b909155505050565b60006020828403121561038d578081fd5b81356001600160a01b03811681146103a3578182fd5b9392505050565b600080602083850312156103bc578081fd5b823567ffffffffffffffff808211156103d3578283fd5b818501915085601f8301126103e6578283fd5b8135818111156103f4578384fd5b866020828501011115610405578384fd5b60209290920196919550909350505050565b600060208284031215610428578081fd5b5035919050565b8183823760009101908152919050565b600082198211156104525761045261046e565b500190565b6000828210156104695761046961046e565b500390565b634e487b7160e01b600052601160045260246000fdfea2646970667358221220c6d2e8635a09fe1718c37a1d6213edf398407c7bc0783d69e73311d49341cfcc64736f6c63430008040033",
  "devdoc": {
    "kind": "dev",
    "methods": {},
    "version": 1
  },
  "userdoc": {
    "kind": "user",
    "methods": {},
    "version": 1
  },
  "storageLayout": {
    "storage": [
      {
        "astId": 5,
        "contract": "contracts/StakingPool.sol:StakingPool",
        "label": "userBalances",
        "offset": 0,
        "slot": "0",
        "type": "t_mapping(t_address,t_uint256)"
      },
      {
        "astId": 12,
        "contract": "contracts/StakingPool.sol:StakingPool",
        "label": "currentState",
        "offset": 0,
        "slot": "1",
        "type": "t_enum(State)9"
      },
      {
        "astId": 14,
        "contract": "contracts/StakingPool.sol:StakingPool",
        "label": "depositContract",
        "offset": 1,
        "slot": "1",
        "type": "t_address"
      }
    ],
    "types": {
      "t_address": {
        "encoding": "inplace",
        "label": "address",
        "numberOfBytes": "20"
      },
      "t_enum(State)9": {
        "encoding": "inplace",
        "label": "enum StakingPool.State",
        "numberOfBytes": "1"
      },
      "t_mapping(t_address,t_uint256)": {
        "encoding": "mapping",
        "key": "t_address",
        "label": "mapping(address => uint256)",
        "numberOfBytes": "32",
        "value": "t_uint256"
      },
      "t_uint256": {
        "encoding": "inplace",
        "label": "uint256",
        "numberOfBytes": "32"
      }
    }
  }
}