{
  "address": "0x8A791620dd6260079BF849Dc5567aDC3F2FdC318",
  "abi": [
    {
      "inputs": [
        {
          "internalType": "address",
          "name": "depositContractAddress_",
          "type": "address"
        },
        {
          "internalType": "address",
          "name": "owner_",
          "type": "address"
        }
      ],
      "stateMutability": "nonpayable",
      "type": "constructor"
    },
    {
      "anonymous": false,
      "inputs": [
        {
          "indexed": true,
          "internalType": "address",
          "name": "owner",
          "type": "address"
        },
        {
          "indexed": true,
          "internalType": "address",
          "name": "approved",
          "type": "address"
        },
        {
          "indexed": true,
          "internalType": "uint256",
          "name": "tokenId",
          "type": "uint256"
        }
      ],
      "name": "Approval",
      "type": "event"
    },
    {
      "anonymous": false,
      "inputs": [
        {
          "indexed": true,
          "internalType": "address",
          "name": "owner",
          "type": "address"
        },
        {
          "indexed": true,
          "internalType": "address",
          "name": "operator",
          "type": "address"
        },
        {
          "indexed": false,
          "internalType": "bool",
          "name": "approved",
          "type": "bool"
        }
      ],
      "name": "ApprovalForAll",
      "type": "event"
    },
    {
      "anonymous": false,
      "inputs": [
        {
          "indexed": false,
          "internalType": "address",
          "name": "depositContractAddress",
          "type": "address"
        },
        {
          "indexed": false,
          "internalType": "address",
          "name": "caller",
          "type": "address"
        }
      ],
      "name": "Deposit",
      "type": "event"
    },
    {
      "anonymous": false,
      "inputs": [
        {
          "indexed": true,
          "internalType": "address",
          "name": "previousOwner",
          "type": "address"
        },
        {
          "indexed": true,
          "internalType": "address",
          "name": "newOwner",
          "type": "address"
        }
      ],
      "name": "OwnershipTransferred",
      "type": "event"
    },
    {
      "anonymous": false,
      "inputs": [
        {
          "indexed": true,
          "internalType": "address",
          "name": "from",
          "type": "address"
        },
        {
          "indexed": true,
          "internalType": "address",
          "name": "to",
          "type": "address"
        },
        {
          "indexed": true,
          "internalType": "uint256",
          "name": "tokenId",
          "type": "uint256"
        }
      ],
      "name": "Transfer",
      "type": "event"
    },
    {
      "stateMutability": "payable",
      "type": "fallback"
    },
    {
      "inputs": [
        {
          "internalType": "uint256",
          "name": "_id",
          "type": "uint256"
        }
      ],
      "name": "addToDeposit",
      "outputs": [],
      "stateMutability": "payable",
      "type": "function"
    },
    {
      "inputs": [
        {
          "internalType": "address",
          "name": "to",
          "type": "address"
        },
        {
          "internalType": "uint256",
          "name": "tokenId",
          "type": "uint256"
        }
      ],
      "name": "approve",
      "outputs": [],
      "stateMutability": "nonpayable",
      "type": "function"
    },
    {
      "inputs": [
        {
          "internalType": "address",
          "name": "owner",
          "type": "address"
        }
      ],
      "name": "balanceOf",
      "outputs": [
        {
          "internalType": "uint256",
          "name": "",
          "type": "uint256"
        }
      ],
      "stateMutability": "view",
      "type": "function"
    },
    {
      "inputs": [
        {
          "internalType": "address",
          "name": "userAddress",
          "type": "address"
        }
      ],
      "name": "deposit",
      "outputs": [],
      "stateMutability": "payable",
      "type": "function"
    },
    {
      "inputs": [
        {
          "internalType": "uint256",
          "name": "",
          "type": "uint256"
        }
      ],
      "name": "depositAmount",
      "outputs": [
        {
          "internalType": "uint256",
          "name": "",
          "type": "uint256"
        }
      ],
      "stateMutability": "view",
      "type": "function"
    },
    {
      "inputs": [],
      "name": "depositContractAddress",
      "outputs": [
        {
          "internalType": "address",
          "name": "",
          "type": "address"
        }
      ],
      "stateMutability": "view",
      "type": "function"
    },
    {
      "inputs": [],
      "name": "distribute",
      "outputs": [],
      "stateMutability": "nonpayable",
      "type": "function"
    },
    {
      "inputs": [
        {
          "internalType": "uint256",
          "name": "tokenId",
          "type": "uint256"
        }
      ],
      "name": "getApproved",
      "outputs": [
        {
          "internalType": "address",
          "name": "",
          "type": "address"
        }
      ],
      "stateMutability": "view",
      "type": "function"
    },
    {
      "inputs": [
        {
          "internalType": "uint256",
          "name": "_id",
          "type": "uint256"
        }
      ],
      "name": "getDistributableShare",
      "outputs": [
        {
          "internalType": "uint256",
          "name": "",
          "type": "uint256"
        }
      ],
      "stateMutability": "view",
      "type": "function"
    },
    {
      "inputs": [],
      "name": "getOwner",
      "outputs": [
        {
          "internalType": "address",
          "name": "",
          "type": "address"
        }
      ],
      "stateMutability": "view",
      "type": "function"
    },
    {
      "inputs": [
        {
          "internalType": "uint256",
          "name": "_id",
          "type": "uint256"
        }
      ],
      "name": "getShare",
      "outputs": [
        {
          "internalType": "uint256",
          "name": "",
          "type": "uint256"
        }
      ],
      "stateMutability": "view",
      "type": "function"
    },
    {
      "inputs": [
        {
          "internalType": "address",
          "name": "owner",
          "type": "address"
        },
        {
          "internalType": "address",
          "name": "operator",
          "type": "address"
        }
      ],
      "name": "isApprovedForAll",
      "outputs": [
        {
          "internalType": "bool",
          "name": "",
          "type": "bool"
        }
      ],
      "stateMutability": "view",
      "type": "function"
    },
    {
      "inputs": [],
      "name": "name",
      "outputs": [
        {
          "internalType": "string",
          "name": "",
          "type": "string"
        }
      ],
      "stateMutability": "view",
      "type": "function"
    },
    {
      "inputs": [],
      "name": "owner",
      "outputs": [
        {
          "internalType": "address",
          "name": "",
          "type": "address"
        }
      ],
      "stateMutability": "view",
      "type": "function"
    },
    {
      "inputs": [
        {
          "internalType": "uint256",
          "name": "tokenId",
          "type": "uint256"
        }
      ],
      "name": "ownerOf",
      "outputs": [
        {
          "internalType": "address",
          "name": "",
          "type": "address"
        }
      ],
      "stateMutability": "view",
      "type": "function"
    },
    {
      "inputs": [
        {
          "internalType": "uint256",
          "name": "id",
          "type": "uint256"
        }
      ],
      "name": "renderTokenById",
      "outputs": [
        {
          "internalType": "string",
          "name": "",
          "type": "string"
        }
      ],
      "stateMutability": "view",
      "type": "function"
    },
    {
      "inputs": [],
      "name": "renounceOwnership",
      "outputs": [],
      "stateMutability": "nonpayable",
      "type": "function"
    },
    {
      "inputs": [],
      "name": "rugpull",
      "outputs": [],
      "stateMutability": "nonpayable",
      "type": "function"
    },
    {
      "inputs": [
        {
          "internalType": "address",
          "name": "from",
          "type": "address"
        },
        {
          "internalType": "address",
          "name": "to",
          "type": "address"
        },
        {
          "internalType": "uint256",
          "name": "tokenId",
          "type": "uint256"
        }
      ],
      "name": "safeTransferFrom",
      "outputs": [],
      "stateMutability": "nonpayable",
      "type": "function"
    },
    {
      "inputs": [
        {
          "internalType": "address",
          "name": "from",
          "type": "address"
        },
        {
          "internalType": "address",
          "name": "to",
          "type": "address"
        },
        {
          "internalType": "uint256",
          "name": "tokenId",
          "type": "uint256"
        },
        {
          "internalType": "bytes",
          "name": "_data",
          "type": "bytes"
        }
      ],
      "name": "safeTransferFrom",
      "outputs": [],
      "stateMutability": "nonpayable",
      "type": "function"
    },
    {
      "inputs": [],
      "name": "sendToOwner",
      "outputs": [],
      "stateMutability": "nonpayable",
      "type": "function"
    },
    {
      "inputs": [
        {
          "internalType": "address",
          "name": "operator",
          "type": "address"
        },
        {
          "internalType": "bool",
          "name": "approved",
          "type": "bool"
        }
      ],
      "name": "setApprovalForAll",
      "outputs": [],
      "stateMutability": "nonpayable",
      "type": "function"
    },
    {
      "inputs": [
        {
          "internalType": "bytes",
          "name": "pubkey",
          "type": "bytes"
        },
        {
          "internalType": "bytes",
          "name": "withdrawal_credentials",
          "type": "bytes"
        },
        {
          "internalType": "bytes",
          "name": "signature",
          "type": "bytes"
        },
        {
          "internalType": "bytes32",
          "name": "deposit_data_root",
          "type": "bytes32"
        }
      ],
      "name": "stake",
      "outputs": [],
      "stateMutability": "nonpayable",
      "type": "function"
    },
    {
      "inputs": [
        {
          "internalType": "bytes4",
          "name": "interfaceId",
          "type": "bytes4"
        }
      ],
      "name": "supportsInterface",
      "outputs": [
        {
          "internalType": "bool",
          "name": "",
          "type": "bool"
        }
      ],
      "stateMutability": "view",
      "type": "function"
    },
    {
      "inputs": [],
      "name": "symbol",
      "outputs": [
        {
          "internalType": "string",
          "name": "",
          "type": "string"
        }
      ],
      "stateMutability": "view",
      "type": "function"
    },
    {
      "inputs": [
        {
          "internalType": "uint256",
          "name": "index",
          "type": "uint256"
        }
      ],
      "name": "tokenByIndex",
      "outputs": [
        {
          "internalType": "uint256",
          "name": "",
          "type": "uint256"
        }
      ],
      "stateMutability": "view",
      "type": "function"
    },
    {
      "inputs": [
        {
          "internalType": "address",
          "name": "owner",
          "type": "address"
        },
        {
          "internalType": "uint256",
          "name": "index",
          "type": "uint256"
        }
      ],
      "name": "tokenOfOwnerByIndex",
      "outputs": [
        {
          "internalType": "uint256",
          "name": "",
          "type": "uint256"
        }
      ],
      "stateMutability": "view",
      "type": "function"
    },
    {
      "inputs": [
        {
          "internalType": "uint256",
          "name": "id",
          "type": "uint256"
        }
      ],
      "name": "tokenURI",
      "outputs": [
        {
          "internalType": "string",
          "name": "",
          "type": "string"
        }
      ],
      "stateMutability": "view",
      "type": "function"
    },
    {
      "inputs": [],
      "name": "totalDeposits",
      "outputs": [
        {
          "internalType": "uint256",
          "name": "",
          "type": "uint256"
        }
      ],
      "stateMutability": "view",
      "type": "function"
    },
    {
      "inputs": [],
      "name": "totalSupply",
      "outputs": [
        {
          "internalType": "uint256",
          "name": "",
          "type": "uint256"
        }
      ],
      "stateMutability": "view",
      "type": "function"
    },
    {
      "inputs": [
        {
          "internalType": "address",
          "name": "from",
          "type": "address"
        },
        {
          "internalType": "address",
          "name": "to",
          "type": "address"
        },
        {
          "internalType": "uint256",
          "name": "tokenId",
          "type": "uint256"
        }
      ],
      "name": "transferFrom",
      "outputs": [],
      "stateMutability": "nonpayable",
      "type": "function"
    },
    {
      "inputs": [
        {
          "internalType": "address",
          "name": "newOwner",
          "type": "address"
        }
      ],
      "name": "transferOwnership",
      "outputs": [],
      "stateMutability": "nonpayable",
      "type": "function"
    },
    {
      "inputs": [],
      "name": "unstake",
      "outputs": [],
      "stateMutability": "nonpayable",
      "type": "function"
    },
    {
      "inputs": [
        {
          "internalType": "uint256",
          "name": "_id",
          "type": "uint256"
        },
        {
          "internalType": "uint256",
          "name": "_amount",
          "type": "uint256"
        }
      ],
      "name": "withdraw",
      "outputs": [],
      "stateMutability": "nonpayable",
      "type": "function"
    },
    {
      "stateMutability": "payable",
      "type": "receive"
    }
  ],
  "transactionHash": "0xe3e86a0a4270865c72744dddafe5e06f12ad5dfd213b36ffe91b1317ea74d923",
  "args": [
    "0x00000000219ab540356cBB839Cbe05303d7705Fa",
    "0x521B2cE927FD6d0D473789Bd3c70B296BBce613e"
  ],
  "solcInputHash": "4eae8e25b844298006078cf6eaefe344",
  "bytecode": "0x608034620003f0576001600160401b0390601f1990601f90620048793881900383810185168301919086831184841017620003da578084926040948552833981010312620003f057620000528162000415565b9362000062602080930162000415565b926200006d620003f5565b9260128452717374616b696e6720636f6e20616d69676f7360701b8185015262000096620003f5565b9060058252644652454e5360d81b81830152845196848811620003da576000978854966001978881811c91168015620003cf575b85821014620003bb5790818784931162000368575b50849087831160011462000307578b92620002fb575b5050600019600383901b1c191690871b1788555b8251948511620002e75785548681811c91168015620002dc575b83821014620002c8579081858796959493116200026f575b50819385116001146200020a5750508692620001fe575b5050600019600383901b1c191690821b1790555b600a80546001600160a01b0319808216339081179093556040519590946001600160a01b03949385939091908416907f8be0079c531659141344cd1fd0a4f28419497f9722a3daafe3b4186f6b6457e09089a3600e5490610100600160a81b039060081b169060018060a81b0319161780600e5560081c1683600f541617600f551690601054161760105561444e90816200042b8239f35b01519050388062000152565b869593929193168589528389209389905b8282106200025557505084116200023b575b505050811b01905562000166565b015160001960f88460031b161c191690553880806200022d565b84840151865588979095019493840193908101906200021b565b9091929394508689528289208580880160051c820192858910620002be575b9188978a9297969594930160051c01915b828110620002af5750506200013b565b8b81558897508991016200029f565b925081926200028e565b634e487b7160e01b89526022600452602489fd5b90607f169062000123565b634e487b7160e01b88526041600452602488fd5b015190503880620000f5565b90848a9416918c8052868d20928d5b8882821062000351575050841162000337575b505050811b01885562000109565b015160001960f88460031b161c1916905538808062000329565b8385015186558d9790950194938401930162000316565b9091508a8052848b208780850160051c820192878610620003b1575b918b91869594930160051c01915b828110620003a2575050620000df565b8d81558594508b910162000392565b9250819262000384565b634e487b7160e01b8b52602260045260248bfd5b90607f1690620000ca565b634e487b7160e01b600052604160045260246000fd5b600080fd5b60408051919082016001600160401b03811183821017620003da57604052565b51906001600160a01b0382168203620003f05756fe60806040526004361015610018575b361561001657005b005b60003560e01c806301ffc9a7146102c057806306fdde03146102b7578063081812fc146102ae578063095ea7b3146102a557806318160ddd1461029c57806323b872dd146102935780632a4dbd2b1461028a5780632def6620146102815780632f745c591461027857806342842e0e1461026f578063441a3e70146102665780634b2b4e361461025d5780634f6ccce7146102545780636352211e1461024b5780636620a93514610242578063678e300a1461023957806370a0823114610230578063715018a6146102275780637d8820971461021e5780638620891c1461021557806387f8ab261461020c578063893d20e8146102035780638da5cb5b146101fa57806395d89b41146101f1578063a22cb465146101e8578063a2d6c6da146101df578063b88d4fde146101d6578063c87b56dd146101cd578063cfb5a5f8146101c4578063e2664e49146101bb578063e4fc6b6d146101b2578063e985e9c5146101a9578063f2fde38b146101a05763f340fa010361000e5761019b611678565b61000e565b5061019b6115e1565b5061019b611583565b5061019b6114e0565b5061019b611488565b5061019b611468565b5061019b6110bd565b5061019b61105c565b5061019b610f50565b5061019b610e63565b5061019b610da1565b5061019b610d77565b5061019b610d4d565b5061019b610d20565b5061019b610c85565b5061019b610c66565b5061019b610c01565b5061019b610bdd565b5061019b610bb6565b5061019b610b4e565b5061019b610b2f565b5061019b610a83565b5061019b6108ef565b5061019b6107ef565b5061019b6107a7565b5061019b6106f3565b5061019b6106d2565b5061019b6106a4565b5061019b61067a565b5061019b610626565b5061019b610538565b5061019b6104db565b5061019b6103d0565b5061019b6102e0565b6001600160e01b03198116036102db57565b600080fd5b50346102db5760203660031901126102db576020600435610300816102c9565b63ffffffff60e01b1663780e9d6360e01b8114908115610326575b506040519015158152f35b6380ac58cd60e01b811491508115610358575b8115610347575b503861031b565b6301ffc9a760e01b14905038610340565b635b5e139f60e01b81149150610339565b60009103126102db57565b60005b8381106103875750506000910152565b8181015183820152602001610377565b906020916103b081518092818552858086019101610374565b601f01601f1916010190565b9060206103cd928181520190610397565b90565b50346102db576000806003193601126104d857604051908080549060019180831c928082169283156104ce575b60209283861085146104ba5785885260208801949081156104995750600114610441575b61043d8761043181890382610fd8565b604051918291826103bc565b0390f35b6000805294509192917f290decd9548b62a8d60345a988386fc84ba6bc95484008f6362f93160ef3e5635b83861061048857505050910190506104318261043d3880610421565b80548587015294820194810161046c565b60ff191685525050505090151560051b0190506104318261043d3880610421565b634e487b7160e01b82526022600452602482fd5b93607f16936103fd565b80fd5b50346102db5760203660031901126102db5760206104fa6004356118e2565b6040516001600160a01b039091168152f35b600435906001600160a01b03821682036102db57565b602435906001600160a01b03821682036102db57565b50346102db5760403660031901126102db5761055261050c565b60243561055e816117f8565b916001600160a01b0380841690821681146105d7576100169361058b913314908115610590575b50611870565b611dfb565b6001600160a01b031660009081526005602052604090206105d191506105ca9033905b9060018060a01b0316600052602052604060002090565b5460ff1690565b38610585565b60405162461bcd60e51b815260206004820152602160248201527f4552433732313a20617070726f76616c20746f2063757272656e74206f776e656044820152603960f91b6064820152608490fd5b50346102db5760003660031901126102db576020600854604051908152f35b60609060031901126102db576001600160a01b039060043582811681036102db579160243590811681036102db579060443590565b50346102db5761001661068c36610645565b9161069f61069a8433611aa7565b611974565b611c5e565b50346102db5760003660031901126102db57600e5460405160089190911c6001600160a01b03168152602090f35b50346102db5760003660031901126102db57600e805460ff19166002179055005b50346102db5760403660031901126102db5761070d61050c565b6024359061071a81611780565b82101561074e576001600160a01b031660009081526006602090815260408083209383529281529082902054915191825290f35b60405162461bcd60e51b815260206004820152602b60248201527f455243373231456e756d657261626c653a206f776e657220696e646578206f7560448201526a74206f6620626f756e647360a81b6064820152608490fd5b50346102db576100166107b936610645565b90604051926020840184811067ffffffffffffffff8211176107e2575b60405260008452611a0c565b6107ea610f84565b6107d6565b50346102db5760403660031901126102db57600080808060043561087d6024359161082b600160ff600e5416610824816122d5565b1415612459565b61084d61084661083a836117f8565b6001600160a01b031690565b33146124a5565b61086d8361086583600052600b602052604060002090565b5410156124e1565b600052600b602052604060002090565b610888828254611c1a565b905561089e61089982600c54611c1a565b600c55565b8181156108b8575b3390f1156108b057005b610016611ea7565b506108fc6108a6565b9181601f840112156102db5782359167ffffffffffffffff83116102db57602083818601950101116102db57565b50346102db5760803660031901126102db5767ffffffffffffffff6004358181116102db576109229036906004016108c1565b6024929192358281116102db5761093d9036906004016108c1565b9190926044359081116102db576109589036906004016108c1565b93909461097060018060a01b03600a541633146116e5565b61097d602047101561261e565b61098f600160ff19600e541617600e55565b6109bb61099b3061270b565b6109a6368786611025565b6020815191012090602081519101201461265b565b600f546109d0906001600160a01b031661083a565b92833b156102db57610a0a6801bc16d674ec80000092600097604051998a98899788966304512a2360e31b885260643595600489016126c8565b03925af18015610a76575b610a5d575b600e546040805160089290921c6001600160a01b031682523360208301527f1944debb24a9aafcf2708be964e412cdb73fc36d6ea24577fd8dcc05b93b4a4491a1005b80610a6a610a7092610f9b565b80610369565b38610a1a565b610a7e611ea7565b610a15565b50346102db5760203660031901126102db57600435600854811015610ad55760086000527ff3f7a9fe364faab93b216da50a3214154f22a0a2b415b23a84c8169e8b636ee30154604051908152602090f35b60405162461bcd60e51b815260206004820152602c60248201527f455243373231456e756d657261626c653a20676c6f62616c20696e646578206f60448201526b7574206f6620626f756e647360a01b6064820152608490fd5b50346102db5760203660031901126102db5760206104fa6004356117f8565b50346102db5760003660031901126102db57600a546010546001600160a01b0390811691168114610b825761001690611730565b60405162461bcd60e51b815260206004820152600c60248201526b616c726561647920646f6e6560a01b6044820152606490fd5b50346102db5760203660031901126102db576020610bd56004356125fa565b604051908152f35b50346102db5760203660031901126102db576020610bd5610bfc61050c565b611780565b50346102db576000806003193601126104d857600a546001600160a01b03811690610c2d3383146116e5565b6001600160a01b031916600a556040519082907f8be0079c531659141344cd1fd0a4f28419497f9722a3daafe3b4186f6b6457e08284a3f35b50346102db5760003660031901126102db576020600c54604051908152f35b5060203660031901126102db57600435600081815260026020526040902054610cb8906001600160a01b03161515612421565b60ff600e54166003811015610d0a576102db57610cdf90600052600b602052604060002090565b805490348201809211610cfd575b5561001661089934600c54611c51565b610d05611bea565b610ced565b634e487b7160e01b600052602160045260246000fd5b50346102db5760203660031901126102db57600435600052600b6020526020604060002054604051908152f35b50346102db5760003660031901126102db576010546040516001600160a01b039091168152602090f35b50346102db5760003660031901126102db57600a546040516001600160a01b039091168152602090f35b50346102db576000806003193601126104d8576040519080600190815480831c92808216928315610e59575b60209283861085146104ba5785885260208801949081156104995750600114610e005761043d8761043181890382610fd8565b600160005294509192917fb10e2d527612073b26eecdfd717e6a320cf44b4afac2b0732d9fcbe2b7fa0cf65b838610610e4857505050910190506104318261043d3880610421565b805485870152948201948101610e2c565b93607f1693610dcd565b50346102db5760403660031901126102db57610e7d61050c565b60243580151581036102db576001600160a01b03821691338314610f0b5781610ec8610ed99233600052600560205260406000209060018060a01b0316600052602052604060002090565b9060ff801983541691151516179055565b604051901515815233907f17307eab39ab6107e8899845ad3d59bd9653f200f220920489ca2b5937696c3190602090a3005b60405162461bcd60e51b815260206004820152601960248201527f4552433732313a20617070726f766520746f2063616c6c6572000000000000006044820152606490fd5b50346102db5760203660031901126102db5761043d610f70600435612a6f565b604051918291602083526020830190610397565b50634e487b7160e01b600052604160045260246000fd5b67ffffffffffffffff8111610faf57604052565b610fb7610f84565b604052565b6040810190811067ffffffffffffffff821117610faf57604052565b90601f8019910116810190811067ffffffffffffffff821117610faf57604052565b60209067ffffffffffffffff8111611018575b601f01601f19160190565b611020610f84565b61100d565b92919261103182610ffa565b9161103f6040519384610fd8565b8294818452818301116102db578281602093846000960137010152565b50346102db5760803660031901126102db5761107661050c565b61107e610522565b6064359167ffffffffffffffff83116102db57366023840112156102db576110b3610016933690602481600401359101611025565b9160443591611a0c565b50346102db5760203660031901126102db576004356000818152600260205260409020546001600160a01b031615156110f590612421565b6110fe816127c7565b604051706672656e20706f6f6c207368617265202360781b6020820152919082906031820161112c91612746565b0391601f199283810182526111419082610fd8565b61115582600052600b602052604060002090565b54670de0b6b3a7640000900461116a90614335565b91611174816125fa565b61117d90614335565b92604051938491602083016111c5906026907f74686973206672656e20706f6f6c207368617265206861732061206465706f73815265034ba1037b3160d51b60208201520190565b6111ce91612746565b7f20457468207769746820636c61696d61626c652062616c616e6365206f6620008152601f016111fd91612746565b6257656960e81b81526003010384810184526112199084610fd8565b611222816129d3565b61122b906128ea565b90611235816127c7565b9061124a81600052600b602052604060002090565b54670de0b6b3a7640000900461125f90614335565b90611269906125fa565b61127290614335565b604051683d913730b6b2911d1160b91b60208201529586959193916029870161129a91612746565b71111610113232b9b1b934b83a34b7b7111d1160711b81526012016112be91612746565b7f222c202265787465726e616c5f75726c223a2268747470733a2f2f7374616b65815273636f6e616d69676f732e636f6d2f746f6b656e2f60601b602082015260340161130a91612746565b7f222c202261747472696275746573223a205b7b2274726169745f74797065223a81527f20226465706f736974222c202276616c7565223a20224574683a2000000000006020820152603b0161135f91612746565b7f227d2c7b2274726169745f74797065223a2022636c61696d61626c65222c202281526d03b30b63ab2911d10112bb2b49d160951b6020820152602e016113a591612746565b6e113eae96101134b6b0b3b2911d101160891b8152600f017f646174613a696d6167652f7376672b786d6c3b6261736536342c0000000000008152601a016113ec91612746565b61227d60f01b81526002010382810182526114079082610fd8565b611410906128ea565b6040517f646174613a6170706c69636174696f6e2f6a736f6e3b6261736536342c000000602082015291908290603d820161144a91612746565b03908101825261145a9082610fd8565b60405161043d8192826103bc565b50346102db5760203660031901126102db576020610bd547600435612595565b50346102db576000806003193601126104d8576114b060018060a01b03600a541633146116e5565b80808080478181156114d7575b3390f1156114ca57604051f35b6114d2611ea7565b604051f35b506108fc6114bd565b50346102db576000806003193601126104d85760ff600e5416611502816122d5565b61150f6001809214612524565b4781805b61151e575b83604051f35b600854811161157e578084808080611538611561966117f8565b6115428887612595565b9082908215611574575b6001600160a01b031690f115611567576122df565b82611513565b61156f611ea7565b6122df565b6108fc915061154c565b611518565b50346102db5760403660031901126102db57602060ff6115d56115a461050c565b6115ac610522565b6001600160a01b0391821660009081526005865260408082209290931681526020919091522090565b54166040519015158152f35b50346102db5760203660031901126102db576115fb61050c565b600a546001600160a01b039061161490821633146116e5565b8116156116245761001690611730565b60405162461bcd60e51b815260206004820152602660248201527f4f776e61626c653a206e6577206f776e657220697320746865207a65726f206160448201526564647265737360d01b6064820152608490fd5b5060203660031901126102db5761168d61050c565b60ff600e54166003811015610d0a576102db57610016906116b76116b2600d546122df565b600d55565b600d5490346116d083600052600b602052604060002090565b556116e061089934600c54611c51565b6122fb565b156116ec57565b606460405162461bcd60e51b815260206004820152602060248201527f4f776e61626c653a2063616c6c6572206973206e6f7420746865206f776e65726044820152fd5b600a549060018060a01b0380911691826bffffffffffffffffffffffff60a01b821617600a55167f8be0079c531659141344cd1fd0a4f28419497f9722a3daafe3b4186f6b6457e06000604051a3565b6001600160a01b031680156117a057600052600360205260406000205490565b60405162461bcd60e51b815260206004820152602a60248201527f4552433732313a2062616c616e636520717565727920666f7220746865207a65604482015269726f206164647265737360b01b6064820152608490fd5b6000908152600260205260409020546001600160a01b031680156118195790565b60405162461bcd60e51b815260206004820152602960248201527f4552433732313a206f776e657220717565727920666f72206e6f6e657869737460448201526832b73a103a37b5b2b760b91b6064820152608490fd5b1561187757565b60405162461bcd60e51b815260206004820152603860248201527f4552433732313a20617070726f76652063616c6c6572206973206e6f74206f7760448201527f6e6572206e6f7220617070726f76656420666f7220616c6c00000000000000006064820152608490fd5b6000818152600260205260409020546001600160a01b03161561191a576000908152600460205260409020546001600160a01b031690565b60405162461bcd60e51b815260206004820152602c60248201527f4552433732313a20617070726f76656420717565727920666f72206e6f6e657860448201526b34b9ba32b73a103a37b5b2b760a11b6064820152608490fd5b1561197b57565b60405162461bcd60e51b815260206004820152603160248201527f4552433732313a207472616e736665722063616c6c6572206973206e6f74206f6044820152701ddb995c881b9bdc88185c1c1c9bdd9959607a1b6064820152608490fd5b604051906020820182811067ffffffffffffffff8211176119ff575b60405260008252565b611a07610f84565b6119f6565b90611a30939291611a2061069a8433611aa7565b611a2b838383611c5e565b611ee4565b15611a3757565b60405162461bcd60e51b815280611a5060048201611a54565b0390fd5b60809060208152603260208201527f4552433732313a207472616e7366657220746f206e6f6e20455243373231526560408201527131b2b4bb32b91034b6b83632b6b2b73a32b960711b60608201520190565b6000828152600260205260409020546001600160a01b031615611b3857611acd826117f8565b6001600160a01b038281168282168114949091908515611b20575b5050508215611af657505090565b6001600160a01b0316600090815260056020526040902060ff9250611b1b91906105b3565b541690565b611b2d91929395506118e2565b161491388080611ae8565b60405162461bcd60e51b815260206004820152602c60248201527f4552433732313a206f70657261746f7220717565727920666f72206e6f6e657860448201526b34b9ba32b73a103a37b5b2b760a11b6064820152608490fd5b15611b9957565b60405162461bcd60e51b8152602060048201526024808201527f4552433732313a207472616e7366657220746f20746865207a65726f206164646044820152637265737360e01b6064820152608490fd5b50634e487b7160e01b600052601160045260246000fd5b600019810191908211611c1057565b611c18611bea565b565b91908203918211611c1057565b9060018201809211611c1057565b9060028201809211611c1057565b9060208201809211611c1057565b91908201809211611c1057565b90611c68836117f8565b6001600160a01b038381169290918216839003611d4e57611cc2611d2592821694611c94861515611b92565b611c9f878483611fe9565b611ca887611da5565b6001600160a01b0316600090815260036020526040902090565b611ccc8154611c01565b90556001600160a01b0381166000908152600360205260409020611cf08154611c27565b9055611d06856000526002602052604060002090565b80546001600160a01b0319166001600160a01b03909216919091179055565b7fddf252ad1be2c89b69c2b068fc378daa952ba7f163c4a11628f55a4df523b3ef6000604051a4565b60405162461bcd60e51b815260206004820152602960248201527f4552433732313a207472616e73666572206f6620746f6b656e2074686174206960448201526839903737ba1037bbb760b91b6064820152608490fd5b600081815260046020526040812080546001600160a01b03191690556001600160a01b03611dd2836117f8565b167f8c5be1e5ebec7d5bd14f71427d1e84f3dd0314c0f7b2291e5b200ac8c7c3b92582604051a4565b600082815260046020526040902080546001600160a01b0319166001600160a01b0383161790556001600160a01b0380611e34846117f8565b169116907f8c5be1e5ebec7d5bd14f71427d1e84f3dd0314c0f7b2291e5b200ac8c7c3b9256000604051a4565b908160209103126102db57516103cd816102c9565b6001600160a01b0391821681529116602082015260408101919091526080606082018190526103cd92910190610397565b506040513d6000823e3d90fd5b3d15611edf573d90611ec582610ffa565b91611ed36040519384610fd8565b82523d6000602084013e565b606090565b92909190823b15611f9e57611f17926020926000604051809681958294630a85bd0160e11b9a8b85523360048601611e76565b03926001600160a01b03165af160009181611f6e575b50611f6057611f3a611eb4565b80519081611f5b5760405162461bcd60e51b815280611a5060048201611a54565b602001fd5b6001600160e01b0319161490565b611f9091925060203d8111611f97575b611f888183610fd8565b810190611e61565b9038611f2d565b503d611f7e565b50505050600190565b50634e487b7160e01b600052603260045260246000fd5b90611fc881612146565b6001600160a01b038216611fe057611c1891506121bf565b611c189161210e565b9091906001600160a01b038082169182612023575061200783612146565b83168061201a575050611c1891506121bf565b03611fe0575050565b8185168303612033575b50612007565b6120a761203f82611780565b6000198101908111612101575b612098600093878552600760205260408520548381036120ae575b508461207d896000526007602052604060002090565b556001600160a01b0316600090815260066020526040902090565b90600052602052604060002090565b553861202d565b8786526006602052604086208487526020526120fa6040872054806120e9846120988760018060a01b03166000526006602052604060002090565b556000526007602052604060002090565b5538612067565b612109611bea565b61204c565b60409061211a81611780565b9260009160018060a01b0316825260066020528282208483526020528083832055815260076020522055565b60085481600052600960205280604060002055680100000000000000008110156121b2575b60018101806008558110156121a5575b60086000527ff3f7a9fe364faab93b216da50a3214154f22a0a2b415b23a84c8169e8b636ee30155565b6121ad611fa7565b61217b565b6121ba610f84565b61216b565b6008805460001992908381018181116122c8575b61226f600093849281845260096020528460408520549110156122bb575b86845261225e7ff3f7a9fe364faab93b216da50a3214154f22a0a2b415b23a84c8169e8b636ee29586810154908310156122ae575b88865280837ff3f7a9fe364faab93b216da50a3214154f22a0a2b415b23a84c8169e8b636ee301556000526009602052604060002090565b556000526009602052604060002090565b55825493841561229a578401938085101561228d575b838352015555565b612295611fa7565b612285565b634e487b7160e01b83526031600452602483fd5b6122b6611fa7565b612226565b6122c3611fa7565b6121f1565b6122d0611bea565b6121d3565b60031115610d0a57565b60019060001981146122ef570190565b6122f7611bea565b0190565b6001600160a01b0381169081156123dd576000838152600260205260409020546001600160a01b031661239857806123368461236e93611fbe565b6001600160a01b03811660009081526003602052604090206123588154611c27565b9055611d06846000526002602052604060002090565b60007fddf252ad1be2c89b69c2b068fc378daa952ba7f163c4a11628f55a4df523b3ef81604051a4565b60405162461bcd60e51b815260206004820152601c60248201527f4552433732313a20746f6b656e20616c7265616479206d696e746564000000006044820152606490fd5b606460405162461bcd60e51b815260206004820152602060248201527f4552433732313a206d696e7420746f20746865207a65726f20616464726573736044820152fd5b1561242857565b60405162461bcd60e51b81526020600482015260096024820152681b9bdd08195e1a5cdd60ba1b6044820152606490fd5b1561246057565b60405162461bcd60e51b815260206004820152601b60248201527f63616e6e6f74207769746864726177206f6e6365207374616b656400000000006044820152606490fd5b156124ac57565b60405162461bcd60e51b815260206004820152600d60248201526c3737ba103a34329037bbb732b960991b6044820152606490fd5b156124e857565b60405162461bcd60e51b81526020600482015260146024820152731b9bdd08195b9bdd59da0819195c1bdcda5d195960621b6044820152606490fd5b1561252b57565b60405162461bcd60e51b815260206004820152601c60248201527f757365207769746864726177207768656e206e6f74207374616b6564000000006044820152606490fd5b6001600160fe1b038111600116612588575b60021b90565b612590611bea565b612582565b600052600b60205260406000205490600019918183048111821515166125ed575b600c549182156125d75702049081019081116125cf5790565b6103cd611bea565b634e487b7160e01b600052601260045260246000fd5b6125f5611bea565b6125b6565b60ff600e54166003811015610d0a576126135750600090565b6103cd904790612595565b1561262557565b60405162461bcd60e51b815260206004820152600e60248201526d0dcdee840cadcdeeaced040cae8d60931b6044820152606490fd5b1561266257565b60405162461bcd60e51b815260206004820152601e60248201527f7769746864726177616c2063726564656e7469616c206d69736d6174636800006044820152606490fd5b908060209392818452848401376000828201840152601f01601f1916010190565b9796959192612706946126ea6126f8936060989660808d5260808d01916126a7565b918a830360208c01526126a7565b9187830360408901526126a7565b930152565b6001600160a01b0316600160f81b8101908110612739575b604051906020820152602081526103cd81610fbc565b612741611bea565b612723565b906122f760209282815194859201610374565b6040519061276682610fbc565b60018252600360fc1b6020830152565b9061278082610ffa565b61278d6040519182610fd8565b828152809261279e601f1991610ffa565b0190602036910137565b9060209180518210156127ba57010190565b6127c2611fa7565b010190565b8015612863576000818181805b61284b57506127e281612776565b935b6127ee5750505090565b600019810190811161283e575b8091600a9161282860308484068101809111612831575b60f81b6001600160f81b031916861a91876127a8565b530490816127e4565b612839611bea565b612812565b612846611bea565b6127fb565b9150612858600a916122df565b9104808492916127d4565b506103cd612759565b604051906060820182811067ffffffffffffffff8211176128dd575b604052604082527f6768696a6b6c6d6e6f707172737475767778797a303132333435363738392b2f6040837f4142434445464748494a4b4c4d4e4f505152535455565758595a61626364656660208201520152565b6128e5610f84565b612888565b8051156129ca576128f961286c565b6129156129106129098451611c35565b6003900490565b612570565b9161292761292284611c43565b612776565b92835280815182019060208501935b8282106129785750505060039051068060011461296757600214612958575090565b603d60f81b6000199091015290565b50613d3d60f01b6001199091015290565b9091936004906003809401938451600190603f9082828260121c16880101518553828282600c1c16880101518386015382828260061c1688010151600286015316850101519082015301939190612936565b506103cd6119da565b6129dc90612a6f565b6103cd606760405180937f3c7376672077696474683d2234303022206865696768743d223430302220786d60208301527f6c6e733d22687474703a2f2f7777772e77332e6f72672f323030302f737667226040830152601f60f91b6060830152612a50815180926020606186019101610374565b8101651e17b9bb339f60d11b6061820152036047810184520182610fd8565b612a8381600052600b602052604060002090565b54670de0b6b3a76400009004612a9890614335565b90612aa2906125fa565b612aab90614335565b604080517f3c7376672076696577426f783d222d313030202d31303020313030302031303060208201526218111f60e91b9181019190915291829190604383017f3c7265637420783d222d3130302220793d222d313030222077696474683d223181527f30303022206865696768743d2231303030222069643d227376675f312220666960208201527f6c6c3d222366666622207374726f6b652d77696474683d223322207374726f6b60408201527f653d2223303030222f3e3c7061746820636c69702d72756c653d226576656e6f60608201527f64642220643d224d31343420393563302d342d322d372d342d31302d332d332d60808201527f362d342d31302d34732d3720312d31302034632d3220332d3420362d3420313060a08201527f613134203134203020302030203134203134203134203134203020302030203160c08201527f342d31347a222066696c6c3d2223653931653233222066696c6c2d72756c653d60e08201526a1132bb32b737b23211179f60a91b61010082015261010b017f3c7061746820636c69702d72756c653d226576656e6f64642220643d224d333481527f39203837632d332d332d362d342d31302d34732d3720312d31302034632d322060208201527f332d3420362d342031307332203720342031306131342031342030203020302060408201527f3230203063322d3320342d3620342d3130732d322d372d342d31307a2220666960608201527f6c6c3d2223303262326537222066696c6c2d72756c653d226576656e6f646422608082015261179f60f11b60a082015260a2017f3c7061746820636c69702d72756c653d226576656e6f64642220643d224d343981527f39203836632d332d322d362d342d31302d34732d3720322d31302034632d322060208201527f332d3420372d342031306131342031342030203020302031342031346334203060408201527f20372d312031302d3420322d3220342d3620342d313020302d332d322d372d3460608201527f2d31305a222066696c6c3d2223666162633136222066696c6c2d72756c653d2260808201526932bb32b737b23211179f60b11b60a082015260aa017f3c7061746820636c69702d72756c653d226576656e6f64642220643d224d363781527f38203930632d332d332d362d352d31302d35732d3720322d31302035632d332060208201527f322d3420362d342039203020342031203820342031302033203320362035203160408201527f30203573372d322031302d3563322d3220342d3620342d313020302d332d322d60608201527f372d342d395a222066696c6c3d2223303262326537222066696c6c2d72756c6560808201526b1e9132bb32b737b23211179f60a11b60a082015260ac017f3c7061746820636c69702d72756c653d226576656e6f64642220643d224d343381527f33203436762d38632d31352d352d33302d332d343420352d3420322d3820372d60208201527f31322031346c2d38203231632d3220332d3320382d332031346c2d322031346360408201527f2d3220362d332031352d332032392031372d322033302d342034312d3720313660608201527f2d342032382d31312033362d31392d3720302d313620322d323620356c2d323560808201527f2038632d3520302d392d322d31302d362d322d342d322d382d312d31326c392d60a08201527f313263342d3420392d352031352d346c322d3320332d322037203120362d312060c08201527f31312d3563352d3120392d332031322d36682d35326c2d342d32762d3563302d60e08201527f3420332d3720372d382031302d352032332d382034312d31315a6d38203238686101008201527f352d355a6d35203020322031633420312036203120382d31682d31305a2220666101208201527334b63616b93ab6329e9132bb32b737b23211179f60611b610140820152610154016000805160206143f983398151915281527f224d34343120373268356d302030203220316d3020306334203120362031203860208201527f2d316d302030682d31306d302030682d356d302030682d35326d3020302d342d60408201527f32762d3563302d3420332d3720372d382031302d352032332d382034312d313160608201527f6d302030762d386d302030632d31352d352d33302d332d343420352d3420322d60808201527f3820372d31322031346d3020302d382032316d302030632d3220332d3320382d60a08201527f332031346c2d32203134632d3220362d332031352d332032392031372d32203360c08201527f302d342034312d372031362d342032382d31312033362d31392d3720302d313660e08201527f20322d323620356d3020302d323520386d302030632d3520302d392d322d31306101008201527f2d362d322d342d322d382d312d31326c392d313263342d3420392d352031352d6101208201527f346c322d3320332d326d302030203720316d30203020362d312031312d3563356101408201527f2d3120392d332031322d36222066696c6c3d226e6f6e6522207374726f6b653d6101608201527f222330303022207374726f6b652d77696474683d2231322e3222207374726f6b6101808201527f652d6c696e656361703d22726f756e6422207374726f6b652d6c696e656a6f696101a08201526a371e913937bab73211179f60a91b6101c08201526101cb017f3c7061746820636c69702d72756c653d226576656e6f64642220643d226d363281527f3820343620322d3920332d3920332d3620342d3563322d3520332d3920312d3160208201527f336c2d31352033352d31342033362d35203134632d3320352d3720372d31332060408201527f342d31342d362d32362d31352d33332d32366c2d382d3136632d332d352d362d60608201527f372d382d352d3720382d31322031392d31342033356c2d34203431633220302060808201527f3420312034203476326c322d3163322d3320332d3820342d31346c332d31366360a08201527f302d3620312d313020332d313320312d3320342d3420382d347339203220313460c08201527f20356c313320313020313220313363362035203130203920313520313120352060e08201527f302037203020372d3220302d313120322d323320352d33366c31312d33355a2261010082015275103334b63616b93ab6329e9132bb32b737b23211179f60511b610120820152610136016000805160206143f983398151915281527f226d36333020333720332d3920332d366d30203020342d356d30203063322d3560208201527f20332d3920312d31336c2d31352033352d31342033366d3020302d352031346d60408201527f302030632d3320352d3720372d313320342d31342d362d32362d31352d33332d60608201527f32366d3020302d382d31366d302030632d332d352d362d372d382d352d37203860808201527f2d31322031392d31342033356d3020302d342034316d3020306332203020342060a08201527f31203420346d30203076326d30203020322d3163322d3320332d3820342d313460c08201527f6d30203020332d31366d30203063302d3620312d313020332d313320312d332060e08201527f342d3420382d347339203220313420356c31332031306d3020302031322031336101008201527f6d302030633620352031302039203135203131203520302037203020372d32206101208201527f302d313120322d323320352d333661363837203638372030203020312031332d6101408201527f3434222066696c6c3d226e6f6e6522207374726f6b653d2223303030222073746101608201527f726f6b652d77696474683d2231322e3222207374726f6b652d6c696e656361706101808201527f3d22726f756e6422207374726f6b652d6c696e656a6f696e3d22726f756e64226101a082015261179f60f11b6101c08201526101c2017f3c7061746820636c69702d72756c653d226576656e6f64642220643d224d373881527f36203338762d38682d386c2d3331203231632d323220392d33332031392d333160208201527f203239203220342035203720313020386c313620312031392d3220313720312060408201527f3320312032203476366c2d332034632d3620362d31332031302d32322031342d60608201527f3820342d313620362d323420382d3320332d3520372d3520313020342d34203160808201527f312d372031392d31316c32322d3863382d332031342d362031382d313020362d60a08201527f3520392d31312031302d31382d362d342d31362d362d32382d36682d3331632d60c08201527f322d312d332d332d332d366c312d376331362d31332033312d32312034362d3260e08201527f3620322d3120332d3320332d355a222066696c6c2d72756c653d226576656e6f61010082015264323211179f60d91b610120820152610125016000805160206143f983398151915281527f224d373836203330682d386d3020302d3331203231632d323220392d3333203160208201527f392d3331203239203220342035203720313020386d302030203136203120313960408201527f2d3220313720316d302030203320316d302030203220346d30203076366d302060608201527f302d3320356d302030632d3620352d313320392d32322031332d3820342d313660808201527f20362d323420382d3320332d3520372d3520313020342d342031312d3720313960a08201527f2d31316d3020302032322d386d30203063382d332031342d362031382d31302060c08201527f362d3520392d31312031302d31382d362d342d31362d362d32382d366d30203060e08201527f682d33316d302030632d322d312d332d332d332d366d30203020312d376d30206101008201527f306331362d31332033312d32312034362d323620322d3120332d3320332d356d6101208201527f302030762d38222066696c6c3d226e6f6e6522207374726f6b653d22233030306101408201527f22207374726f6b652d77696474683d2231322e3222207374726f6b652d6c696e6101608201527f656361703d22726f756e6422207374726f6b652d6c696e656a6f696e3d22726f610180820152653ab73211179f60d11b6101a08201526101a6017f3c7061746820636c69702d72756c653d226576656e6f64642220643d224d323481527f35203332682d31376c2d3138203130632d3720322d313420302d31382d356c2d60208201527f332031312d31332035382d3132203537632d3320372d3220313520322032376c60408201527f312d323320332d323263322d313620382d32392031372d333720342d3320313160608201527f2d342032312d326c32322038633139203720333520392034372035762d35632d60808201527f3820302d31362d322d32362d356c2d32362d392d332d352d322d3563322d352060a08201527f372d392031332d31336c31372d313063362d342031302d382031322d3131203260c08201527f2d3520312d31302d332d31362d332d342d372d362d31342d387a6d2d3320323460e08201527f2d31342031332d3138203133632d3620332d313020342d3133203320302d37206101008201527f302d313220322d313620322d3520352d392031302d31326c31382d3863392d346101208201527f2031352d342031382d3220322031203120342d3320397a222066696c6c2d72756101408201526d36329e9132bb32b737b23211179f60911b61016082015261016e016000805160206143f983398151915281527f226d3232382033322d3138203130632d3720322d313420302d31382d356d302060208201527f302d332031316d3020302d31332035382d3132203537632d3320372d3220313560408201527f20322032376d30203020312d32336d30203020332d323263322d313620382d3260608201527f392031372d333720342d332031312d342032312d326c3232203863313920372060808201527f3335203920343720356d302030762d356d302030632d3820302d31362d322d3260a08201527f362d356d3020302d32362d392d332d356d3020302d322d3563322d3520372d3960c08201527f2031332d31336d3020302031372d31306d30203063362d342031302d3820313260e08201527f2d313120322d3520312d31302d332d31362d332d342d372d362d31342d38682d6101008201527f3137222066696c6c3d226e6f6e6522207374726f6b653d2223303030222073746101208201527f726f6b652d77696474683d2231322e3222207374726f6b652d6c696e656361706101408201527f3d22726f756e6422207374726f6b652d6c696e656a6f696e3d22726f756e642261016082015261179f60f11b610180820152610182017f3c7061746820636c69702d72756c653d226576656e6f64642220643d226d363181527f2032312032302d356332203020342d3220352d3420322d3320312d342d322d3460208201527f2d392d332d31382d322d323820302d3820332d313620372d32312031332d352060408201527f332d3920392d31312031396c2d332031332d342031332d362038632d3220332d60608201527f3320372d322031302032203220332034203320386c312032342d332032332d3360808201527f2032352d3120323520372d343720392d343763302d3320322d3520362d38203360a08201527f2d3120362d332031302d336c31352d342031352d362031352d3620342d312d3460c08201527f392034632d3320302d352d312d382d332d322d332d332d352d332d3820342d3160e08201527f3420392d32342031362d33317a222066696c6c2d72756c653d226576656e6f64610100820152633211179f60e11b610120820152610124016000805160206143f983398151915281527f226d38372036372d353020346d3020302d372d33632d322d332d332d352d332d60208201527f3820342d313420392d32342031362d33316d3020302031382d386d302030203260408201527f302d356332203020342d3220352d3420322d3320312d342d322d342d392d332d60608201527f31382d322d323820302d3820332d313620372d32312031332d3520332d39203960808201527f2d31312031396d3020302d332031336d3020302d342031336d3020302d36203860a08201527f6d302030632d3220332d3320372d322031302032203220332034203320386c3160c08201527f2032342d332032336d3020302d332032356d3020302d312032356d302030203760e08201527f2d34376d30203020392d343763302d3320322d3520362d3820332d3120362d336101008201527f2031302d336c31352d346d3020302031352d366d3020302031352d366d3020306101208201527f20342d316d31322d312d31322031222066696c6c3d226e6f6e6522207374726f6101408201527f6b653d222330303022207374726f6b652d77696474683d2231322e32222073746101608201527f726f6b652d6c696e656361703d22726f756e6422207374726f6b652d6c696e656101808201526d3537b4b71e913937bab73211179f60911b6101a08201526101ae017f3c7465787420666f6e742d73697a653d223132302220666f6e742d776569676881527f743d22626f6c642220783d223132302220793d22333530222066696c6c3d226260208201527f6c756522207374726f6b653d222330303022207374726f6b652d77696474683d60408201527f22312220666f6e742d66616d696c793d2273616e732d7365726966223e0000006060820152607d01672232b837b9b4ba1d60c11b8152600801661e17ba32bc3a1f60c91b81526007017f3c7465787420666f6e742d73697a653d2238302220666f6e742d77656967687481527f3d22626f6c642220783d223235302220793d22343630222066696c6c3d22626c60208201527f756522207374726f6b653d222330303022207374726f6b652d77696474683d2260408201527f312220666f6e742d66616d696c793d2273616e732d7365726966223e000000006060820152607c0161417e91612746565b630408ae8d60e31b8152600401661e17ba32bc3a1f60c91b81526007017f3c7465787420666f6e742d73697a653d223132302220666f6e742d776569676881527f743d22626f6c642220783d2238302220793d22363230222066696c6c3d22677260208201527f65656e22207374726f6b653d222330303022207374726f6b652d77696474683d60408201527f22312220666f6e742d66616d696c793d2273616e732d7365726966223e0000006060820152607d016921b630b4b6b0b136329d60b11b8152600a01661e17ba32bc3a1f60c91b81526007017f3c7465787420666f6e742d73697a653d2238302220666f6e742d77656967687481527f3d22626f6c642220783d223235302220793d22373330222066696c6c3d22677260208201527f65656e22207374726f6b653d222330303022207374726f6b652d77696474683d60408201527f22312220666f6e742d66616d696c793d2273616e732d7365726966223e0000006060820152607d016142f791612746565b632057656960e01b8152600401661e17ba32bc3a1f60c91b8152600701651e17b9bb339f60d11b815260060103601f19810182526103cd9082610fd8565b8015612863578060008281935b6143e457508161435184612776565b93905b61435e5750505090565b61436790611c01565b91826143b5600a928381049384600019048111851515166143d7575b840281039081116143ca575b60ff8091166030019081116143bd575b60f81b6001600160f81b031916841a91866127a8565b539182614354565b6143c5611bea565b61439f565b6143d2611bea565b61438f565b6143df611bea565b614383565b926143f0600a916122df565b93048061434256fe3c70617468207374726f6b652d6d697465726c696d69743d22322e362220643da2646970667358221220365384552ace7cf1a7fa9e32ba305e8bb2eb66e838dbaa7684f3169728bb97ab64736f6c63430008100033",
  "devdoc": {
    "kind": "dev",
    "methods": {
      "approve(address,uint256)": {
        "details": "See {IERC721-approve}."
      },
      "balanceOf(address)": {
        "details": "See {IERC721-balanceOf}."
      },
      "getApproved(uint256)": {
        "details": "See {IERC721-getApproved}."
      },
      "isApprovedForAll(address,address)": {
        "details": "See {IERC721-isApprovedForAll}."
      },
      "name()": {
        "details": "See {IERC721Metadata-name}."
      },
      "owner()": {
        "details": "Returns the address of the current owner."
      },
      "ownerOf(uint256)": {
        "details": "See {IERC721-ownerOf}."
      },
      "renounceOwnership()": {
        "details": "Leaves the contract without owner. It will not be possible to call `onlyOwner` functions anymore. Can only be called by the current owner. NOTE: Renouncing ownership will leave the contract without an owner, thereby removing any functionality that is only available to the owner."
      },
      "safeTransferFrom(address,address,uint256)": {
        "details": "See {IERC721-safeTransferFrom}."
      },
      "safeTransferFrom(address,address,uint256,bytes)": {
        "details": "See {IERC721-safeTransferFrom}."
      },
      "setApprovalForAll(address,bool)": {
        "details": "See {IERC721-setApprovalForAll}."
      },
      "supportsInterface(bytes4)": {
        "details": "See {IERC165-supportsInterface}."
      },
      "symbol()": {
        "details": "See {IERC721Metadata-symbol}."
      },
      "tokenByIndex(uint256)": {
        "details": "See {IERC721Enumerable-tokenByIndex}."
      },
      "tokenOfOwnerByIndex(address,uint256)": {
        "details": "See {IERC721Enumerable-tokenOfOwnerByIndex}."
      },
      "totalSupply()": {
        "details": "See {IERC721Enumerable-totalSupply}."
      },
      "transferFrom(address,address,uint256)": {
        "details": "See {IERC721-transferFrom}."
      },
      "transferOwnership(address)": {
        "details": "Transfers ownership of the contract to a new account (`newOwner`). Can only be called by the current owner."
      }
    },
    "version": 1
  },
  "userdoc": {
    "kind": "user",
    "methods": {},
    "version": 1
  },
  "storageLayout": {
    "storage": [
      {
        "astId": 130,
        "contract": "contracts/StakingPool.sol:StakingPool",
        "label": "_name",
        "offset": 0,
        "slot": "0",
        "type": "t_string_storage"
      },
      {
        "astId": 132,
        "contract": "contracts/StakingPool.sol:StakingPool",
        "label": "_symbol",
        "offset": 0,
        "slot": "1",
        "type": "t_string_storage"
      },
      {
        "astId": 136,
        "contract": "contracts/StakingPool.sol:StakingPool",
        "label": "_owners",
        "offset": 0,
        "slot": "2",
        "type": "t_mapping(t_uint256,t_address)"
      },
      {
        "astId": 140,
        "contract": "contracts/StakingPool.sol:StakingPool",
        "label": "_balances",
        "offset": 0,
        "slot": "3",
        "type": "t_mapping(t_address,t_uint256)"
      },
      {
        "astId": 144,
        "contract": "contracts/StakingPool.sol:StakingPool",
        "label": "_tokenApprovals",
        "offset": 0,
        "slot": "4",
        "type": "t_mapping(t_uint256,t_address)"
      },
      {
        "astId": 150,
        "contract": "contracts/StakingPool.sol:StakingPool",
        "label": "_operatorApprovals",
        "offset": 0,
        "slot": "5",
        "type": "t_mapping(t_address,t_mapping(t_address,t_bool))"
      },
      {
        "astId": 1084,
        "contract": "contracts/StakingPool.sol:StakingPool",
        "label": "_ownedTokens",
        "offset": 0,
        "slot": "6",
        "type": "t_mapping(t_address,t_mapping(t_uint256,t_uint256))"
      },
      {
        "astId": 1088,
        "contract": "contracts/StakingPool.sol:StakingPool",
        "label": "_ownedTokensIndex",
        "offset": 0,
        "slot": "7",
        "type": "t_mapping(t_uint256,t_uint256)"
      },
      {
        "astId": 1091,
        "contract": "contracts/StakingPool.sol:StakingPool",
        "label": "_allTokens",
        "offset": 0,
        "slot": "8",
        "type": "t_array(t_uint256)dyn_storage"
      },
      {
        "astId": 1095,
        "contract": "contracts/StakingPool.sol:StakingPool",
        "label": "_allTokensIndex",
        "offset": 0,
        "slot": "9",
        "type": "t_mapping(t_uint256,t_uint256)"
      },
      {
        "astId": 7,
        "contract": "contracts/StakingPool.sol:StakingPool",
        "label": "_owner",
        "offset": 0,
        "slot": "10",
        "type": "t_address"
      },
      {
        "astId": 2173,
        "contract": "contracts/StakingPool.sol:StakingPool",
        "label": "depositAmount",
        "offset": 0,
        "slot": "11",
        "type": "t_mapping(t_uint256,t_uint256)"
      },
      {
        "astId": 2175,
        "contract": "contracts/StakingPool.sol:StakingPool",
        "label": "totalDeposits",
        "offset": 0,
        "slot": "12",
        "type": "t_uint256"
      },
      {
        "astId": 2177,
        "contract": "contracts/StakingPool.sol:StakingPool",
        "label": "_tokenId",
        "offset": 0,
        "slot": "13",
        "type": "t_uint256"
      },
      {
        "astId": 2184,
        "contract": "contracts/StakingPool.sol:StakingPool",
        "label": "currentState",
        "offset": 0,
        "slot": "14",
        "type": "t_enum(State)2181"
      },
      {
        "astId": 2186,
        "contract": "contracts/StakingPool.sol:StakingPool",
        "label": "depositContractAddress",
        "offset": 1,
        "slot": "14",
        "type": "t_address"
      },
      {
        "astId": 2189,
        "contract": "contracts/StakingPool.sol:StakingPool",
        "label": "depositContract",
        "offset": 0,
        "slot": "15",
        "type": "t_contract(IDepositContract)2156"
      },
      {
        "astId": 2191,
        "contract": "contracts/StakingPool.sol:StakingPool",
        "label": "rightfulOwner",
        "offset": 0,
        "slot": "16",
        "type": "t_address"
      }
    ],
    "types": {
      "t_address": {
        "encoding": "inplace",
        "label": "address",
        "numberOfBytes": "20"
      },
      "t_array(t_uint256)dyn_storage": {
        "base": "t_uint256",
        "encoding": "dynamic_array",
        "label": "uint256[]",
        "numberOfBytes": "32"
      },
      "t_bool": {
        "encoding": "inplace",
        "label": "bool",
        "numberOfBytes": "1"
      },
      "t_contract(IDepositContract)2156": {
        "encoding": "inplace",
        "label": "contract IDepositContract",
        "numberOfBytes": "20"
      },
      "t_enum(State)2181": {
        "encoding": "inplace",
        "label": "enum StakingPool.State",
        "numberOfBytes": "1"
      },
      "t_mapping(t_address,t_bool)": {
        "encoding": "mapping",
        "key": "t_address",
        "label": "mapping(address => bool)",
        "numberOfBytes": "32",
        "value": "t_bool"
      },
      "t_mapping(t_address,t_mapping(t_address,t_bool))": {
        "encoding": "mapping",
        "key": "t_address",
        "label": "mapping(address => mapping(address => bool))",
        "numberOfBytes": "32",
        "value": "t_mapping(t_address,t_bool)"
      },
      "t_mapping(t_address,t_mapping(t_uint256,t_uint256))": {
        "encoding": "mapping",
        "key": "t_address",
        "label": "mapping(address => mapping(uint256 => uint256))",
        "numberOfBytes": "32",
        "value": "t_mapping(t_uint256,t_uint256)"
      },
      "t_mapping(t_address,t_uint256)": {
        "encoding": "mapping",
        "key": "t_address",
        "label": "mapping(address => uint256)",
        "numberOfBytes": "32",
        "value": "t_uint256"
      },
      "t_mapping(t_uint256,t_address)": {
        "encoding": "mapping",
        "key": "t_uint256",
        "label": "mapping(uint256 => address)",
        "numberOfBytes": "32",
        "value": "t_address"
      },
      "t_mapping(t_uint256,t_uint256)": {
        "encoding": "mapping",
        "key": "t_uint256",
        "label": "mapping(uint256 => uint256)",
        "numberOfBytes": "32",
        "value": "t_uint256"
      },
      "t_string_storage": {
        "encoding": "bytes",
        "label": "string",
        "numberOfBytes": "32"
      },
      "t_uint256": {
        "encoding": "inplace",
        "label": "uint256",
        "numberOfBytes": "32"
      }
    }
  }
}