{
  "contracts/StakingPool.sol": {
    "StakingPool": {
      "abi": [
        {
          "inputs": [
            {
              "internalType": "address",
              "name": "depositContractAddress_",
              "type": "address"
            },
            {
              "internalType": "address",
              "name": "owner_",
              "type": "address"
            }
          ],
          "stateMutability": "nonpayable",
          "type": "constructor"
        },
        {
          "anonymous": false,
          "inputs": [
            {
              "indexed": true,
              "internalType": "address",
              "name": "owner",
              "type": "address"
            },
            {
              "indexed": true,
              "internalType": "address",
              "name": "approved",
              "type": "address"
            },
            {
              "indexed": true,
              "internalType": "uint256",
              "name": "tokenId",
              "type": "uint256"
            }
          ],
          "name": "Approval",
          "type": "event"
        },
        {
          "anonymous": false,
          "inputs": [
            {
              "indexed": true,
              "internalType": "address",
              "name": "owner",
              "type": "address"
            },
            {
              "indexed": true,
              "internalType": "address",
              "name": "operator",
              "type": "address"
            },
            {
              "indexed": false,
              "internalType": "bool",
              "name": "approved",
              "type": "bool"
            }
          ],
          "name": "ApprovalForAll",
          "type": "event"
        },
        {
          "anonymous": false,
          "inputs": [
            {
              "indexed": false,
              "internalType": "address",
              "name": "depositContractAddress",
              "type": "address"
            },
            {
              "indexed": false,
              "internalType": "address",
              "name": "caller",
              "type": "address"
            }
          ],
          "name": "Deposit",
          "type": "event"
        },
        {
          "anonymous": false,
          "inputs": [
            {
              "indexed": true,
              "internalType": "address",
              "name": "previousOwner",
              "type": "address"
            },
            {
              "indexed": true,
              "internalType": "address",
              "name": "newOwner",
              "type": "address"
            }
          ],
          "name": "OwnershipTransferred",
          "type": "event"
        },
        {
          "anonymous": false,
          "inputs": [
            {
              "indexed": true,
              "internalType": "address",
              "name": "from",
              "type": "address"
            },
            {
              "indexed": true,
              "internalType": "address",
              "name": "to",
              "type": "address"
            },
            {
              "indexed": true,
              "internalType": "uint256",
              "name": "tokenId",
              "type": "uint256"
            }
          ],
          "name": "Transfer",
          "type": "event"
        },
        {
          "stateMutability": "payable",
          "type": "fallback"
        },
        {
          "inputs": [
            {
              "internalType": "uint256",
              "name": "_id",
              "type": "uint256"
            }
          ],
          "name": "addToDeposit",
          "outputs": [],
          "stateMutability": "payable",
          "type": "function"
        },
        {
          "inputs": [
            {
              "internalType": "address",
              "name": "to",
              "type": "address"
            },
            {
              "internalType": "uint256",
              "name": "tokenId",
              "type": "uint256"
            }
          ],
          "name": "approve",
          "outputs": [],
          "stateMutability": "nonpayable",
          "type": "function"
        },
        {
          "inputs": [
            {
              "internalType": "address",
              "name": "owner",
              "type": "address"
            }
          ],
          "name": "balanceOf",
          "outputs": [
            {
              "internalType": "uint256",
              "name": "",
              "type": "uint256"
            }
          ],
          "stateMutability": "view",
          "type": "function"
        },
        {
          "inputs": [
            {
              "internalType": "address",
              "name": "userAddress",
              "type": "address"
            }
          ],
          "name": "deposit",
          "outputs": [],
          "stateMutability": "payable",
          "type": "function"
        },
        {
          "inputs": [
            {
              "internalType": "uint256",
              "name": "",
              "type": "uint256"
            }
          ],
          "name": "depositAmount",
          "outputs": [
            {
              "internalType": "uint256",
              "name": "",
              "type": "uint256"
            }
          ],
          "stateMutability": "view",
          "type": "function"
        },
        {
          "inputs": [],
          "name": "depositContractAddress",
          "outputs": [
            {
              "internalType": "address",
              "name": "",
              "type": "address"
            }
          ],
          "stateMutability": "view",
          "type": "function"
        },
        {
          "inputs": [],
          "name": "distribute",
          "outputs": [],
          "stateMutability": "nonpayable",
          "type": "function"
        },
        {
          "inputs": [
            {
              "internalType": "uint256",
              "name": "tokenId",
              "type": "uint256"
            }
          ],
          "name": "getApproved",
          "outputs": [
            {
              "internalType": "address",
              "name": "",
              "type": "address"
            }
          ],
          "stateMutability": "view",
          "type": "function"
        },
        {
          "inputs": [
            {
              "internalType": "uint256",
              "name": "_id",
              "type": "uint256"
            }
          ],
          "name": "getDistributableShare",
          "outputs": [
            {
              "internalType": "uint256",
              "name": "",
              "type": "uint256"
            }
          ],
          "stateMutability": "view",
          "type": "function"
        },
        {
          "inputs": [],
          "name": "getOwner",
          "outputs": [
            {
              "internalType": "address",
              "name": "",
              "type": "address"
            }
          ],
          "stateMutability": "view",
          "type": "function"
        },
        {
          "inputs": [
            {
              "internalType": "uint256",
              "name": "_id",
              "type": "uint256"
            }
          ],
          "name": "getShare",
          "outputs": [
            {
              "internalType": "uint256",
              "name": "",
              "type": "uint256"
            }
          ],
          "stateMutability": "view",
          "type": "function"
        },
        {
          "inputs": [
            {
              "internalType": "address",
              "name": "owner",
              "type": "address"
            },
            {
              "internalType": "address",
              "name": "operator",
              "type": "address"
            }
          ],
          "name": "isApprovedForAll",
          "outputs": [
            {
              "internalType": "bool",
              "name": "",
              "type": "bool"
            }
          ],
          "stateMutability": "view",
          "type": "function"
        },
        {
          "inputs": [],
          "name": "name",
          "outputs": [
            {
              "internalType": "string",
              "name": "",
              "type": "string"
            }
          ],
          "stateMutability": "view",
          "type": "function"
        },
        {
          "inputs": [],
          "name": "owner",
          "outputs": [
            {
              "internalType": "address",
              "name": "",
              "type": "address"
            }
          ],
          "stateMutability": "view",
          "type": "function"
        },
        {
          "inputs": [
            {
              "internalType": "uint256",
              "name": "tokenId",
              "type": "uint256"
            }
          ],
          "name": "ownerOf",
          "outputs": [
            {
              "internalType": "address",
              "name": "",
              "type": "address"
            }
          ],
          "stateMutability": "view",
          "type": "function"
        },
        {
          "inputs": [
            {
              "internalType": "uint256",
              "name": "id",
              "type": "uint256"
            }
          ],
          "name": "renderTokenById",
          "outputs": [
            {
              "internalType": "string",
              "name": "",
              "type": "string"
            }
          ],
          "stateMutability": "view",
          "type": "function"
        },
        {
          "inputs": [],
          "name": "renounceOwnership",
          "outputs": [],
          "stateMutability": "nonpayable",
          "type": "function"
        },
        {
          "inputs": [],
          "name": "rugpull",
          "outputs": [],
          "stateMutability": "nonpayable",
          "type": "function"
        },
        {
          "inputs": [
            {
              "internalType": "address",
              "name": "from",
              "type": "address"
            },
            {
              "internalType": "address",
              "name": "to",
              "type": "address"
            },
            {
              "internalType": "uint256",
              "name": "tokenId",
              "type": "uint256"
            }
          ],
          "name": "safeTransferFrom",
          "outputs": [],
          "stateMutability": "nonpayable",
          "type": "function"
        },
        {
          "inputs": [
            {
              "internalType": "address",
              "name": "from",
              "type": "address"
            },
            {
              "internalType": "address",
              "name": "to",
              "type": "address"
            },
            {
              "internalType": "uint256",
              "name": "tokenId",
              "type": "uint256"
            },
            {
              "internalType": "bytes",
              "name": "_data",
              "type": "bytes"
            }
          ],
          "name": "safeTransferFrom",
          "outputs": [],
          "stateMutability": "nonpayable",
          "type": "function"
        },
        {
          "inputs": [],
          "name": "sendToOwner",
          "outputs": [],
          "stateMutability": "nonpayable",
          "type": "function"
        },
        {
          "inputs": [
            {
              "internalType": "address",
              "name": "operator",
              "type": "address"
            },
            {
              "internalType": "bool",
              "name": "approved",
              "type": "bool"
            }
          ],
          "name": "setApprovalForAll",
          "outputs": [],
          "stateMutability": "nonpayable",
          "type": "function"
        },
        {
          "inputs": [
            {
              "internalType": "bytes",
              "name": "pubkey",
              "type": "bytes"
            },
            {
              "internalType": "bytes",
              "name": "withdrawal_credentials",
              "type": "bytes"
            },
            {
              "internalType": "bytes",
              "name": "signature",
              "type": "bytes"
            },
            {
              "internalType": "bytes32",
              "name": "deposit_data_root",
              "type": "bytes32"
            }
          ],
          "name": "stake",
          "outputs": [],
          "stateMutability": "nonpayable",
          "type": "function"
        },
        {
          "inputs": [
            {
              "internalType": "bytes4",
              "name": "interfaceId",
              "type": "bytes4"
            }
          ],
          "name": "supportsInterface",
          "outputs": [
            {
              "internalType": "bool",
              "name": "",
              "type": "bool"
            }
          ],
          "stateMutability": "view",
          "type": "function"
        },
        {
          "inputs": [],
          "name": "symbol",
          "outputs": [
            {
              "internalType": "string",
              "name": "",
              "type": "string"
            }
          ],
          "stateMutability": "view",
          "type": "function"
        },
        {
          "inputs": [
            {
              "internalType": "uint256",
              "name": "index",
              "type": "uint256"
            }
          ],
          "name": "tokenByIndex",
          "outputs": [
            {
              "internalType": "uint256",
              "name": "",
              "type": "uint256"
            }
          ],
          "stateMutability": "view",
          "type": "function"
        },
        {
          "inputs": [
            {
              "internalType": "address",
              "name": "owner",
              "type": "address"
            },
            {
              "internalType": "uint256",
              "name": "index",
              "type": "uint256"
            }
          ],
          "name": "tokenOfOwnerByIndex",
          "outputs": [
            {
              "internalType": "uint256",
              "name": "",
              "type": "uint256"
            }
          ],
          "stateMutability": "view",
          "type": "function"
        },
        {
          "inputs": [
            {
              "internalType": "uint256",
              "name": "id",
              "type": "uint256"
            }
          ],
          "name": "tokenURI",
          "outputs": [
            {
              "internalType": "string",
              "name": "",
              "type": "string"
            }
          ],
          "stateMutability": "view",
          "type": "function"
        },
        {
          "inputs": [],
          "name": "totalDeposits",
          "outputs": [
            {
              "internalType": "uint256",
              "name": "",
              "type": "uint256"
            }
          ],
          "stateMutability": "view",
          "type": "function"
        },
        {
          "inputs": [],
          "name": "totalSupply",
          "outputs": [
            {
              "internalType": "uint256",
              "name": "",
              "type": "uint256"
            }
          ],
          "stateMutability": "view",
          "type": "function"
        },
        {
          "inputs": [
            {
              "internalType": "address",
              "name": "from",
              "type": "address"
            },
            {
              "internalType": "address",
              "name": "to",
              "type": "address"
            },
            {
              "internalType": "uint256",
              "name": "tokenId",
              "type": "uint256"
            }
          ],
          "name": "transferFrom",
          "outputs": [],
          "stateMutability": "nonpayable",
          "type": "function"
        },
        {
          "inputs": [
            {
              "internalType": "address",
              "name": "newOwner",
              "type": "address"
            }
          ],
          "name": "transferOwnership",
          "outputs": [],
          "stateMutability": "nonpayable",
          "type": "function"
        },
        {
          "inputs": [],
          "name": "unstake",
          "outputs": [],
          "stateMutability": "nonpayable",
          "type": "function"
        },
        {
          "inputs": [
            {
              "internalType": "uint256",
              "name": "_id",
              "type": "uint256"
            },
            {
              "internalType": "uint256",
              "name": "_amount",
              "type": "uint256"
            }
          ],
          "name": "withdraw",
          "outputs": [],
          "stateMutability": "nonpayable",
          "type": "function"
        },
        {
          "stateMutability": "payable",
          "type": "receive"
        }
      ],
      "devdoc": {
        "kind": "dev",
        "methods": {
          "approve(address,uint256)": {
            "details": "See {IERC721-approve}."
          },
          "balanceOf(address)": {
            "details": "See {IERC721-balanceOf}."
          },
          "getApproved(uint256)": {
            "details": "See {IERC721-getApproved}."
          },
          "isApprovedForAll(address,address)": {
            "details": "See {IERC721-isApprovedForAll}."
          },
          "name()": {
            "details": "See {IERC721Metadata-name}."
          },
          "owner()": {
            "details": "Returns the address of the current owner."
          },
          "ownerOf(uint256)": {
            "details": "See {IERC721-ownerOf}."
          },
          "renounceOwnership()": {
            "details": "Leaves the contract without owner. It will not be possible to call `onlyOwner` functions anymore. Can only be called by the current owner. NOTE: Renouncing ownership will leave the contract without an owner, thereby removing any functionality that is only available to the owner."
          },
          "safeTransferFrom(address,address,uint256)": {
            "details": "See {IERC721-safeTransferFrom}."
          },
          "safeTransferFrom(address,address,uint256,bytes)": {
            "details": "See {IERC721-safeTransferFrom}."
          },
          "setApprovalForAll(address,bool)": {
            "details": "See {IERC721-setApprovalForAll}."
          },
          "supportsInterface(bytes4)": {
            "details": "See {IERC165-supportsInterface}."
          },
          "symbol()": {
            "details": "See {IERC721Metadata-symbol}."
          },
          "tokenByIndex(uint256)": {
            "details": "See {IERC721Enumerable-tokenByIndex}."
          },
          "tokenOfOwnerByIndex(address,uint256)": {
            "details": "See {IERC721Enumerable-tokenOfOwnerByIndex}."
          },
          "totalSupply()": {
            "details": "See {IERC721Enumerable-totalSupply}."
          },
          "transferFrom(address,address,uint256)": {
            "details": "See {IERC721-transferFrom}."
          },
          "transferOwnership(address)": {
            "details": "Transfers ownership of the contract to a new account (`newOwner`). Can only be called by the current owner."
          }
        },
        "version": 1
      },
      "evm": {
        "bytecode": {
          "linkReferences": {},
          "object": "608034620003f0576001600160401b0390601f1990601f90620048793881900383810185168301919086831184841017620003da578084926040948552833981010312620003f057620000528162000415565b9362000062602080930162000415565b926200006d620003f5565b9260128452717374616b696e6720636f6e20616d69676f7360701b8185015262000096620003f5565b9060058252644652454e5360d81b81830152845196848811620003da576000978854966001978881811c91168015620003cf575b85821014620003bb5790818784931162000368575b50849087831160011462000307578b92620002fb575b5050600019600383901b1c191690871b1788555b8251948511620002e75785548681811c91168015620002dc575b83821014620002c8579081858796959493116200026f575b50819385116001146200020a5750508692620001fe575b5050600019600383901b1c191690821b1790555b600a80546001600160a01b0319808216339081179093556040519590946001600160a01b03949385939091908416907f8be0079c531659141344cd1fd0a4f28419497f9722a3daafe3b4186f6b6457e09089a3600e5490610100600160a81b039060081b169060018060a81b0319161780600e5560081c1683600f541617600f551690601054161760105561444e90816200042b8239f35b01519050388062000152565b869593929193168589528389209389905b8282106200025557505084116200023b575b505050811b01905562000166565b015160001960f88460031b161c191690553880806200022d565b84840151865588979095019493840193908101906200021b565b9091929394508689528289208580880160051c820192858910620002be575b9188978a9297969594930160051c01915b828110620002af5750506200013b565b8b81558897508991016200029f565b925081926200028e565b634e487b7160e01b89526022600452602489fd5b90607f169062000123565b634e487b7160e01b88526041600452602488fd5b015190503880620000f5565b90848a9416918c8052868d20928d5b8882821062000351575050841162000337575b505050811b01885562000109565b015160001960f88460031b161c1916905538808062000329565b8385015186558d9790950194938401930162000316565b9091508a8052848b208780850160051c820192878610620003b1575b918b91869594930160051c01915b828110620003a2575050620000df565b8d81558594508b910162000392565b9250819262000384565b634e487b7160e01b8b52602260045260248bfd5b90607f1690620000ca565b634e487b7160e01b600052604160045260246000fd5b600080fd5b60408051919082016001600160401b03811183821017620003da57604052565b51906001600160a01b0382168203620003f05756fe60806040526004361015610018575b361561001657005b005b60003560e01c806301ffc9a7146102c057806306fdde03146102b7578063081812fc146102ae578063095ea7b3146102a557806318160ddd1461029c57806323b872dd146102935780632a4dbd2b1461028a5780632def6620146102815780632f745c591461027857806342842e0e1461026f578063441a3e70146102665780634b2b4e361461025d5780634f6ccce7146102545780636352211e1461024b5780636620a93514610242578063678e300a1461023957806370a0823114610230578063715018a6146102275780637d8820971461021e5780638620891c1461021557806387f8ab261461020c578063893d20e8146102035780638da5cb5b146101fa57806395d89b41146101f1578063a22cb465146101e8578063a2d6c6da146101df578063b88d4fde146101d6578063c87b56dd146101cd578063cfb5a5f8146101c4578063e2664e49146101bb578063e4fc6b6d146101b2578063e985e9c5146101a9578063f2fde38b146101a05763f340fa010361000e5761019b611678565b61000e565b5061019b6115e1565b5061019b611583565b5061019b6114e0565b5061019b611488565b5061019b611468565b5061019b6110bd565b5061019b61105c565b5061019b610f50565b5061019b610e63565b5061019b610da1565b5061019b610d77565b5061019b610d4d565b5061019b610d20565b5061019b610c85565b5061019b610c66565b5061019b610c01565b5061019b610bdd565b5061019b610bb6565b5061019b610b4e565b5061019b610b2f565b5061019b610a83565b5061019b6108ef565b5061019b6107ef565b5061019b6107a7565b5061019b6106f3565b5061019b6106d2565b5061019b6106a4565b5061019b61067a565b5061019b610626565b5061019b610538565b5061019b6104db565b5061019b6103d0565b5061019b6102e0565b6001600160e01b03198116036102db57565b600080fd5b50346102db5760203660031901126102db576020600435610300816102c9565b63ffffffff60e01b1663780e9d6360e01b8114908115610326575b506040519015158152f35b6380ac58cd60e01b811491508115610358575b8115610347575b503861031b565b6301ffc9a760e01b14905038610340565b635b5e139f60e01b81149150610339565b60009103126102db57565b60005b8381106103875750506000910152565b8181015183820152602001610377565b906020916103b081518092818552858086019101610374565b601f01601f1916010190565b9060206103cd928181520190610397565b90565b50346102db576000806003193601126104d857604051908080549060019180831c928082169283156104ce575b60209283861085146104ba5785885260208801949081156104995750600114610441575b61043d8761043181890382610fd8565b604051918291826103bc565b0390f35b6000805294509192917f290decd9548b62a8d60345a988386fc84ba6bc95484008f6362f93160ef3e5635b83861061048857505050910190506104318261043d3880610421565b80548587015294820194810161046c565b60ff191685525050505090151560051b0190506104318261043d3880610421565b634e487b7160e01b82526022600452602482fd5b93607f16936103fd565b80fd5b50346102db5760203660031901126102db5760206104fa6004356118e2565b6040516001600160a01b039091168152f35b600435906001600160a01b03821682036102db57565b602435906001600160a01b03821682036102db57565b50346102db5760403660031901126102db5761055261050c565b60243561055e816117f8565b916001600160a01b0380841690821681146105d7576100169361058b913314908115610590575b50611870565b611dfb565b6001600160a01b031660009081526005602052604090206105d191506105ca9033905b9060018060a01b0316600052602052604060002090565b5460ff1690565b38610585565b60405162461bcd60e51b815260206004820152602160248201527f4552433732313a20617070726f76616c20746f2063757272656e74206f776e656044820152603960f91b6064820152608490fd5b50346102db5760003660031901126102db576020600854604051908152f35b60609060031901126102db576001600160a01b039060043582811681036102db579160243590811681036102db579060443590565b50346102db5761001661068c36610645565b9161069f61069a8433611aa7565b611974565b611c5e565b50346102db5760003660031901126102db57600e5460405160089190911c6001600160a01b03168152602090f35b50346102db5760003660031901126102db57600e805460ff19166002179055005b50346102db5760403660031901126102db5761070d61050c565b6024359061071a81611780565b82101561074e576001600160a01b031660009081526006602090815260408083209383529281529082902054915191825290f35b60405162461bcd60e51b815260206004820152602b60248201527f455243373231456e756d657261626c653a206f776e657220696e646578206f7560448201526a74206f6620626f756e647360a81b6064820152608490fd5b50346102db576100166107b936610645565b90604051926020840184811067ffffffffffffffff8211176107e2575b60405260008452611a0c565b6107ea610f84565b6107d6565b50346102db5760403660031901126102db57600080808060043561087d6024359161082b600160ff600e5416610824816122d5565b1415612459565b61084d61084661083a836117f8565b6001600160a01b031690565b33146124a5565b61086d8361086583600052600b602052604060002090565b5410156124e1565b600052600b602052604060002090565b610888828254611c1a565b905561089e61089982600c54611c1a565b600c55565b8181156108b8575b3390f1156108b057005b610016611ea7565b506108fc6108a6565b9181601f840112156102db5782359167ffffffffffffffff83116102db57602083818601950101116102db57565b50346102db5760803660031901126102db5767ffffffffffffffff6004358181116102db576109229036906004016108c1565b6024929192358281116102db5761093d9036906004016108c1565b9190926044359081116102db576109589036906004016108c1565b93909461097060018060a01b03600a541633146116e5565b61097d602047101561261e565b61098f600160ff19600e541617600e55565b6109bb61099b3061270b565b6109a6368786611025565b6020815191012090602081519101201461265b565b600f546109d0906001600160a01b031661083a565b92833b156102db57610a0a6801bc16d674ec80000092600097604051998a98899788966304512a2360e31b885260643595600489016126c8565b03925af18015610a76575b610a5d575b600e546040805160089290921c6001600160a01b031682523360208301527f1944debb24a9aafcf2708be964e412cdb73fc36d6ea24577fd8dcc05b93b4a4491a1005b80610a6a610a7092610f9b565b80610369565b38610a1a565b610a7e611ea7565b610a15565b50346102db5760203660031901126102db57600435600854811015610ad55760086000527ff3f7a9fe364faab93b216da50a3214154f22a0a2b415b23a84c8169e8b636ee30154604051908152602090f35b60405162461bcd60e51b815260206004820152602c60248201527f455243373231456e756d657261626c653a20676c6f62616c20696e646578206f60448201526b7574206f6620626f756e647360a01b6064820152608490fd5b50346102db5760203660031901126102db5760206104fa6004356117f8565b50346102db5760003660031901126102db57600a546010546001600160a01b0390811691168114610b825761001690611730565b60405162461bcd60e51b815260206004820152600c60248201526b616c726561647920646f6e6560a01b6044820152606490fd5b50346102db5760203660031901126102db576020610bd56004356125fa565b604051908152f35b50346102db5760203660031901126102db576020610bd5610bfc61050c565b611780565b50346102db576000806003193601126104d857600a546001600160a01b03811690610c2d3383146116e5565b6001600160a01b031916600a556040519082907f8be0079c531659141344cd1fd0a4f28419497f9722a3daafe3b4186f6b6457e08284a3f35b50346102db5760003660031901126102db576020600c54604051908152f35b5060203660031901126102db57600435600081815260026020526040902054610cb8906001600160a01b03161515612421565b60ff600e54166003811015610d0a576102db57610cdf90600052600b602052604060002090565b805490348201809211610cfd575b5561001661089934600c54611c51565b610d05611bea565b610ced565b634e487b7160e01b600052602160045260246000fd5b50346102db5760203660031901126102db57600435600052600b6020526020604060002054604051908152f35b50346102db5760003660031901126102db576010546040516001600160a01b039091168152602090f35b50346102db5760003660031901126102db57600a546040516001600160a01b039091168152602090f35b50346102db576000806003193601126104d8576040519080600190815480831c92808216928315610e59575b60209283861085146104ba5785885260208801949081156104995750600114610e005761043d8761043181890382610fd8565b600160005294509192917fb10e2d527612073b26eecdfd717e6a320cf44b4afac2b0732d9fcbe2b7fa0cf65b838610610e4857505050910190506104318261043d3880610421565b805485870152948201948101610e2c565b93607f1693610dcd565b50346102db5760403660031901126102db57610e7d61050c565b60243580151581036102db576001600160a01b03821691338314610f0b5781610ec8610ed99233600052600560205260406000209060018060a01b0316600052602052604060002090565b9060ff801983541691151516179055565b604051901515815233907f17307eab39ab6107e8899845ad3d59bd9653f200f220920489ca2b5937696c3190602090a3005b60405162461bcd60e51b815260206004820152601960248201527f4552433732313a20617070726f766520746f2063616c6c6572000000000000006044820152606490fd5b50346102db5760203660031901126102db5761043d610f70600435612a6f565b604051918291602083526020830190610397565b50634e487b7160e01b600052604160045260246000fd5b67ffffffffffffffff8111610faf57604052565b610fb7610f84565b604052565b6040810190811067ffffffffffffffff821117610faf57604052565b90601f8019910116810190811067ffffffffffffffff821117610faf57604052565b60209067ffffffffffffffff8111611018575b601f01601f19160190565b611020610f84565b61100d565b92919261103182610ffa565b9161103f6040519384610fd8565b8294818452818301116102db578281602093846000960137010152565b50346102db5760803660031901126102db5761107661050c565b61107e610522565b6064359167ffffffffffffffff83116102db57366023840112156102db576110b3610016933690602481600401359101611025565b9160443591611a0c565b50346102db5760203660031901126102db576004356000818152600260205260409020546001600160a01b031615156110f590612421565b6110fe816127c7565b604051706672656e20706f6f6c207368617265202360781b6020820152919082906031820161112c91612746565b0391601f199283810182526111419082610fd8565b61115582600052600b602052604060002090565b54670de0b6b3a7640000900461116a90614335565b91611174816125fa565b61117d90614335565b92604051938491602083016111c5906026907f74686973206672656e20706f6f6c207368617265206861732061206465706f73815265034ba1037b3160d51b60208201520190565b6111ce91612746565b7f20457468207769746820636c61696d61626c652062616c616e6365206f6620008152601f016111fd91612746565b6257656960e81b81526003010384810184526112199084610fd8565b611222816129d3565b61122b906128ea565b90611235816127c7565b9061124a81600052600b602052604060002090565b54670de0b6b3a7640000900461125f90614335565b90611269906125fa565b61127290614335565b604051683d913730b6b2911d1160b91b60208201529586959193916029870161129a91612746565b71111610113232b9b1b934b83a34b7b7111d1160711b81526012016112be91612746565b7f222c202265787465726e616c5f75726c223a2268747470733a2f2f7374616b65815273636f6e616d69676f732e636f6d2f746f6b656e2f60601b602082015260340161130a91612746565b7f222c202261747472696275746573223a205b7b2274726169745f74797065223a81527f20226465706f736974222c202276616c7565223a20224574683a2000000000006020820152603b0161135f91612746565b7f227d2c7b2274726169745f74797065223a2022636c61696d61626c65222c202281526d03b30b63ab2911d10112bb2b49d160951b6020820152602e016113a591612746565b6e113eae96101134b6b0b3b2911d101160891b8152600f017f646174613a696d6167652f7376672b786d6c3b6261736536342c0000000000008152601a016113ec91612746565b61227d60f01b81526002010382810182526114079082610fd8565b611410906128ea565b6040517f646174613a6170706c69636174696f6e2f6a736f6e3b6261736536342c000000602082015291908290603d820161144a91612746565b03908101825261145a9082610fd8565b60405161043d8192826103bc565b50346102db5760203660031901126102db576020610bd547600435612595565b50346102db576000806003193601126104d8576114b060018060a01b03600a541633146116e5565b80808080478181156114d7575b3390f1156114ca57604051f35b6114d2611ea7565b604051f35b506108fc6114bd565b50346102db576000806003193601126104d85760ff600e5416611502816122d5565b61150f6001809214612524565b4781805b61151e575b83604051f35b600854811161157e578084808080611538611561966117f8565b6115428887612595565b9082908215611574575b6001600160a01b031690f115611567576122df565b82611513565b61156f611ea7565b6122df565b6108fc915061154c565b611518565b50346102db5760403660031901126102db57602060ff6115d56115a461050c565b6115ac610522565b6001600160a01b0391821660009081526005865260408082209290931681526020919091522090565b54166040519015158152f35b50346102db5760203660031901126102db576115fb61050c565b600a546001600160a01b039061161490821633146116e5565b8116156116245761001690611730565b60405162461bcd60e51b815260206004820152602660248201527f4f776e61626c653a206e6577206f776e657220697320746865207a65726f206160448201526564647265737360d01b6064820152608490fd5b5060203660031901126102db5761168d61050c565b60ff600e54166003811015610d0a576102db57610016906116b76116b2600d546122df565b600d55565b600d5490346116d083600052600b602052604060002090565b556116e061089934600c54611c51565b6122fb565b156116ec57565b606460405162461bcd60e51b815260206004820152602060248201527f4f776e61626c653a2063616c6c6572206973206e6f7420746865206f776e65726044820152fd5b600a549060018060a01b0380911691826bffffffffffffffffffffffff60a01b821617600a55167f8be0079c531659141344cd1fd0a4f28419497f9722a3daafe3b4186f6b6457e06000604051a3565b6001600160a01b031680156117a057600052600360205260406000205490565b60405162461bcd60e51b815260206004820152602a60248201527f4552433732313a2062616c616e636520717565727920666f7220746865207a65604482015269726f206164647265737360b01b6064820152608490fd5b6000908152600260205260409020546001600160a01b031680156118195790565b60405162461bcd60e51b815260206004820152602960248201527f4552433732313a206f776e657220717565727920666f72206e6f6e657869737460448201526832b73a103a37b5b2b760b91b6064820152608490fd5b1561187757565b60405162461bcd60e51b815260206004820152603860248201527f4552433732313a20617070726f76652063616c6c6572206973206e6f74206f7760448201527f6e6572206e6f7220617070726f76656420666f7220616c6c00000000000000006064820152608490fd5b6000818152600260205260409020546001600160a01b03161561191a576000908152600460205260409020546001600160a01b031690565b60405162461bcd60e51b815260206004820152602c60248201527f4552433732313a20617070726f76656420717565727920666f72206e6f6e657860448201526b34b9ba32b73a103a37b5b2b760a11b6064820152608490fd5b1561197b57565b60405162461bcd60e51b815260206004820152603160248201527f4552433732313a207472616e736665722063616c6c6572206973206e6f74206f6044820152701ddb995c881b9bdc88185c1c1c9bdd9959607a1b6064820152608490fd5b604051906020820182811067ffffffffffffffff8211176119ff575b60405260008252565b611a07610f84565b6119f6565b90611a30939291611a2061069a8433611aa7565b611a2b838383611c5e565b611ee4565b15611a3757565b60405162461bcd60e51b815280611a5060048201611a54565b0390fd5b60809060208152603260208201527f4552433732313a207472616e7366657220746f206e6f6e20455243373231526560408201527131b2b4bb32b91034b6b83632b6b2b73a32b960711b60608201520190565b6000828152600260205260409020546001600160a01b031615611b3857611acd826117f8565b6001600160a01b038281168282168114949091908515611b20575b5050508215611af657505090565b6001600160a01b0316600090815260056020526040902060ff9250611b1b91906105b3565b541690565b611b2d91929395506118e2565b161491388080611ae8565b60405162461bcd60e51b815260206004820152602c60248201527f4552433732313a206f70657261746f7220717565727920666f72206e6f6e657860448201526b34b9ba32b73a103a37b5b2b760a11b6064820152608490fd5b15611b9957565b60405162461bcd60e51b8152602060048201526024808201527f4552433732313a207472616e7366657220746f20746865207a65726f206164646044820152637265737360e01b6064820152608490fd5b50634e487b7160e01b600052601160045260246000fd5b600019810191908211611c1057565b611c18611bea565b565b91908203918211611c1057565b9060018201809211611c1057565b9060028201809211611c1057565b9060208201809211611c1057565b91908201809211611c1057565b90611c68836117f8565b6001600160a01b038381169290918216839003611d4e57611cc2611d2592821694611c94861515611b92565b611c9f878483611fe9565b611ca887611da5565b6001600160a01b0316600090815260036020526040902090565b611ccc8154611c01565b90556001600160a01b0381166000908152600360205260409020611cf08154611c27565b9055611d06856000526002602052604060002090565b80546001600160a01b0319166001600160a01b03909216919091179055565b7fddf252ad1be2c89b69c2b068fc378daa952ba7f163c4a11628f55a4df523b3ef6000604051a4565b60405162461bcd60e51b815260206004820152602960248201527f4552433732313a207472616e73666572206f6620746f6b656e2074686174206960448201526839903737ba1037bbb760b91b6064820152608490fd5b600081815260046020526040812080546001600160a01b03191690556001600160a01b03611dd2836117f8565b167f8c5be1e5ebec7d5bd14f71427d1e84f3dd0314c0f7b2291e5b200ac8c7c3b92582604051a4565b600082815260046020526040902080546001600160a01b0319166001600160a01b0383161790556001600160a01b0380611e34846117f8565b169116907f8c5be1e5ebec7d5bd14f71427d1e84f3dd0314c0f7b2291e5b200ac8c7c3b9256000604051a4565b908160209103126102db57516103cd816102c9565b6001600160a01b0391821681529116602082015260408101919091526080606082018190526103cd92910190610397565b506040513d6000823e3d90fd5b3d15611edf573d90611ec582610ffa565b91611ed36040519384610fd8565b82523d6000602084013e565b606090565b92909190823b15611f9e57611f17926020926000604051809681958294630a85bd0160e11b9a8b85523360048601611e76565b03926001600160a01b03165af160009181611f6e575b50611f6057611f3a611eb4565b80519081611f5b5760405162461bcd60e51b815280611a5060048201611a54565b602001fd5b6001600160e01b0319161490565b611f9091925060203d8111611f97575b611f888183610fd8565b810190611e61565b9038611f2d565b503d611f7e565b50505050600190565b50634e487b7160e01b600052603260045260246000fd5b90611fc881612146565b6001600160a01b038216611fe057611c1891506121bf565b611c189161210e565b9091906001600160a01b038082169182612023575061200783612146565b83168061201a575050611c1891506121bf565b03611fe0575050565b8185168303612033575b50612007565b6120a761203f82611780565b6000198101908111612101575b612098600093878552600760205260408520548381036120ae575b508461207d896000526007602052604060002090565b556001600160a01b0316600090815260066020526040902090565b90600052602052604060002090565b553861202d565b8786526006602052604086208487526020526120fa6040872054806120e9846120988760018060a01b03166000526006602052604060002090565b556000526007602052604060002090565b5538612067565b612109611bea565b61204c565b60409061211a81611780565b9260009160018060a01b0316825260066020528282208483526020528083832055815260076020522055565b60085481600052600960205280604060002055680100000000000000008110156121b2575b60018101806008558110156121a5575b60086000527ff3f7a9fe364faab93b216da50a3214154f22a0a2b415b23a84c8169e8b636ee30155565b6121ad611fa7565b61217b565b6121ba610f84565b61216b565b6008805460001992908381018181116122c8575b61226f600093849281845260096020528460408520549110156122bb575b86845261225e7ff3f7a9fe364faab93b216da50a3214154f22a0a2b415b23a84c8169e8b636ee29586810154908310156122ae575b88865280837ff3f7a9fe364faab93b216da50a3214154f22a0a2b415b23a84c8169e8b636ee301556000526009602052604060002090565b556000526009602052604060002090565b55825493841561229a578401938085101561228d575b838352015555565b612295611fa7565b612285565b634e487b7160e01b83526031600452602483fd5b6122b6611fa7565b612226565b6122c3611fa7565b6121f1565b6122d0611bea565b6121d3565b60031115610d0a57565b60019060001981146122ef570190565b6122f7611bea565b0190565b6001600160a01b0381169081156123dd576000838152600260205260409020546001600160a01b031661239857806123368461236e93611fbe565b6001600160a01b03811660009081526003602052604090206123588154611c27565b9055611d06846000526002602052604060002090565b60007fddf252ad1be2c89b69c2b068fc378daa952ba7f163c4a11628f55a4df523b3ef81604051a4565b60405162461bcd60e51b815260206004820152601c60248201527f4552433732313a20746f6b656e20616c7265616479206d696e746564000000006044820152606490fd5b606460405162461bcd60e51b815260206004820152602060248201527f4552433732313a206d696e7420746f20746865207a65726f20616464726573736044820152fd5b1561242857565b60405162461bcd60e51b81526020600482015260096024820152681b9bdd08195e1a5cdd60ba1b6044820152606490fd5b1561246057565b60405162461bcd60e51b815260206004820152601b60248201527f63616e6e6f74207769746864726177206f6e6365207374616b656400000000006044820152606490fd5b156124ac57565b60405162461bcd60e51b815260206004820152600d60248201526c3737ba103a34329037bbb732b960991b6044820152606490fd5b156124e857565b60405162461bcd60e51b81526020600482015260146024820152731b9bdd08195b9bdd59da0819195c1bdcda5d195960621b6044820152606490fd5b1561252b57565b60405162461bcd60e51b815260206004820152601c60248201527f757365207769746864726177207768656e206e6f74207374616b6564000000006044820152606490fd5b6001600160fe1b038111600116612588575b60021b90565b612590611bea565b612582565b600052600b60205260406000205490600019918183048111821515166125ed575b600c549182156125d75702049081019081116125cf5790565b6103cd611bea565b634e487b7160e01b600052601260045260246000fd5b6125f5611bea565b6125b6565b60ff600e54166003811015610d0a576126135750600090565b6103cd904790612595565b1561262557565b60405162461bcd60e51b815260206004820152600e60248201526d0dcdee840cadcdeeaced040cae8d60931b6044820152606490fd5b1561266257565b60405162461bcd60e51b815260206004820152601e60248201527f7769746864726177616c2063726564656e7469616c206d69736d6174636800006044820152606490fd5b908060209392818452848401376000828201840152601f01601f1916010190565b9796959192612706946126ea6126f8936060989660808d5260808d01916126a7565b918a830360208c01526126a7565b9187830360408901526126a7565b930152565b6001600160a01b0316600160f81b8101908110612739575b604051906020820152602081526103cd81610fbc565b612741611bea565b612723565b906122f760209282815194859201610374565b6040519061276682610fbc565b60018252600360fc1b6020830152565b9061278082610ffa565b61278d6040519182610fd8565b828152809261279e601f1991610ffa565b0190602036910137565b9060209180518210156127ba57010190565b6127c2611fa7565b010190565b8015612863576000818181805b61284b57506127e281612776565b935b6127ee5750505090565b600019810190811161283e575b8091600a9161282860308484068101809111612831575b60f81b6001600160f81b031916861a91876127a8565b530490816127e4565b612839611bea565b612812565b612846611bea565b6127fb565b9150612858600a916122df565b9104808492916127d4565b506103cd612759565b604051906060820182811067ffffffffffffffff8211176128dd575b604052604082527f6768696a6b6c6d6e6f707172737475767778797a303132333435363738392b2f6040837f4142434445464748494a4b4c4d4e4f505152535455565758595a61626364656660208201520152565b6128e5610f84565b612888565b8051156129ca576128f961286c565b6129156129106129098451611c35565b6003900490565b612570565b9161292761292284611c43565b612776565b92835280815182019060208501935b8282106129785750505060039051068060011461296757600214612958575090565b603d60f81b6000199091015290565b50613d3d60f01b6001199091015290565b9091936004906003809401938451600190603f9082828260121c16880101518553828282600c1c16880101518386015382828260061c1688010151600286015316850101519082015301939190612936565b506103cd6119da565b6129dc90612a6f565b6103cd606760405180937f3c7376672077696474683d2234303022206865696768743d223430302220786d60208301527f6c6e733d22687474703a2f2f7777772e77332e6f72672f323030302f737667226040830152601f60f91b6060830152612a50815180926020606186019101610374565b8101651e17b9bb339f60d11b6061820152036047810184520182610fd8565b612a8381600052600b602052604060002090565b54670de0b6b3a76400009004612a9890614335565b90612aa2906125fa565b612aab90614335565b604080517f3c7376672076696577426f783d222d313030202d31303020313030302031303060208201526218111f60e91b9181019190915291829190604383017f3c7265637420783d222d3130302220793d222d313030222077696474683d223181527f30303022206865696768743d2231303030222069643d227376675f312220666960208201527f6c6c3d222366666622207374726f6b652d77696474683d223322207374726f6b60408201527f653d2223303030222f3e3c7061746820636c69702d72756c653d226576656e6f60608201527f64642220643d224d31343420393563302d342d322d372d342d31302d332d332d60808201527f362d342d31302d34732d3720312d31302034632d3220332d3420362d3420313060a08201527f613134203134203020302030203134203134203134203134203020302030203160c08201527f342d31347a222066696c6c3d2223653931653233222066696c6c2d72756c653d60e08201526a1132bb32b737b23211179f60a91b61010082015261010b017f3c7061746820636c69702d72756c653d226576656e6f64642220643d224d333481527f39203837632d332d332d362d342d31302d34732d3720312d31302034632d322060208201527f332d3420362d342031307332203720342031306131342031342030203020302060408201527f3230203063322d3320342d3620342d3130732d322d372d342d31307a2220666960608201527f6c6c3d2223303262326537222066696c6c2d72756c653d226576656e6f646422608082015261179f60f11b60a082015260a2017f3c7061746820636c69702d72756c653d226576656e6f64642220643d224d343981527f39203836632d332d322d362d342d31302d34732d3720322d31302034632d322060208201527f332d3420372d342031306131342031342030203020302031342031346334203060408201527f20372d312031302d3420322d3220342d3620342d313020302d332d322d372d3460608201527f2d31305a222066696c6c3d2223666162633136222066696c6c2d72756c653d2260808201526932bb32b737b23211179f60b11b60a082015260aa017f3c7061746820636c69702d72756c653d226576656e6f64642220643d224d363781527f38203930632d332d332d362d352d31302d35732d3720322d31302035632d332060208201527f322d3420362d342039203020342031203820342031302033203320362035203160408201527f30203573372d322031302d3563322d3220342d3620342d313020302d332d322d60608201527f372d342d395a222066696c6c3d2223303262326537222066696c6c2d72756c6560808201526b1e9132bb32b737b23211179f60a11b60a082015260ac017f3c7061746820636c69702d72756c653d226576656e6f64642220643d224d343381527f33203436762d38632d31352d352d33302d332d343420352d3420322d3820372d60208201527f31322031346c2d38203231632d3220332d3320382d332031346c2d322031346360408201527f2d3220362d332031352d332032392031372d322033302d342034312d3720313660608201527f2d342032382d31312033362d31392d3720302d313620322d323620356c2d323560808201527f2038632d3520302d392d322d31302d362d322d342d322d382d312d31326c392d60a08201527f313263342d3420392d352031352d346c322d3320332d322037203120362d312060c08201527f31312d3563352d3120392d332031322d36682d35326c2d342d32762d3563302d60e08201527f3420332d3720372d382031302d352032332d382034312d31315a6d38203238686101008201527f352d355a6d35203020322031633420312036203120382d31682d31305a2220666101208201527334b63616b93ab6329e9132bb32b737b23211179f60611b610140820152610154016000805160206143f983398151915281527f224d34343120373268356d302030203220316d3020306334203120362031203860208201527f2d316d302030682d31306d302030682d356d302030682d35326d3020302d342d60408201527f32762d3563302d3420332d3720372d382031302d352032332d382034312d313160608201527f6d302030762d386d302030632d31352d352d33302d332d343420352d3420322d60808201527f3820372d31322031346d3020302d382032316d302030632d3220332d3320382d60a08201527f332031346c2d32203134632d3220362d332031352d332032392031372d32203360c08201527f302d342034312d372031362d342032382d31312033362d31392d3720302d313660e08201527f20322d323620356d3020302d323520386d302030632d3520302d392d322d31306101008201527f2d362d322d342d322d382d312d31326c392d313263342d3420392d352031352d6101208201527f346c322d3320332d326d302030203720316d30203020362d312031312d3563356101408201527f2d3120392d332031322d36222066696c6c3d226e6f6e6522207374726f6b653d6101608201527f222330303022207374726f6b652d77696474683d2231322e3222207374726f6b6101808201527f652d6c696e656361703d22726f756e6422207374726f6b652d6c696e656a6f696101a08201526a371e913937bab73211179f60a91b6101c08201526101cb017f3c7061746820636c69702d72756c653d226576656e6f64642220643d226d363281527f3820343620322d3920332d3920332d3620342d3563322d3520332d3920312d3160208201527f336c2d31352033352d31342033362d35203134632d3320352d3720372d31332060408201527f342d31342d362d32362d31352d33332d32366c2d382d3136632d332d352d362d60608201527f372d382d352d3720382d31322031392d31342033356c2d34203431633220302060808201527f3420312034203476326c322d3163322d3320332d3820342d31346c332d31366360a08201527f302d3620312d313020332d313320312d3320342d3420382d347339203220313460c08201527f20356c313320313020313220313363362035203130203920313520313120352060e08201527f302037203020372d3220302d313120322d323320352d33366c31312d33355a2261010082015275103334b63616b93ab6329e9132bb32b737b23211179f60511b610120820152610136016000805160206143f983398151915281527f226d36333020333720332d3920332d366d30203020342d356d30203063322d3560208201527f20332d3920312d31336c2d31352033352d31342033366d3020302d352031346d60408201527f302030632d3320352d3720372d313320342d31342d362d32362d31352d33332d60608201527f32366d3020302d382d31366d302030632d332d352d362d372d382d352d37203860808201527f2d31322031392d31342033356d3020302d342034316d3020306332203020342060a08201527f31203420346d30203076326d30203020322d3163322d3320332d3820342d313460c08201527f6d30203020332d31366d30203063302d3620312d313020332d313320312d332060e08201527f342d3420382d347339203220313420356c31332031306d3020302031322031336101008201527f6d302030633620352031302039203135203131203520302037203020372d32206101208201527f302d313120322d323320352d333661363837203638372030203020312031332d6101408201527f3434222066696c6c3d226e6f6e6522207374726f6b653d2223303030222073746101608201527f726f6b652d77696474683d2231322e3222207374726f6b652d6c696e656361706101808201527f3d22726f756e6422207374726f6b652d6c696e656a6f696e3d22726f756e64226101a082015261179f60f11b6101c08201526101c2017f3c7061746820636c69702d72756c653d226576656e6f64642220643d224d373881527f36203338762d38682d386c2d3331203231632d323220392d33332031392d333160208201527f203239203220342035203720313020386c313620312031392d3220313720312060408201527f3320312032203476366c2d332034632d3620362d31332031302d32322031342d60608201527f3820342d313620362d323420382d3320332d3520372d3520313020342d34203160808201527f312d372031392d31316c32322d3863382d332031342d362031382d313020362d60a08201527f3520392d31312031302d31382d362d342d31362d362d32382d36682d3331632d60c08201527f322d312d332d332d332d366c312d376331362d31332033312d32312034362d3260e08201527f3620322d3120332d3320332d355a222066696c6c2d72756c653d226576656e6f61010082015264323211179f60d91b610120820152610125016000805160206143f983398151915281527f224d373836203330682d386d3020302d3331203231632d323220392d3333203160208201527f392d3331203239203220342035203720313020386d302030203136203120313960408201527f2d3220313720316d302030203320316d302030203220346d30203076366d302060608201527f302d3320356d302030632d3620352d313320392d32322031332d3820342d313660808201527f20362d323420382d3320332d3520372d3520313020342d342031312d3720313960a08201527f2d31316d3020302032322d386d30203063382d332031342d362031382d31302060c08201527f362d3520392d31312031302d31382d362d342d31362d362d32382d366d30203060e08201527f682d33316d302030632d322d312d332d332d332d366d30203020312d376d30206101008201527f306331362d31332033312d32312034362d323620322d3120332d3320332d356d6101208201527f302030762d38222066696c6c3d226e6f6e6522207374726f6b653d22233030306101408201527f22207374726f6b652d77696474683d2231322e3222207374726f6b652d6c696e6101608201527f656361703d22726f756e6422207374726f6b652d6c696e656a6f696e3d22726f610180820152653ab73211179f60d11b6101a08201526101a6017f3c7061746820636c69702d72756c653d226576656e6f64642220643d224d323481527f35203332682d31376c2d3138203130632d3720322d313420302d31382d356c2d60208201527f332031312d31332035382d3132203537632d3320372d3220313520322032376c60408201527f312d323320332d323263322d313620382d32392031372d333720342d3320313160608201527f2d342032312d326c32322038633139203720333520392034372035762d35632d60808201527f3820302d31362d322d32362d356c2d32362d392d332d352d322d3563322d352060a08201527f372d392031332d31336c31372d313063362d342031302d382031322d3131203260c08201527f2d3520312d31302d332d31362d332d342d372d362d31342d387a6d2d3320323460e08201527f2d31342031332d3138203133632d3620332d313020342d3133203320302d37206101008201527f302d313220322d313620322d3520352d392031302d31326c31382d3863392d346101208201527f2031352d342031382d3220322031203120342d3320397a222066696c6c2d72756101408201526d36329e9132bb32b737b23211179f60911b61016082015261016e016000805160206143f983398151915281527f226d3232382033322d3138203130632d3720322d313420302d31382d356d302060208201527f302d332031316d3020302d31332035382d3132203537632d3320372d3220313560408201527f20322032376d30203020312d32336d30203020332d323263322d313620382d3260608201527f392031372d333720342d332031312d342032312d326c3232203863313920372060808201527f3335203920343720356d302030762d356d302030632d3820302d31362d322d3260a08201527f362d356d3020302d32362d392d332d356d3020302d322d3563322d3520372d3960c08201527f2031332d31336d3020302031372d31306d30203063362d342031302d3820313260e08201527f2d313120322d3520312d31302d332d31362d332d342d372d362d31342d38682d6101008201527f3137222066696c6c3d226e6f6e6522207374726f6b653d2223303030222073746101208201527f726f6b652d77696474683d2231322e3222207374726f6b652d6c696e656361706101408201527f3d22726f756e6422207374726f6b652d6c696e656a6f696e3d22726f756e642261016082015261179f60f11b610180820152610182017f3c7061746820636c69702d72756c653d226576656e6f64642220643d226d363181527f2032312032302d356332203020342d3220352d3420322d3320312d342d322d3460208201527f2d392d332d31382d322d323820302d3820332d313620372d32312031332d352060408201527f332d3920392d31312031396c2d332031332d342031332d362038632d3220332d60608201527f3320372d322031302032203220332034203320386c312032342d332032332d3360808201527f2032352d3120323520372d343720392d343763302d3320322d3520362d38203360a08201527f2d3120362d332031302d336c31352d342031352d362031352d3620342d312d3460c08201527f392034632d3320302d352d312d382d332d322d332d332d352d332d3820342d3160e08201527f3420392d32342031362d33317a222066696c6c2d72756c653d226576656e6f64610100820152633211179f60e11b610120820152610124016000805160206143f983398151915281527f226d38372036372d353020346d3020302d372d33632d322d332d332d352d332d60208201527f3820342d313420392d32342031362d33316d3020302031382d386d302030203260408201527f302d356332203020342d3220352d3420322d3320312d342d322d342d392d332d60608201527f31382d322d323820302d3820332d313620372d32312031332d3520332d39203960808201527f2d31312031396d3020302d332031336d3020302d342031336d3020302d36203860a08201527f6d302030632d3220332d3320372d322031302032203220332034203320386c3160c08201527f2032342d332032336d3020302d332032356d3020302d312032356d302030203760e08201527f2d34376d30203020392d343763302d3320322d3520362d3820332d3120362d336101008201527f2031302d336c31352d346d3020302031352d366d3020302031352d366d3020306101208201527f20342d316d31322d312d31322031222066696c6c3d226e6f6e6522207374726f6101408201527f6b653d222330303022207374726f6b652d77696474683d2231322e32222073746101608201527f726f6b652d6c696e656361703d22726f756e6422207374726f6b652d6c696e656101808201526d3537b4b71e913937bab73211179f60911b6101a08201526101ae017f3c7465787420666f6e742d73697a653d223132302220666f6e742d776569676881527f743d22626f6c642220783d223132302220793d22333530222066696c6c3d226260208201527f6c756522207374726f6b653d222330303022207374726f6b652d77696474683d60408201527f22312220666f6e742d66616d696c793d2273616e732d7365726966223e0000006060820152607d01672232b837b9b4ba1d60c11b8152600801661e17ba32bc3a1f60c91b81526007017f3c7465787420666f6e742d73697a653d2238302220666f6e742d77656967687481527f3d22626f6c642220783d223235302220793d22343630222066696c6c3d22626c60208201527f756522207374726f6b653d222330303022207374726f6b652d77696474683d2260408201527f312220666f6e742d66616d696c793d2273616e732d7365726966223e000000006060820152607c0161417e91612746565b630408ae8d60e31b8152600401661e17ba32bc3a1f60c91b81526007017f3c7465787420666f6e742d73697a653d223132302220666f6e742d776569676881527f743d22626f6c642220783d2238302220793d22363230222066696c6c3d22677260208201527f65656e22207374726f6b653d222330303022207374726f6b652d77696474683d60408201527f22312220666f6e742d66616d696c793d2273616e732d7365726966223e0000006060820152607d016921b630b4b6b0b136329d60b11b8152600a01661e17ba32bc3a1f60c91b81526007017f3c7465787420666f6e742d73697a653d2238302220666f6e742d77656967687481527f3d22626f6c642220783d223235302220793d22373330222066696c6c3d22677260208201527f65656e22207374726f6b653d222330303022207374726f6b652d77696474683d60408201527f22312220666f6e742d66616d696c793d2273616e732d7365726966223e0000006060820152607d016142f791612746565b632057656960e01b8152600401661e17ba32bc3a1f60c91b8152600701651e17b9bb339f60d11b815260060103601f19810182526103cd9082610fd8565b8015612863578060008281935b6143e457508161435184612776565b93905b61435e5750505090565b61436790611c01565b91826143b5600a928381049384600019048111851515166143d7575b840281039081116143ca575b60ff8091166030019081116143bd575b60f81b6001600160f81b031916841a91866127a8565b539182614354565b6143c5611bea565b61439f565b6143d2611bea565b61438f565b6143df611bea565b614383565b926143f0600a916122df565b93048061434256fe3c70617468207374726f6b652d6d697465726c696d69743d22322e362220643da2646970667358221220365384552ace7cf1a7fa9e32ba305e8bb2eb66e838dbaa7684f3169728bb97ab64736f6c63430008100033",
          "opcodes": "PUSH1 0x80 CALLVALUE PUSH3 0x3F0 JUMPI PUSH1 0x1 PUSH1 0x1 PUSH1 0x40 SHL SUB SWAP1 PUSH1 0x1F NOT SWAP1 PUSH1 0x1F SWAP1 PUSH3 0x4879 CODESIZE DUP2 SWAP1 SUB DUP4 DUP2 ADD DUP6 AND DUP4 ADD SWAP2 SWAP1 DUP7 DUP4 GT DUP5 DUP5 LT OR PUSH3 0x3DA JUMPI DUP1 DUP5 SWAP3 PUSH1 0x40 SWAP5 DUP6 MSTORE DUP4 CODECOPY DUP2 ADD SUB SLT PUSH3 0x3F0 JUMPI PUSH3 0x52 DUP2 PUSH3 0x415 JUMP JUMPDEST SWAP4 PUSH3 0x62 PUSH1 0x20 DUP1 SWAP4 ADD PUSH3 0x415 JUMP JUMPDEST SWAP3 PUSH3 0x6D PUSH3 0x3F5 JUMP JUMPDEST SWAP3 PUSH1 0x12 DUP5 MSTORE PUSH18 0x7374616B696E6720636F6E20616D69676F73 PUSH1 0x70 SHL DUP2 DUP6 ADD MSTORE PUSH3 0x96 PUSH3 0x3F5 JUMP JUMPDEST SWAP1 PUSH1 0x5 DUP3 MSTORE PUSH5 0x4652454E53 PUSH1 0xD8 SHL DUP2 DUP4 ADD MSTORE DUP5 MLOAD SWAP7 DUP5 DUP9 GT PUSH3 0x3DA JUMPI PUSH1 0x0 SWAP8 DUP9 SLOAD SWAP7 PUSH1 0x1 SWAP8 DUP9 DUP2 DUP2 SHR SWAP2 AND DUP1 ISZERO PUSH3 0x3CF JUMPI JUMPDEST DUP6 DUP3 LT EQ PUSH3 0x3BB JUMPI SWAP1 DUP2 DUP8 DUP5 SWAP4 GT PUSH3 0x368 JUMPI JUMPDEST POP DUP5 SWAP1 DUP8 DUP4 GT PUSH1 0x1 EQ PUSH3 0x307 JUMPI DUP12 SWAP3 PUSH3 0x2FB JUMPI JUMPDEST POP POP PUSH1 0x0 NOT PUSH1 0x3 DUP4 SWAP1 SHL SHR NOT AND SWAP1 DUP8 SHL OR DUP9 SSTORE JUMPDEST DUP3 MLOAD SWAP5 DUP6 GT PUSH3 0x2E7 JUMPI DUP6 SLOAD DUP7 DUP2 DUP2 SHR SWAP2 AND DUP1 ISZERO PUSH3 0x2DC JUMPI JUMPDEST DUP4 DUP3 LT EQ PUSH3 0x2C8 JUMPI SWAP1 DUP2 DUP6 DUP8 SWAP7 SWAP6 SWAP5 SWAP4 GT PUSH3 0x26F JUMPI JUMPDEST POP DUP2 SWAP4 DUP6 GT PUSH1 0x1 EQ PUSH3 0x20A JUMPI POP POP DUP7 SWAP3 PUSH3 0x1FE JUMPI JUMPDEST POP POP PUSH1 0x0 NOT PUSH1 0x3 DUP4 SWAP1 SHL SHR NOT AND SWAP1 DUP3 SHL OR SWAP1 SSTORE JUMPDEST PUSH1 0xA DUP1 SLOAD PUSH1 0x1 PUSH1 0x1 PUSH1 0xA0 SHL SUB NOT DUP1 DUP3 AND CALLER SWAP1 DUP2 OR SWAP1 SWAP4 SSTORE PUSH1 0x40 MLOAD SWAP6 SWAP1 SWAP5 PUSH1 0x1 PUSH1 0x1 PUSH1 0xA0 SHL SUB SWAP5 SWAP4 DUP6 SWAP4 SWAP1 SWAP2 SWAP1 DUP5 AND SWAP1 PUSH32 0x8BE0079C531659141344CD1FD0A4F28419497F9722A3DAAFE3B4186F6B6457E0 SWAP1 DUP10 LOG3 PUSH1 0xE SLOAD SWAP1 PUSH2 0x100 PUSH1 0x1 PUSH1 0xA8 SHL SUB SWAP1 PUSH1 0x8 SHL AND SWAP1 PUSH1 0x1 DUP1 PUSH1 0xA8 SHL SUB NOT AND OR DUP1 PUSH1 0xE SSTORE PUSH1 0x8 SHR AND DUP4 PUSH1 0xF SLOAD AND OR PUSH1 0xF SSTORE AND SWAP1 PUSH1 0x10 SLOAD AND OR PUSH1 0x10 SSTORE PUSH2 0x444E SWAP1 DUP2 PUSH3 0x42B DUP3 CODECOPY RETURN JUMPDEST ADD MLOAD SWAP1 POP CODESIZE DUP1 PUSH3 0x152 JUMP JUMPDEST DUP7 SWAP6 SWAP4 SWAP3 SWAP2 SWAP4 AND DUP6 DUP10 MSTORE DUP4 DUP10 KECCAK256 SWAP4 DUP10 SWAP1 JUMPDEST DUP3 DUP3 LT PUSH3 0x255 JUMPI POP POP DUP5 GT PUSH3 0x23B JUMPI JUMPDEST POP POP POP DUP2 SHL ADD SWAP1 SSTORE PUSH3 0x166 JUMP JUMPDEST ADD MLOAD PUSH1 0x0 NOT PUSH1 0xF8 DUP5 PUSH1 0x3 SHL AND SHR NOT AND SWAP1 SSTORE CODESIZE DUP1 DUP1 PUSH3 0x22D JUMP JUMPDEST DUP5 DUP5 ADD MLOAD DUP7 SSTORE DUP9 SWAP8 SWAP1 SWAP6 ADD SWAP5 SWAP4 DUP5 ADD SWAP4 SWAP1 DUP2 ADD SWAP1 PUSH3 0x21B JUMP JUMPDEST SWAP1 SWAP2 SWAP3 SWAP4 SWAP5 POP DUP7 DUP10 MSTORE DUP3 DUP10 KECCAK256 DUP6 DUP1 DUP9 ADD PUSH1 0x5 SHR DUP3 ADD SWAP3 DUP6 DUP10 LT PUSH3 0x2BE JUMPI JUMPDEST SWAP2 DUP9 SWAP8 DUP11 SWAP3 SWAP8 SWAP7 SWAP6 SWAP5 SWAP4 ADD PUSH1 0x5 SHR ADD SWAP2 JUMPDEST DUP3 DUP2 LT PUSH3 0x2AF JUMPI POP POP PUSH3 0x13B JUMP JUMPDEST DUP12 DUP2 SSTORE DUP9 SWAP8 POP DUP10 SWAP2 ADD PUSH3 0x29F JUMP JUMPDEST SWAP3 POP DUP2 SWAP3 PUSH3 0x28E JUMP JUMPDEST PUSH4 0x4E487B71 PUSH1 0xE0 SHL DUP10 MSTORE PUSH1 0x22 PUSH1 0x4 MSTORE PUSH1 0x24 DUP10 REVERT JUMPDEST SWAP1 PUSH1 0x7F AND SWAP1 PUSH3 0x123 JUMP JUMPDEST PUSH4 0x4E487B71 PUSH1 0xE0 SHL DUP9 MSTORE PUSH1 0x41 PUSH1 0x4 MSTORE PUSH1 0x24 DUP9 REVERT JUMPDEST ADD MLOAD SWAP1 POP CODESIZE DUP1 PUSH3 0xF5 JUMP JUMPDEST SWAP1 DUP5 DUP11 SWAP5 AND SWAP2 DUP13 DUP1 MSTORE DUP7 DUP14 KECCAK256 SWAP3 DUP14 JUMPDEST DUP9 DUP3 DUP3 LT PUSH3 0x351 JUMPI POP POP DUP5 GT PUSH3 0x337 JUMPI JUMPDEST POP POP POP DUP2 SHL ADD DUP9 SSTORE PUSH3 0x109 JUMP JUMPDEST ADD MLOAD PUSH1 0x0 NOT PUSH1 0xF8 DUP5 PUSH1 0x3 SHL AND SHR NOT AND SWAP1 SSTORE CODESIZE DUP1 DUP1 PUSH3 0x329 JUMP JUMPDEST DUP4 DUP6 ADD MLOAD DUP7 SSTORE DUP14 SWAP8 SWAP1 SWAP6 ADD SWAP5 SWAP4 DUP5 ADD SWAP4 ADD PUSH3 0x316 JUMP JUMPDEST SWAP1 SWAP2 POP DUP11 DUP1 MSTORE DUP5 DUP12 KECCAK256 DUP8 DUP1 DUP6 ADD PUSH1 0x5 SHR DUP3 ADD SWAP3 DUP8 DUP7 LT PUSH3 0x3B1 JUMPI JUMPDEST SWAP2 DUP12 SWAP2 DUP7 SWAP6 SWAP5 SWAP4 ADD PUSH1 0x5 SHR ADD SWAP2 JUMPDEST DUP3 DUP2 LT PUSH3 0x3A2 JUMPI POP POP PUSH3 0xDF JUMP JUMPDEST DUP14 DUP2 SSTORE DUP6 SWAP5 POP DUP12 SWAP2 ADD PUSH3 0x392 JUMP JUMPDEST SWAP3 POP DUP2 SWAP3 PUSH3 0x384 JUMP JUMPDEST PUSH4 0x4E487B71 PUSH1 0xE0 SHL DUP12 MSTORE PUSH1 0x22 PUSH1 0x4 MSTORE PUSH1 0x24 DUP12 REVERT JUMPDEST SWAP1 PUSH1 0x7F AND SWAP1 PUSH3 0xCA JUMP JUMPDEST PUSH4 0x4E487B71 PUSH1 0xE0 SHL PUSH1 0x0 MSTORE PUSH1 0x41 PUSH1 0x4 MSTORE PUSH1 0x24 PUSH1 0x0 REVERT JUMPDEST PUSH1 0x0 DUP1 REVERT JUMPDEST PUSH1 0x40 DUP1 MLOAD SWAP2 SWAP1 DUP3 ADD PUSH1 0x1 PUSH1 0x1 PUSH1 0x40 SHL SUB DUP2 GT DUP4 DUP3 LT OR PUSH3 0x3DA JUMPI PUSH1 0x40 MSTORE JUMP JUMPDEST MLOAD SWAP1 PUSH1 0x1 PUSH1 0x1 PUSH1 0xA0 SHL SUB DUP3 AND DUP3 SUB PUSH3 0x3F0 JUMPI JUMP INVALID PUSH1 0x80 PUSH1 0x40 MSTORE PUSH1 0x4 CALLDATASIZE LT ISZERO PUSH2 0x18 JUMPI JUMPDEST CALLDATASIZE ISZERO PUSH2 0x16 JUMPI STOP JUMPDEST STOP JUMPDEST PUSH1 0x0 CALLDATALOAD PUSH1 0xE0 SHR DUP1 PUSH4 0x1FFC9A7 EQ PUSH2 0x2C0 JUMPI DUP1 PUSH4 0x6FDDE03 EQ PUSH2 0x2B7 JUMPI DUP1 PUSH4 0x81812FC EQ PUSH2 0x2AE JUMPI DUP1 PUSH4 0x95EA7B3 EQ PUSH2 0x2A5 JUMPI DUP1 PUSH4 0x18160DDD EQ PUSH2 0x29C JUMPI DUP1 PUSH4 0x23B872DD EQ PUSH2 0x293 JUMPI DUP1 PUSH4 0x2A4DBD2B EQ PUSH2 0x28A JUMPI DUP1 PUSH4 0x2DEF6620 EQ PUSH2 0x281 JUMPI DUP1 PUSH4 0x2F745C59 EQ PUSH2 0x278 JUMPI DUP1 PUSH4 0x42842E0E EQ PUSH2 0x26F JUMPI DUP1 PUSH4 0x441A3E70 EQ PUSH2 0x266 JUMPI DUP1 PUSH4 0x4B2B4E36 EQ PUSH2 0x25D JUMPI DUP1 PUSH4 0x4F6CCCE7 EQ PUSH2 0x254 JUMPI DUP1 PUSH4 0x6352211E EQ PUSH2 0x24B JUMPI DUP1 PUSH4 0x6620A935 EQ PUSH2 0x242 JUMPI DUP1 PUSH4 0x678E300A EQ PUSH2 0x239 JUMPI DUP1 PUSH4 0x70A08231 EQ PUSH2 0x230 JUMPI DUP1 PUSH4 0x715018A6 EQ PUSH2 0x227 JUMPI DUP1 PUSH4 0x7D882097 EQ PUSH2 0x21E JUMPI DUP1 PUSH4 0x8620891C EQ PUSH2 0x215 JUMPI DUP1 PUSH4 0x87F8AB26 EQ PUSH2 0x20C JUMPI DUP1 PUSH4 0x893D20E8 EQ PUSH2 0x203 JUMPI DUP1 PUSH4 0x8DA5CB5B EQ PUSH2 0x1FA JUMPI DUP1 PUSH4 0x95D89B41 EQ PUSH2 0x1F1 JUMPI DUP1 PUSH4 0xA22CB465 EQ PUSH2 0x1E8 JUMPI DUP1 PUSH4 0xA2D6C6DA EQ PUSH2 0x1DF JUMPI DUP1 PUSH4 0xB88D4FDE EQ PUSH2 0x1D6 JUMPI DUP1 PUSH4 0xC87B56DD EQ PUSH2 0x1CD JUMPI DUP1 PUSH4 0xCFB5A5F8 EQ PUSH2 0x1C4 JUMPI DUP1 PUSH4 0xE2664E49 EQ PUSH2 0x1BB JUMPI DUP1 PUSH4 0xE4FC6B6D EQ PUSH2 0x1B2 JUMPI DUP1 PUSH4 0xE985E9C5 EQ PUSH2 0x1A9 JUMPI DUP1 PUSH4 0xF2FDE38B EQ PUSH2 0x1A0 JUMPI PUSH4 0xF340FA01 SUB PUSH2 0xE JUMPI PUSH2 0x19B PUSH2 0x1678 JUMP JUMPDEST PUSH2 0xE JUMP JUMPDEST POP PUSH2 0x19B PUSH2 0x15E1 JUMP JUMPDEST POP PUSH2 0x19B PUSH2 0x1583 JUMP JUMPDEST POP PUSH2 0x19B PUSH2 0x14E0 JUMP JUMPDEST POP PUSH2 0x19B PUSH2 0x1488 JUMP JUMPDEST POP PUSH2 0x19B PUSH2 0x1468 JUMP JUMPDEST POP PUSH2 0x19B PUSH2 0x10BD JUMP JUMPDEST POP PUSH2 0x19B PUSH2 0x105C JUMP JUMPDEST POP PUSH2 0x19B PUSH2 0xF50 JUMP JUMPDEST POP PUSH2 0x19B PUSH2 0xE63 JUMP JUMPDEST POP PUSH2 0x19B PUSH2 0xDA1 JUMP JUMPDEST POP PUSH2 0x19B PUSH2 0xD77 JUMP JUMPDEST POP PUSH2 0x19B PUSH2 0xD4D JUMP JUMPDEST POP PUSH2 0x19B PUSH2 0xD20 JUMP JUMPDEST POP PUSH2 0x19B PUSH2 0xC85 JUMP JUMPDEST POP PUSH2 0x19B PUSH2 0xC66 JUMP JUMPDEST POP PUSH2 0x19B PUSH2 0xC01 JUMP JUMPDEST POP PUSH2 0x19B PUSH2 0xBDD JUMP JUMPDEST POP PUSH2 0x19B PUSH2 0xBB6 JUMP JUMPDEST POP PUSH2 0x19B PUSH2 0xB4E JUMP JUMPDEST POP PUSH2 0x19B PUSH2 0xB2F JUMP JUMPDEST POP PUSH2 0x19B PUSH2 0xA83 JUMP JUMPDEST POP PUSH2 0x19B PUSH2 0x8EF JUMP JUMPDEST POP PUSH2 0x19B PUSH2 0x7EF JUMP JUMPDEST POP PUSH2 0x19B PUSH2 0x7A7 JUMP JUMPDEST POP PUSH2 0x19B PUSH2 0x6F3 JUMP JUMPDEST POP PUSH2 0x19B PUSH2 0x6D2 JUMP JUMPDEST POP PUSH2 0x19B PUSH2 0x6A4 JUMP JUMPDEST POP PUSH2 0x19B PUSH2 0x67A JUMP JUMPDEST POP PUSH2 0x19B PUSH2 0x626 JUMP JUMPDEST POP PUSH2 0x19B PUSH2 0x538 JUMP JUMPDEST POP PUSH2 0x19B PUSH2 0x4DB JUMP JUMPDEST POP PUSH2 0x19B PUSH2 0x3D0 JUMP JUMPDEST POP PUSH2 0x19B PUSH2 0x2E0 JUMP JUMPDEST PUSH1 0x1 PUSH1 0x1 PUSH1 0xE0 SHL SUB NOT DUP2 AND SUB PUSH2 0x2DB JUMPI JUMP JUMPDEST PUSH1 0x0 DUP1 REVERT JUMPDEST POP CALLVALUE PUSH2 0x2DB JUMPI PUSH1 0x20 CALLDATASIZE PUSH1 0x3 NOT ADD SLT PUSH2 0x2DB JUMPI PUSH1 0x20 PUSH1 0x4 CALLDATALOAD PUSH2 0x300 DUP2 PUSH2 0x2C9 JUMP JUMPDEST PUSH4 0xFFFFFFFF PUSH1 0xE0 SHL AND PUSH4 0x780E9D63 PUSH1 0xE0 SHL DUP2 EQ SWAP1 DUP2 ISZERO PUSH2 0x326 JUMPI JUMPDEST POP PUSH1 0x40 MLOAD SWAP1 ISZERO ISZERO DUP2 MSTORE RETURN JUMPDEST PUSH4 0x80AC58CD PUSH1 0xE0 SHL DUP2 EQ SWAP2 POP DUP2 ISZERO PUSH2 0x358 JUMPI JUMPDEST DUP2 ISZERO PUSH2 0x347 JUMPI JUMPDEST POP CODESIZE PUSH2 0x31B JUMP JUMPDEST PUSH4 0x1FFC9A7 PUSH1 0xE0 SHL EQ SWAP1 POP CODESIZE PUSH2 0x340 JUMP JUMPDEST PUSH4 0x5B5E139F PUSH1 0xE0 SHL DUP2 EQ SWAP2 POP PUSH2 0x339 JUMP JUMPDEST PUSH1 0x0 SWAP2 SUB SLT PUSH2 0x2DB JUMPI JUMP JUMPDEST PUSH1 0x0 JUMPDEST DUP4 DUP2 LT PUSH2 0x387 JUMPI POP POP PUSH1 0x0 SWAP2 ADD MSTORE JUMP JUMPDEST DUP2 DUP2 ADD MLOAD DUP4 DUP3 ADD MSTORE PUSH1 0x20 ADD PUSH2 0x377 JUMP JUMPDEST SWAP1 PUSH1 0x20 SWAP2 PUSH2 0x3B0 DUP2 MLOAD DUP1 SWAP3 DUP2 DUP6 MSTORE DUP6 DUP1 DUP7 ADD SWAP2 ADD PUSH2 0x374 JUMP JUMPDEST PUSH1 0x1F ADD PUSH1 0x1F NOT AND ADD ADD SWAP1 JUMP JUMPDEST SWAP1 PUSH1 0x20 PUSH2 0x3CD SWAP3 DUP2 DUP2 MSTORE ADD SWAP1 PUSH2 0x397 JUMP JUMPDEST SWAP1 JUMP JUMPDEST POP CALLVALUE PUSH2 0x2DB JUMPI PUSH1 0x0 DUP1 PUSH1 0x3 NOT CALLDATASIZE ADD SLT PUSH2 0x4D8 JUMPI PUSH1 0x40 MLOAD SWAP1 DUP1 DUP1 SLOAD SWAP1 PUSH1 0x1 SWAP2 DUP1 DUP4 SHR SWAP3 DUP1 DUP3 AND SWAP3 DUP4 ISZERO PUSH2 0x4CE JUMPI JUMPDEST PUSH1 0x20 SWAP3 DUP4 DUP7 LT DUP6 EQ PUSH2 0x4BA JUMPI DUP6 DUP9 MSTORE PUSH1 0x20 DUP9 ADD SWAP5 SWAP1 DUP2 ISZERO PUSH2 0x499 JUMPI POP PUSH1 0x1 EQ PUSH2 0x441 JUMPI JUMPDEST PUSH2 0x43D DUP8 PUSH2 0x431 DUP2 DUP10 SUB DUP3 PUSH2 0xFD8 JUMP JUMPDEST PUSH1 0x40 MLOAD SWAP2 DUP3 SWAP2 DUP3 PUSH2 0x3BC JUMP JUMPDEST SUB SWAP1 RETURN JUMPDEST PUSH1 0x0 DUP1 MSTORE SWAP5 POP SWAP2 SWAP3 SWAP2 PUSH32 0x290DECD9548B62A8D60345A988386FC84BA6BC95484008F6362F93160EF3E563 JUMPDEST DUP4 DUP7 LT PUSH2 0x488 JUMPI POP POP POP SWAP2 ADD SWAP1 POP PUSH2 0x431 DUP3 PUSH2 0x43D CODESIZE DUP1 PUSH2 0x421 JUMP JUMPDEST DUP1 SLOAD DUP6 DUP8 ADD MSTORE SWAP5 DUP3 ADD SWAP5 DUP2 ADD PUSH2 0x46C JUMP JUMPDEST PUSH1 0xFF NOT AND DUP6 MSTORE POP POP POP POP SWAP1 ISZERO ISZERO PUSH1 0x5 SHL ADD SWAP1 POP PUSH2 0x431 DUP3 PUSH2 0x43D CODESIZE DUP1 PUSH2 0x421 JUMP JUMPDEST PUSH4 0x4E487B71 PUSH1 0xE0 SHL DUP3 MSTORE PUSH1 0x22 PUSH1 0x4 MSTORE PUSH1 0x24 DUP3 REVERT JUMPDEST SWAP4 PUSH1 0x7F AND SWAP4 PUSH2 0x3FD JUMP JUMPDEST DUP1 REVERT JUMPDEST POP CALLVALUE PUSH2 0x2DB JUMPI PUSH1 0x20 CALLDATASIZE PUSH1 0x3 NOT ADD SLT PUSH2 0x2DB JUMPI PUSH1 0x20 PUSH2 0x4FA PUSH1 0x4 CALLDATALOAD PUSH2 0x18E2 JUMP JUMPDEST PUSH1 0x40 MLOAD PUSH1 0x1 PUSH1 0x1 PUSH1 0xA0 SHL SUB SWAP1 SWAP2 AND DUP2 MSTORE RETURN JUMPDEST PUSH1 0x4 CALLDATALOAD SWAP1 PUSH1 0x1 PUSH1 0x1 PUSH1 0xA0 SHL SUB DUP3 AND DUP3 SUB PUSH2 0x2DB JUMPI JUMP JUMPDEST PUSH1 0x24 CALLDATALOAD SWAP1 PUSH1 0x1 PUSH1 0x1 PUSH1 0xA0 SHL SUB DUP3 AND DUP3 SUB PUSH2 0x2DB JUMPI JUMP JUMPDEST POP CALLVALUE PUSH2 0x2DB JUMPI PUSH1 0x40 CALLDATASIZE PUSH1 0x3 NOT ADD SLT PUSH2 0x2DB JUMPI PUSH2 0x552 PUSH2 0x50C JUMP JUMPDEST PUSH1 0x24 CALLDATALOAD PUSH2 0x55E DUP2 PUSH2 0x17F8 JUMP JUMPDEST SWAP2 PUSH1 0x1 PUSH1 0x1 PUSH1 0xA0 SHL SUB DUP1 DUP5 AND SWAP1 DUP3 AND DUP2 EQ PUSH2 0x5D7 JUMPI PUSH2 0x16 SWAP4 PUSH2 0x58B SWAP2 CALLER EQ SWAP1 DUP2 ISZERO PUSH2 0x590 JUMPI JUMPDEST POP PUSH2 0x1870 JUMP JUMPDEST PUSH2 0x1DFB JUMP JUMPDEST PUSH1 0x1 PUSH1 0x1 PUSH1 0xA0 SHL SUB AND PUSH1 0x0 SWAP1 DUP2 MSTORE PUSH1 0x5 PUSH1 0x20 MSTORE PUSH1 0x40 SWAP1 KECCAK256 PUSH2 0x5D1 SWAP2 POP PUSH2 0x5CA SWAP1 CALLER SWAP1 JUMPDEST SWAP1 PUSH1 0x1 DUP1 PUSH1 0xA0 SHL SUB AND PUSH1 0x0 MSTORE PUSH1 0x20 MSTORE PUSH1 0x40 PUSH1 0x0 KECCAK256 SWAP1 JUMP JUMPDEST SLOAD PUSH1 0xFF AND SWAP1 JUMP JUMPDEST CODESIZE PUSH2 0x585 JUMP JUMPDEST PUSH1 0x40 MLOAD PUSH3 0x461BCD PUSH1 0xE5 SHL DUP2 MSTORE PUSH1 0x20 PUSH1 0x4 DUP3 ADD MSTORE PUSH1 0x21 PUSH1 0x24 DUP3 ADD MSTORE PUSH32 0x4552433732313A20617070726F76616C20746F2063757272656E74206F776E65 PUSH1 0x44 DUP3 ADD MSTORE PUSH1 0x39 PUSH1 0xF9 SHL PUSH1 0x64 DUP3 ADD MSTORE PUSH1 0x84 SWAP1 REVERT JUMPDEST POP CALLVALUE PUSH2 0x2DB JUMPI PUSH1 0x0 CALLDATASIZE PUSH1 0x3 NOT ADD SLT PUSH2 0x2DB JUMPI PUSH1 0x20 PUSH1 0x8 SLOAD PUSH1 0x40 MLOAD SWAP1 DUP2 MSTORE RETURN JUMPDEST PUSH1 0x60 SWAP1 PUSH1 0x3 NOT ADD SLT PUSH2 0x2DB JUMPI PUSH1 0x1 PUSH1 0x1 PUSH1 0xA0 SHL SUB SWAP1 PUSH1 0x4 CALLDATALOAD DUP3 DUP2 AND DUP2 SUB PUSH2 0x2DB JUMPI SWAP2 PUSH1 0x24 CALLDATALOAD SWAP1 DUP2 AND DUP2 SUB PUSH2 0x2DB JUMPI SWAP1 PUSH1 0x44 CALLDATALOAD SWAP1 JUMP JUMPDEST POP CALLVALUE PUSH2 0x2DB JUMPI PUSH2 0x16 PUSH2 0x68C CALLDATASIZE PUSH2 0x645 JUMP JUMPDEST SWAP2 PUSH2 0x69F PUSH2 0x69A DUP5 CALLER PUSH2 0x1AA7 JUMP JUMPDEST PUSH2 0x1974 JUMP JUMPDEST PUSH2 0x1C5E JUMP JUMPDEST POP CALLVALUE PUSH2 0x2DB JUMPI PUSH1 0x0 CALLDATASIZE PUSH1 0x3 NOT ADD SLT PUSH2 0x2DB JUMPI PUSH1 0xE SLOAD PUSH1 0x40 MLOAD PUSH1 0x8 SWAP2 SWAP1 SWAP2 SHR PUSH1 0x1 PUSH1 0x1 PUSH1 0xA0 SHL SUB AND DUP2 MSTORE PUSH1 0x20 SWAP1 RETURN JUMPDEST POP CALLVALUE PUSH2 0x2DB JUMPI PUSH1 0x0 CALLDATASIZE PUSH1 0x3 NOT ADD SLT PUSH2 0x2DB JUMPI PUSH1 0xE DUP1 SLOAD PUSH1 0xFF NOT AND PUSH1 0x2 OR SWAP1 SSTORE STOP JUMPDEST POP CALLVALUE PUSH2 0x2DB JUMPI PUSH1 0x40 CALLDATASIZE PUSH1 0x3 NOT ADD SLT PUSH2 0x2DB JUMPI PUSH2 0x70D PUSH2 0x50C JUMP JUMPDEST PUSH1 0x24 CALLDATALOAD SWAP1 PUSH2 0x71A DUP2 PUSH2 0x1780 JUMP JUMPDEST DUP3 LT ISZERO PUSH2 0x74E JUMPI PUSH1 0x1 PUSH1 0x1 PUSH1 0xA0 SHL SUB AND PUSH1 0x0 SWAP1 DUP2 MSTORE PUSH1 0x6 PUSH1 0x20 SWAP1 DUP2 MSTORE PUSH1 0x40 DUP1 DUP4 KECCAK256 SWAP4 DUP4 MSTORE SWAP3 DUP2 MSTORE SWAP1 DUP3 SWAP1 KECCAK256 SLOAD SWAP2 MLOAD SWAP2 DUP3 MSTORE SWAP1 RETURN JUMPDEST PUSH1 0x40 MLOAD PUSH3 0x461BCD PUSH1 0xE5 SHL DUP2 MSTORE PUSH1 0x20 PUSH1 0x4 DUP3 ADD MSTORE PUSH1 0x2B PUSH1 0x24 DUP3 ADD MSTORE PUSH32 0x455243373231456E756D657261626C653A206F776E657220696E646578206F75 PUSH1 0x44 DUP3 ADD MSTORE PUSH11 0x74206F6620626F756E6473 PUSH1 0xA8 SHL PUSH1 0x64 DUP3 ADD MSTORE PUSH1 0x84 SWAP1 REVERT JUMPDEST POP CALLVALUE PUSH2 0x2DB JUMPI PUSH2 0x16 PUSH2 0x7B9 CALLDATASIZE PUSH2 0x645 JUMP JUMPDEST SWAP1 PUSH1 0x40 MLOAD SWAP3 PUSH1 0x20 DUP5 ADD DUP5 DUP2 LT PUSH8 0xFFFFFFFFFFFFFFFF DUP3 GT OR PUSH2 0x7E2 JUMPI JUMPDEST PUSH1 0x40 MSTORE PUSH1 0x0 DUP5 MSTORE PUSH2 0x1A0C JUMP JUMPDEST PUSH2 0x7EA PUSH2 0xF84 JUMP JUMPDEST PUSH2 0x7D6 JUMP JUMPDEST POP CALLVALUE PUSH2 0x2DB JUMPI PUSH1 0x40 CALLDATASIZE PUSH1 0x3 NOT ADD SLT PUSH2 0x2DB JUMPI PUSH1 0x0 DUP1 DUP1 DUP1 PUSH1 0x4 CALLDATALOAD PUSH2 0x87D PUSH1 0x24 CALLDATALOAD SWAP2 PUSH2 0x82B PUSH1 0x1 PUSH1 0xFF PUSH1 0xE SLOAD AND PUSH2 0x824 DUP2 PUSH2 0x22D5 JUMP JUMPDEST EQ ISZERO PUSH2 0x2459 JUMP JUMPDEST PUSH2 0x84D PUSH2 0x846 PUSH2 0x83A DUP4 PUSH2 0x17F8 JUMP JUMPDEST PUSH1 0x1 PUSH1 0x1 PUSH1 0xA0 SHL SUB AND SWAP1 JUMP JUMPDEST CALLER EQ PUSH2 0x24A5 JUMP JUMPDEST PUSH2 0x86D DUP4 PUSH2 0x865 DUP4 PUSH1 0x0 MSTORE PUSH1 0xB PUSH1 0x20 MSTORE PUSH1 0x40 PUSH1 0x0 KECCAK256 SWAP1 JUMP JUMPDEST SLOAD LT ISZERO PUSH2 0x24E1 JUMP JUMPDEST PUSH1 0x0 MSTORE PUSH1 0xB PUSH1 0x20 MSTORE PUSH1 0x40 PUSH1 0x0 KECCAK256 SWAP1 JUMP JUMPDEST PUSH2 0x888 DUP3 DUP3 SLOAD PUSH2 0x1C1A JUMP JUMPDEST SWAP1 SSTORE PUSH2 0x89E PUSH2 0x899 DUP3 PUSH1 0xC SLOAD PUSH2 0x1C1A JUMP JUMPDEST PUSH1 0xC SSTORE JUMP JUMPDEST DUP2 DUP2 ISZERO PUSH2 0x8B8 JUMPI JUMPDEST CALLER SWAP1 CALL ISZERO PUSH2 0x8B0 JUMPI STOP JUMPDEST PUSH2 0x16 PUSH2 0x1EA7 JUMP JUMPDEST POP PUSH2 0x8FC PUSH2 0x8A6 JUMP JUMPDEST SWAP2 DUP2 PUSH1 0x1F DUP5 ADD SLT ISZERO PUSH2 0x2DB JUMPI DUP3 CALLDATALOAD SWAP2 PUSH8 0xFFFFFFFFFFFFFFFF DUP4 GT PUSH2 0x2DB JUMPI PUSH1 0x20 DUP4 DUP2 DUP7 ADD SWAP6 ADD ADD GT PUSH2 0x2DB JUMPI JUMP JUMPDEST POP CALLVALUE PUSH2 0x2DB JUMPI PUSH1 0x80 CALLDATASIZE PUSH1 0x3 NOT ADD SLT PUSH2 0x2DB JUMPI PUSH8 0xFFFFFFFFFFFFFFFF PUSH1 0x4 CALLDATALOAD DUP2 DUP2 GT PUSH2 0x2DB JUMPI PUSH2 0x922 SWAP1 CALLDATASIZE SWAP1 PUSH1 0x4 ADD PUSH2 0x8C1 JUMP JUMPDEST PUSH1 0x24 SWAP3 SWAP2 SWAP3 CALLDATALOAD DUP3 DUP2 GT PUSH2 0x2DB JUMPI PUSH2 0x93D SWAP1 CALLDATASIZE SWAP1 PUSH1 0x4 ADD PUSH2 0x8C1 JUMP JUMPDEST SWAP2 SWAP1 SWAP3 PUSH1 0x44 CALLDATALOAD SWAP1 DUP2 GT PUSH2 0x2DB JUMPI PUSH2 0x958 SWAP1 CALLDATASIZE SWAP1 PUSH1 0x4 ADD PUSH2 0x8C1 JUMP JUMPDEST SWAP4 SWAP1 SWAP5 PUSH2 0x970 PUSH1 0x1 DUP1 PUSH1 0xA0 SHL SUB PUSH1 0xA SLOAD AND CALLER EQ PUSH2 0x16E5 JUMP JUMPDEST PUSH2 0x97D PUSH1 0x20 SELFBALANCE LT ISZERO PUSH2 0x261E JUMP JUMPDEST PUSH2 0x98F PUSH1 0x1 PUSH1 0xFF NOT PUSH1 0xE SLOAD AND OR PUSH1 0xE SSTORE JUMP JUMPDEST PUSH2 0x9BB PUSH2 0x99B ADDRESS PUSH2 0x270B JUMP JUMPDEST PUSH2 0x9A6 CALLDATASIZE DUP8 DUP7 PUSH2 0x1025 JUMP JUMPDEST PUSH1 0x20 DUP2 MLOAD SWAP2 ADD KECCAK256 SWAP1 PUSH1 0x20 DUP2 MLOAD SWAP2 ADD KECCAK256 EQ PUSH2 0x265B JUMP JUMPDEST PUSH1 0xF SLOAD PUSH2 0x9D0 SWAP1 PUSH1 0x1 PUSH1 0x1 PUSH1 0xA0 SHL SUB AND PUSH2 0x83A JUMP JUMPDEST SWAP3 DUP4 EXTCODESIZE ISZERO PUSH2 0x2DB JUMPI PUSH2 0xA0A PUSH9 0x1BC16D674EC800000 SWAP3 PUSH1 0x0 SWAP8 PUSH1 0x40 MLOAD SWAP10 DUP11 SWAP9 DUP10 SWAP8 DUP9 SWAP7 PUSH4 0x4512A23 PUSH1 0xE3 SHL DUP9 MSTORE PUSH1 0x64 CALLDATALOAD SWAP6 PUSH1 0x4 DUP10 ADD PUSH2 0x26C8 JUMP JUMPDEST SUB SWAP3 GAS CALL DUP1 ISZERO PUSH2 0xA76 JUMPI JUMPDEST PUSH2 0xA5D JUMPI JUMPDEST PUSH1 0xE SLOAD PUSH1 0x40 DUP1 MLOAD PUSH1 0x8 SWAP3 SWAP1 SWAP3 SHR PUSH1 0x1 PUSH1 0x1 PUSH1 0xA0 SHL SUB AND DUP3 MSTORE CALLER PUSH1 0x20 DUP4 ADD MSTORE PUSH32 0x1944DEBB24A9AAFCF2708BE964E412CDB73FC36D6EA24577FD8DCC05B93B4A44 SWAP2 LOG1 STOP JUMPDEST DUP1 PUSH2 0xA6A PUSH2 0xA70 SWAP3 PUSH2 0xF9B JUMP JUMPDEST DUP1 PUSH2 0x369 JUMP JUMPDEST CODESIZE PUSH2 0xA1A JUMP JUMPDEST PUSH2 0xA7E PUSH2 0x1EA7 JUMP JUMPDEST PUSH2 0xA15 JUMP JUMPDEST POP CALLVALUE PUSH2 0x2DB JUMPI PUSH1 0x20 CALLDATASIZE PUSH1 0x3 NOT ADD SLT PUSH2 0x2DB JUMPI PUSH1 0x4 CALLDATALOAD PUSH1 0x8 SLOAD DUP2 LT ISZERO PUSH2 0xAD5 JUMPI PUSH1 0x8 PUSH1 0x0 MSTORE PUSH32 0xF3F7A9FE364FAAB93B216DA50A3214154F22A0A2B415B23A84C8169E8B636EE3 ADD SLOAD PUSH1 0x40 MLOAD SWAP1 DUP2 MSTORE PUSH1 0x20 SWAP1 RETURN JUMPDEST PUSH1 0x40 MLOAD PUSH3 0x461BCD PUSH1 0xE5 SHL DUP2 MSTORE PUSH1 0x20 PUSH1 0x4 DUP3 ADD MSTORE PUSH1 0x2C PUSH1 0x24 DUP3 ADD MSTORE PUSH32 0x455243373231456E756D657261626C653A20676C6F62616C20696E646578206F PUSH1 0x44 DUP3 ADD MSTORE PUSH12 0x7574206F6620626F756E6473 PUSH1 0xA0 SHL PUSH1 0x64 DUP3 ADD MSTORE PUSH1 0x84 SWAP1 REVERT JUMPDEST POP CALLVALUE PUSH2 0x2DB JUMPI PUSH1 0x20 CALLDATASIZE PUSH1 0x3 NOT ADD SLT PUSH2 0x2DB JUMPI PUSH1 0x20 PUSH2 0x4FA PUSH1 0x4 CALLDATALOAD PUSH2 0x17F8 JUMP JUMPDEST POP CALLVALUE PUSH2 0x2DB JUMPI PUSH1 0x0 CALLDATASIZE PUSH1 0x3 NOT ADD SLT PUSH2 0x2DB JUMPI PUSH1 0xA SLOAD PUSH1 0x10 SLOAD PUSH1 0x1 PUSH1 0x1 PUSH1 0xA0 SHL SUB SWAP1 DUP2 AND SWAP2 AND DUP2 EQ PUSH2 0xB82 JUMPI PUSH2 0x16 SWAP1 PUSH2 0x1730 JUMP JUMPDEST PUSH1 0x40 MLOAD PUSH3 0x461BCD PUSH1 0xE5 SHL DUP2 MSTORE PUSH1 0x20 PUSH1 0x4 DUP3 ADD MSTORE PUSH1 0xC PUSH1 0x24 DUP3 ADD MSTORE PUSH12 0x616C726561647920646F6E65 PUSH1 0xA0 SHL PUSH1 0x44 DUP3 ADD MSTORE PUSH1 0x64 SWAP1 REVERT JUMPDEST POP CALLVALUE PUSH2 0x2DB JUMPI PUSH1 0x20 CALLDATASIZE PUSH1 0x3 NOT ADD SLT PUSH2 0x2DB JUMPI PUSH1 0x20 PUSH2 0xBD5 PUSH1 0x4 CALLDATALOAD PUSH2 0x25FA JUMP JUMPDEST PUSH1 0x40 MLOAD SWAP1 DUP2 MSTORE RETURN JUMPDEST POP CALLVALUE PUSH2 0x2DB JUMPI PUSH1 0x20 CALLDATASIZE PUSH1 0x3 NOT ADD SLT PUSH2 0x2DB JUMPI PUSH1 0x20 PUSH2 0xBD5 PUSH2 0xBFC PUSH2 0x50C JUMP JUMPDEST PUSH2 0x1780 JUMP JUMPDEST POP CALLVALUE PUSH2 0x2DB JUMPI PUSH1 0x0 DUP1 PUSH1 0x3 NOT CALLDATASIZE ADD SLT PUSH2 0x4D8 JUMPI PUSH1 0xA SLOAD PUSH1 0x1 PUSH1 0x1 PUSH1 0xA0 SHL SUB DUP2 AND SWAP1 PUSH2 0xC2D CALLER DUP4 EQ PUSH2 0x16E5 JUMP JUMPDEST PUSH1 0x1 PUSH1 0x1 PUSH1 0xA0 SHL SUB NOT AND PUSH1 0xA SSTORE PUSH1 0x40 MLOAD SWAP1 DUP3 SWAP1 PUSH32 0x8BE0079C531659141344CD1FD0A4F28419497F9722A3DAAFE3B4186F6B6457E0 DUP3 DUP5 LOG3 RETURN JUMPDEST POP CALLVALUE PUSH2 0x2DB JUMPI PUSH1 0x0 CALLDATASIZE PUSH1 0x3 NOT ADD SLT PUSH2 0x2DB JUMPI PUSH1 0x20 PUSH1 0xC SLOAD PUSH1 0x40 MLOAD SWAP1 DUP2 MSTORE RETURN JUMPDEST POP PUSH1 0x20 CALLDATASIZE PUSH1 0x3 NOT ADD SLT PUSH2 0x2DB JUMPI PUSH1 0x4 CALLDATALOAD PUSH1 0x0 DUP2 DUP2 MSTORE PUSH1 0x2 PUSH1 0x20 MSTORE PUSH1 0x40 SWAP1 KECCAK256 SLOAD PUSH2 0xCB8 SWAP1 PUSH1 0x1 PUSH1 0x1 PUSH1 0xA0 SHL SUB AND ISZERO ISZERO PUSH2 0x2421 JUMP JUMPDEST PUSH1 0xFF PUSH1 0xE SLOAD AND PUSH1 0x3 DUP2 LT ISZERO PUSH2 0xD0A JUMPI PUSH2 0x2DB JUMPI PUSH2 0xCDF SWAP1 PUSH1 0x0 MSTORE PUSH1 0xB PUSH1 0x20 MSTORE PUSH1 0x40 PUSH1 0x0 KECCAK256 SWAP1 JUMP JUMPDEST DUP1 SLOAD SWAP1 CALLVALUE DUP3 ADD DUP1 SWAP3 GT PUSH2 0xCFD JUMPI JUMPDEST SSTORE PUSH2 0x16 PUSH2 0x899 CALLVALUE PUSH1 0xC SLOAD PUSH2 0x1C51 JUMP JUMPDEST PUSH2 0xD05 PUSH2 0x1BEA JUMP JUMPDEST PUSH2 0xCED JUMP JUMPDEST PUSH4 0x4E487B71 PUSH1 0xE0 SHL PUSH1 0x0 MSTORE PUSH1 0x21 PUSH1 0x4 MSTORE PUSH1 0x24 PUSH1 0x0 REVERT JUMPDEST POP CALLVALUE PUSH2 0x2DB JUMPI PUSH1 0x20 CALLDATASIZE PUSH1 0x3 NOT ADD SLT PUSH2 0x2DB JUMPI PUSH1 0x4 CALLDATALOAD PUSH1 0x0 MSTORE PUSH1 0xB PUSH1 0x20 MSTORE PUSH1 0x20 PUSH1 0x40 PUSH1 0x0 KECCAK256 SLOAD PUSH1 0x40 MLOAD SWAP1 DUP2 MSTORE RETURN JUMPDEST POP CALLVALUE PUSH2 0x2DB JUMPI PUSH1 0x0 CALLDATASIZE PUSH1 0x3 NOT ADD SLT PUSH2 0x2DB JUMPI PUSH1 0x10 SLOAD PUSH1 0x40 MLOAD PUSH1 0x1 PUSH1 0x1 PUSH1 0xA0 SHL SUB SWAP1 SWAP2 AND DUP2 MSTORE PUSH1 0x20 SWAP1 RETURN JUMPDEST POP CALLVALUE PUSH2 0x2DB JUMPI PUSH1 0x0 CALLDATASIZE PUSH1 0x3 NOT ADD SLT PUSH2 0x2DB JUMPI PUSH1 0xA SLOAD PUSH1 0x40 MLOAD PUSH1 0x1 PUSH1 0x1 PUSH1 0xA0 SHL SUB SWAP1 SWAP2 AND DUP2 MSTORE PUSH1 0x20 SWAP1 RETURN JUMPDEST POP CALLVALUE PUSH2 0x2DB JUMPI PUSH1 0x0 DUP1 PUSH1 0x3 NOT CALLDATASIZE ADD SLT PUSH2 0x4D8 JUMPI PUSH1 0x40 MLOAD SWAP1 DUP1 PUSH1 0x1 SWAP1 DUP2 SLOAD DUP1 DUP4 SHR SWAP3 DUP1 DUP3 AND SWAP3 DUP4 ISZERO PUSH2 0xE59 JUMPI JUMPDEST PUSH1 0x20 SWAP3 DUP4 DUP7 LT DUP6 EQ PUSH2 0x4BA JUMPI DUP6 DUP9 MSTORE PUSH1 0x20 DUP9 ADD SWAP5 SWAP1 DUP2 ISZERO PUSH2 0x499 JUMPI POP PUSH1 0x1 EQ PUSH2 0xE00 JUMPI PUSH2 0x43D DUP8 PUSH2 0x431 DUP2 DUP10 SUB DUP3 PUSH2 0xFD8 JUMP JUMPDEST PUSH1 0x1 PUSH1 0x0 MSTORE SWAP5 POP SWAP2 SWAP3 SWAP2 PUSH32 0xB10E2D527612073B26EECDFD717E6A320CF44B4AFAC2B0732D9FCBE2B7FA0CF6 JUMPDEST DUP4 DUP7 LT PUSH2 0xE48 JUMPI POP POP POP SWAP2 ADD SWAP1 POP PUSH2 0x431 DUP3 PUSH2 0x43D CODESIZE DUP1 PUSH2 0x421 JUMP JUMPDEST DUP1 SLOAD DUP6 DUP8 ADD MSTORE SWAP5 DUP3 ADD SWAP5 DUP2 ADD PUSH2 0xE2C JUMP JUMPDEST SWAP4 PUSH1 0x7F AND SWAP4 PUSH2 0xDCD JUMP JUMPDEST POP CALLVALUE PUSH2 0x2DB JUMPI PUSH1 0x40 CALLDATASIZE PUSH1 0x3 NOT ADD SLT PUSH2 0x2DB JUMPI PUSH2 0xE7D PUSH2 0x50C JUMP JUMPDEST PUSH1 0x24 CALLDATALOAD DUP1 ISZERO ISZERO DUP2 SUB PUSH2 0x2DB JUMPI PUSH1 0x1 PUSH1 0x1 PUSH1 0xA0 SHL SUB DUP3 AND SWAP2 CALLER DUP4 EQ PUSH2 0xF0B JUMPI DUP2 PUSH2 0xEC8 PUSH2 0xED9 SWAP3 CALLER PUSH1 0x0 MSTORE PUSH1 0x5 PUSH1 0x20 MSTORE PUSH1 0x40 PUSH1 0x0 KECCAK256 SWAP1 PUSH1 0x1 DUP1 PUSH1 0xA0 SHL SUB AND PUSH1 0x0 MSTORE PUSH1 0x20 MSTORE PUSH1 0x40 PUSH1 0x0 KECCAK256 SWAP1 JUMP JUMPDEST SWAP1 PUSH1 0xFF DUP1 NOT DUP4 SLOAD AND SWAP2 ISZERO ISZERO AND OR SWAP1 SSTORE JUMP JUMPDEST PUSH1 0x40 MLOAD SWAP1 ISZERO ISZERO DUP2 MSTORE CALLER SWAP1 PUSH32 0x17307EAB39AB6107E8899845AD3D59BD9653F200F220920489CA2B5937696C31 SWAP1 PUSH1 0x20 SWAP1 LOG3 STOP JUMPDEST PUSH1 0x40 MLOAD PUSH3 0x461BCD PUSH1 0xE5 SHL DUP2 MSTORE PUSH1 0x20 PUSH1 0x4 DUP3 ADD MSTORE PUSH1 0x19 PUSH1 0x24 DUP3 ADD MSTORE PUSH32 0x4552433732313A20617070726F766520746F2063616C6C657200000000000000 PUSH1 0x44 DUP3 ADD MSTORE PUSH1 0x64 SWAP1 REVERT JUMPDEST POP CALLVALUE PUSH2 0x2DB JUMPI PUSH1 0x20 CALLDATASIZE PUSH1 0x3 NOT ADD SLT PUSH2 0x2DB JUMPI PUSH2 0x43D PUSH2 0xF70 PUSH1 0x4 CALLDATALOAD PUSH2 0x2A6F JUMP JUMPDEST PUSH1 0x40 MLOAD SWAP2 DUP3 SWAP2 PUSH1 0x20 DUP4 MSTORE PUSH1 0x20 DUP4 ADD SWAP1 PUSH2 0x397 JUMP JUMPDEST POP PUSH4 0x4E487B71 PUSH1 0xE0 SHL PUSH1 0x0 MSTORE PUSH1 0x41 PUSH1 0x4 MSTORE PUSH1 0x24 PUSH1 0x0 REVERT JUMPDEST PUSH8 0xFFFFFFFFFFFFFFFF DUP2 GT PUSH2 0xFAF JUMPI PUSH1 0x40 MSTORE JUMP JUMPDEST PUSH2 0xFB7 PUSH2 0xF84 JUMP JUMPDEST PUSH1 0x40 MSTORE JUMP JUMPDEST PUSH1 0x40 DUP2 ADD SWAP1 DUP2 LT PUSH8 0xFFFFFFFFFFFFFFFF DUP3 GT OR PUSH2 0xFAF JUMPI PUSH1 0x40 MSTORE JUMP JUMPDEST SWAP1 PUSH1 0x1F DUP1 NOT SWAP2 ADD AND DUP2 ADD SWAP1 DUP2 LT PUSH8 0xFFFFFFFFFFFFFFFF DUP3 GT OR PUSH2 0xFAF JUMPI PUSH1 0x40 MSTORE JUMP JUMPDEST PUSH1 0x20 SWAP1 PUSH8 0xFFFFFFFFFFFFFFFF DUP2 GT PUSH2 0x1018 JUMPI JUMPDEST PUSH1 0x1F ADD PUSH1 0x1F NOT AND ADD SWAP1 JUMP JUMPDEST PUSH2 0x1020 PUSH2 0xF84 JUMP JUMPDEST PUSH2 0x100D JUMP JUMPDEST SWAP3 SWAP2 SWAP3 PUSH2 0x1031 DUP3 PUSH2 0xFFA JUMP JUMPDEST SWAP2 PUSH2 0x103F PUSH1 0x40 MLOAD SWAP4 DUP5 PUSH2 0xFD8 JUMP JUMPDEST DUP3 SWAP5 DUP2 DUP5 MSTORE DUP2 DUP4 ADD GT PUSH2 0x2DB JUMPI DUP3 DUP2 PUSH1 0x20 SWAP4 DUP5 PUSH1 0x0 SWAP7 ADD CALLDATACOPY ADD ADD MSTORE JUMP JUMPDEST POP CALLVALUE PUSH2 0x2DB JUMPI PUSH1 0x80 CALLDATASIZE PUSH1 0x3 NOT ADD SLT PUSH2 0x2DB JUMPI PUSH2 0x1076 PUSH2 0x50C JUMP JUMPDEST PUSH2 0x107E PUSH2 0x522 JUMP JUMPDEST PUSH1 0x64 CALLDATALOAD SWAP2 PUSH8 0xFFFFFFFFFFFFFFFF DUP4 GT PUSH2 0x2DB JUMPI CALLDATASIZE PUSH1 0x23 DUP5 ADD SLT ISZERO PUSH2 0x2DB JUMPI PUSH2 0x10B3 PUSH2 0x16 SWAP4 CALLDATASIZE SWAP1 PUSH1 0x24 DUP2 PUSH1 0x4 ADD CALLDATALOAD SWAP2 ADD PUSH2 0x1025 JUMP JUMPDEST SWAP2 PUSH1 0x44 CALLDATALOAD SWAP2 PUSH2 0x1A0C JUMP JUMPDEST POP CALLVALUE PUSH2 0x2DB JUMPI PUSH1 0x20 CALLDATASIZE PUSH1 0x3 NOT ADD SLT PUSH2 0x2DB JUMPI PUSH1 0x4 CALLDATALOAD PUSH1 0x0 DUP2 DUP2 MSTORE PUSH1 0x2 PUSH1 0x20 MSTORE PUSH1 0x40 SWAP1 KECCAK256 SLOAD PUSH1 0x1 PUSH1 0x1 PUSH1 0xA0 SHL SUB AND ISZERO ISZERO PUSH2 0x10F5 SWAP1 PUSH2 0x2421 JUMP JUMPDEST PUSH2 0x10FE DUP2 PUSH2 0x27C7 JUMP JUMPDEST PUSH1 0x40 MLOAD PUSH17 0x6672656E20706F6F6C2073686172652023 PUSH1 0x78 SHL PUSH1 0x20 DUP3 ADD MSTORE SWAP2 SWAP1 DUP3 SWAP1 PUSH1 0x31 DUP3 ADD PUSH2 0x112C SWAP2 PUSH2 0x2746 JUMP JUMPDEST SUB SWAP2 PUSH1 0x1F NOT SWAP3 DUP4 DUP2 ADD DUP3 MSTORE PUSH2 0x1141 SWAP1 DUP3 PUSH2 0xFD8 JUMP JUMPDEST PUSH2 0x1155 DUP3 PUSH1 0x0 MSTORE PUSH1 0xB PUSH1 0x20 MSTORE PUSH1 0x40 PUSH1 0x0 KECCAK256 SWAP1 JUMP JUMPDEST SLOAD PUSH8 0xDE0B6B3A7640000 SWAP1 DIV PUSH2 0x116A SWAP1 PUSH2 0x4335 JUMP JUMPDEST SWAP2 PUSH2 0x1174 DUP2 PUSH2 0x25FA JUMP JUMPDEST PUSH2 0x117D SWAP1 PUSH2 0x4335 JUMP JUMPDEST SWAP3 PUSH1 0x40 MLOAD SWAP4 DUP5 SWAP2 PUSH1 0x20 DUP4 ADD PUSH2 0x11C5 SWAP1 PUSH1 0x26 SWAP1 PUSH32 0x74686973206672656E20706F6F6C207368617265206861732061206465706F73 DUP2 MSTORE PUSH6 0x34BA1037B31 PUSH1 0xD5 SHL PUSH1 0x20 DUP3 ADD MSTORE ADD SWAP1 JUMP JUMPDEST PUSH2 0x11CE SWAP2 PUSH2 0x2746 JUMP JUMPDEST PUSH32 0x20457468207769746820636C61696D61626C652062616C616E6365206F662000 DUP2 MSTORE PUSH1 0x1F ADD PUSH2 0x11FD SWAP2 PUSH2 0x2746 JUMP JUMPDEST PUSH3 0x576569 PUSH1 0xE8 SHL DUP2 MSTORE PUSH1 0x3 ADD SUB DUP5 DUP2 ADD DUP5 MSTORE PUSH2 0x1219 SWAP1 DUP5 PUSH2 0xFD8 JUMP JUMPDEST PUSH2 0x1222 DUP2 PUSH2 0x29D3 JUMP JUMPDEST PUSH2 0x122B SWAP1 PUSH2 0x28EA JUMP JUMPDEST SWAP1 PUSH2 0x1235 DUP2 PUSH2 0x27C7 JUMP JUMPDEST SWAP1 PUSH2 0x124A DUP2 PUSH1 0x0 MSTORE PUSH1 0xB PUSH1 0x20 MSTORE PUSH1 0x40 PUSH1 0x0 KECCAK256 SWAP1 JUMP JUMPDEST SLOAD PUSH8 0xDE0B6B3A7640000 SWAP1 DIV PUSH2 0x125F SWAP1 PUSH2 0x4335 JUMP JUMPDEST SWAP1 PUSH2 0x1269 SWAP1 PUSH2 0x25FA JUMP JUMPDEST PUSH2 0x1272 SWAP1 PUSH2 0x4335 JUMP JUMPDEST PUSH1 0x40 MLOAD PUSH9 0x3D913730B6B2911D11 PUSH1 0xB9 SHL PUSH1 0x20 DUP3 ADD MSTORE SWAP6 DUP7 SWAP6 SWAP2 SWAP4 SWAP2 PUSH1 0x29 DUP8 ADD PUSH2 0x129A SWAP2 PUSH2 0x2746 JUMP JUMPDEST PUSH18 0x111610113232B9B1B934B83A34B7B7111D11 PUSH1 0x71 SHL DUP2 MSTORE PUSH1 0x12 ADD PUSH2 0x12BE SWAP2 PUSH2 0x2746 JUMP JUMPDEST PUSH32 0x222C202265787465726E616C5F75726C223A2268747470733A2F2F7374616B65 DUP2 MSTORE PUSH20 0x636F6E616D69676F732E636F6D2F746F6B656E2F PUSH1 0x60 SHL PUSH1 0x20 DUP3 ADD MSTORE PUSH1 0x34 ADD PUSH2 0x130A SWAP2 PUSH2 0x2746 JUMP JUMPDEST PUSH32 0x222C202261747472696275746573223A205B7B2274726169745F74797065223A DUP2 MSTORE PUSH32 0x20226465706F736974222C202276616C7565223A20224574683A200000000000 PUSH1 0x20 DUP3 ADD MSTORE PUSH1 0x3B ADD PUSH2 0x135F SWAP2 PUSH2 0x2746 JUMP JUMPDEST PUSH32 0x227D2C7B2274726169745F74797065223A2022636C61696D61626C65222C2022 DUP2 MSTORE PUSH14 0x3B30B63AB2911D10112BB2B49D1 PUSH1 0x95 SHL PUSH1 0x20 DUP3 ADD MSTORE PUSH1 0x2E ADD PUSH2 0x13A5 SWAP2 PUSH2 0x2746 JUMP JUMPDEST PUSH15 0x113EAE96101134B6B0B3B2911D1011 PUSH1 0x89 SHL DUP2 MSTORE PUSH1 0xF ADD PUSH32 0x646174613A696D6167652F7376672B786D6C3B6261736536342C000000000000 DUP2 MSTORE PUSH1 0x1A ADD PUSH2 0x13EC SWAP2 PUSH2 0x2746 JUMP JUMPDEST PUSH2 0x227D PUSH1 0xF0 SHL DUP2 MSTORE PUSH1 0x2 ADD SUB DUP3 DUP2 ADD DUP3 MSTORE PUSH2 0x1407 SWAP1 DUP3 PUSH2 0xFD8 JUMP JUMPDEST PUSH2 0x1410 SWAP1 PUSH2 0x28EA JUMP JUMPDEST PUSH1 0x40 MLOAD PUSH32 0x646174613A6170706C69636174696F6E2F6A736F6E3B6261736536342C000000 PUSH1 0x20 DUP3 ADD MSTORE SWAP2 SWAP1 DUP3 SWAP1 PUSH1 0x3D DUP3 ADD PUSH2 0x144A SWAP2 PUSH2 0x2746 JUMP JUMPDEST SUB SWAP1 DUP2 ADD DUP3 MSTORE PUSH2 0x145A SWAP1 DUP3 PUSH2 0xFD8 JUMP JUMPDEST PUSH1 0x40 MLOAD PUSH2 0x43D DUP2 SWAP3 DUP3 PUSH2 0x3BC JUMP JUMPDEST POP CALLVALUE PUSH2 0x2DB JUMPI PUSH1 0x20 CALLDATASIZE PUSH1 0x3 NOT ADD SLT PUSH2 0x2DB JUMPI PUSH1 0x20 PUSH2 0xBD5 SELFBALANCE PUSH1 0x4 CALLDATALOAD PUSH2 0x2595 JUMP JUMPDEST POP CALLVALUE PUSH2 0x2DB JUMPI PUSH1 0x0 DUP1 PUSH1 0x3 NOT CALLDATASIZE ADD SLT PUSH2 0x4D8 JUMPI PUSH2 0x14B0 PUSH1 0x1 DUP1 PUSH1 0xA0 SHL SUB PUSH1 0xA SLOAD AND CALLER EQ PUSH2 0x16E5 JUMP JUMPDEST DUP1 DUP1 DUP1 DUP1 SELFBALANCE DUP2 DUP2 ISZERO PUSH2 0x14D7 JUMPI JUMPDEST CALLER SWAP1 CALL ISZERO PUSH2 0x14CA JUMPI PUSH1 0x40 MLOAD RETURN JUMPDEST PUSH2 0x14D2 PUSH2 0x1EA7 JUMP JUMPDEST PUSH1 0x40 MLOAD RETURN JUMPDEST POP PUSH2 0x8FC PUSH2 0x14BD JUMP JUMPDEST POP CALLVALUE PUSH2 0x2DB JUMPI PUSH1 0x0 DUP1 PUSH1 0x3 NOT CALLDATASIZE ADD SLT PUSH2 0x4D8 JUMPI PUSH1 0xFF PUSH1 0xE SLOAD AND PUSH2 0x1502 DUP2 PUSH2 0x22D5 JUMP JUMPDEST PUSH2 0x150F PUSH1 0x1 DUP1 SWAP3 EQ PUSH2 0x2524 JUMP JUMPDEST SELFBALANCE DUP2 DUP1 JUMPDEST PUSH2 0x151E JUMPI JUMPDEST DUP4 PUSH1 0x40 MLOAD RETURN JUMPDEST PUSH1 0x8 SLOAD DUP2 GT PUSH2 0x157E JUMPI DUP1 DUP5 DUP1 DUP1 DUP1 PUSH2 0x1538 PUSH2 0x1561 SWAP7 PUSH2 0x17F8 JUMP JUMPDEST PUSH2 0x1542 DUP9 DUP8 PUSH2 0x2595 JUMP JUMPDEST SWAP1 DUP3 SWAP1 DUP3 ISZERO PUSH2 0x1574 JUMPI JUMPDEST PUSH1 0x1 PUSH1 0x1 PUSH1 0xA0 SHL SUB AND SWAP1 CALL ISZERO PUSH2 0x1567 JUMPI PUSH2 0x22DF JUMP JUMPDEST DUP3 PUSH2 0x1513 JUMP JUMPDEST PUSH2 0x156F PUSH2 0x1EA7 JUMP JUMPDEST PUSH2 0x22DF JUMP JUMPDEST PUSH2 0x8FC SWAP2 POP PUSH2 0x154C JUMP JUMPDEST PUSH2 0x1518 JUMP JUMPDEST POP CALLVALUE PUSH2 0x2DB JUMPI PUSH1 0x40 CALLDATASIZE PUSH1 0x3 NOT ADD SLT PUSH2 0x2DB JUMPI PUSH1 0x20 PUSH1 0xFF PUSH2 0x15D5 PUSH2 0x15A4 PUSH2 0x50C JUMP JUMPDEST PUSH2 0x15AC PUSH2 0x522 JUMP JUMPDEST PUSH1 0x1 PUSH1 0x1 PUSH1 0xA0 SHL SUB SWAP2 DUP3 AND PUSH1 0x0 SWAP1 DUP2 MSTORE PUSH1 0x5 DUP7 MSTORE PUSH1 0x40 DUP1 DUP3 KECCAK256 SWAP3 SWAP1 SWAP4 AND DUP2 MSTORE PUSH1 0x20 SWAP2 SWAP1 SWAP2 MSTORE KECCAK256 SWAP1 JUMP JUMPDEST SLOAD AND PUSH1 0x40 MLOAD SWAP1 ISZERO ISZERO DUP2 MSTORE RETURN JUMPDEST POP CALLVALUE PUSH2 0x2DB JUMPI PUSH1 0x20 CALLDATASIZE PUSH1 0x3 NOT ADD SLT PUSH2 0x2DB JUMPI PUSH2 0x15FB PUSH2 0x50C JUMP JUMPDEST PUSH1 0xA SLOAD PUSH1 0x1 PUSH1 0x1 PUSH1 0xA0 SHL SUB SWAP1 PUSH2 0x1614 SWAP1 DUP3 AND CALLER EQ PUSH2 0x16E5 JUMP JUMPDEST DUP2 AND ISZERO PUSH2 0x1624 JUMPI PUSH2 0x16 SWAP1 PUSH2 0x1730 JUMP JUMPDEST PUSH1 0x40 MLOAD PUSH3 0x461BCD PUSH1 0xE5 SHL DUP2 MSTORE PUSH1 0x20 PUSH1 0x4 DUP3 ADD MSTORE PUSH1 0x26 PUSH1 0x24 DUP3 ADD MSTORE PUSH32 0x4F776E61626C653A206E6577206F776E657220697320746865207A65726F2061 PUSH1 0x44 DUP3 ADD MSTORE PUSH6 0x646472657373 PUSH1 0xD0 SHL PUSH1 0x64 DUP3 ADD MSTORE PUSH1 0x84 SWAP1 REVERT JUMPDEST POP PUSH1 0x20 CALLDATASIZE PUSH1 0x3 NOT ADD SLT PUSH2 0x2DB JUMPI PUSH2 0x168D PUSH2 0x50C JUMP JUMPDEST PUSH1 0xFF PUSH1 0xE SLOAD AND PUSH1 0x3 DUP2 LT ISZERO PUSH2 0xD0A JUMPI PUSH2 0x2DB JUMPI PUSH2 0x16 SWAP1 PUSH2 0x16B7 PUSH2 0x16B2 PUSH1 0xD SLOAD PUSH2 0x22DF JUMP JUMPDEST PUSH1 0xD SSTORE JUMP JUMPDEST PUSH1 0xD SLOAD SWAP1 CALLVALUE PUSH2 0x16D0 DUP4 PUSH1 0x0 MSTORE PUSH1 0xB PUSH1 0x20 MSTORE PUSH1 0x40 PUSH1 0x0 KECCAK256 SWAP1 JUMP JUMPDEST SSTORE PUSH2 0x16E0 PUSH2 0x899 CALLVALUE PUSH1 0xC SLOAD PUSH2 0x1C51 JUMP JUMPDEST PUSH2 0x22FB JUMP JUMPDEST ISZERO PUSH2 0x16EC JUMPI JUMP JUMPDEST PUSH1 0x64 PUSH1 0x40 MLOAD PUSH3 0x461BCD PUSH1 0xE5 SHL DUP2 MSTORE PUSH1 0x20 PUSH1 0x4 DUP3 ADD MSTORE PUSH1 0x20 PUSH1 0x24 DUP3 ADD MSTORE PUSH32 0x4F776E61626C653A2063616C6C6572206973206E6F7420746865206F776E6572 PUSH1 0x44 DUP3 ADD MSTORE REVERT JUMPDEST PUSH1 0xA SLOAD SWAP1 PUSH1 0x1 DUP1 PUSH1 0xA0 SHL SUB DUP1 SWAP2 AND SWAP2 DUP3 PUSH12 0xFFFFFFFFFFFFFFFFFFFFFFFF PUSH1 0xA0 SHL DUP3 AND OR PUSH1 0xA SSTORE AND PUSH32 0x8BE0079C531659141344CD1FD0A4F28419497F9722A3DAAFE3B4186F6B6457E0 PUSH1 0x0 PUSH1 0x40 MLOAD LOG3 JUMP JUMPDEST PUSH1 0x1 PUSH1 0x1 PUSH1 0xA0 SHL SUB AND DUP1 ISZERO PUSH2 0x17A0 JUMPI PUSH1 0x0 MSTORE PUSH1 0x3 PUSH1 0x20 MSTORE PUSH1 0x40 PUSH1 0x0 KECCAK256 SLOAD SWAP1 JUMP JUMPDEST PUSH1 0x40 MLOAD PUSH3 0x461BCD PUSH1 0xE5 SHL DUP2 MSTORE PUSH1 0x20 PUSH1 0x4 DUP3 ADD MSTORE PUSH1 0x2A PUSH1 0x24 DUP3 ADD MSTORE PUSH32 0x4552433732313A2062616C616E636520717565727920666F7220746865207A65 PUSH1 0x44 DUP3 ADD MSTORE PUSH10 0x726F2061646472657373 PUSH1 0xB0 SHL PUSH1 0x64 DUP3 ADD MSTORE PUSH1 0x84 SWAP1 REVERT JUMPDEST PUSH1 0x0 SWAP1 DUP2 MSTORE PUSH1 0x2 PUSH1 0x20 MSTORE PUSH1 0x40 SWAP1 KECCAK256 SLOAD PUSH1 0x1 PUSH1 0x1 PUSH1 0xA0 SHL SUB AND DUP1 ISZERO PUSH2 0x1819 JUMPI SWAP1 JUMP JUMPDEST PUSH1 0x40 MLOAD PUSH3 0x461BCD PUSH1 0xE5 SHL DUP2 MSTORE PUSH1 0x20 PUSH1 0x4 DUP3 ADD MSTORE PUSH1 0x29 PUSH1 0x24 DUP3 ADD MSTORE PUSH32 0x4552433732313A206F776E657220717565727920666F72206E6F6E6578697374 PUSH1 0x44 DUP3 ADD MSTORE PUSH9 0x32B73A103A37B5B2B7 PUSH1 0xB9 SHL PUSH1 0x64 DUP3 ADD MSTORE PUSH1 0x84 SWAP1 REVERT JUMPDEST ISZERO PUSH2 0x1877 JUMPI JUMP JUMPDEST PUSH1 0x40 MLOAD PUSH3 0x461BCD PUSH1 0xE5 SHL DUP2 MSTORE PUSH1 0x20 PUSH1 0x4 DUP3 ADD MSTORE PUSH1 0x38 PUSH1 0x24 DUP3 ADD MSTORE PUSH32 0x4552433732313A20617070726F76652063616C6C6572206973206E6F74206F77 PUSH1 0x44 DUP3 ADD MSTORE PUSH32 0x6E6572206E6F7220617070726F76656420666F7220616C6C0000000000000000 PUSH1 0x64 DUP3 ADD MSTORE PUSH1 0x84 SWAP1 REVERT JUMPDEST PUSH1 0x0 DUP2 DUP2 MSTORE PUSH1 0x2 PUSH1 0x20 MSTORE PUSH1 0x40 SWAP1 KECCAK256 SLOAD PUSH1 0x1 PUSH1 0x1 PUSH1 0xA0 SHL SUB AND ISZERO PUSH2 0x191A JUMPI PUSH1 0x0 SWAP1 DUP2 MSTORE PUSH1 0x4 PUSH1 0x20 MSTORE PUSH1 0x40 SWAP1 KECCAK256 SLOAD PUSH1 0x1 PUSH1 0x1 PUSH1 0xA0 SHL SUB AND SWAP1 JUMP JUMPDEST PUSH1 0x40 MLOAD PUSH3 0x461BCD PUSH1 0xE5 SHL DUP2 MSTORE PUSH1 0x20 PUSH1 0x4 DUP3 ADD MSTORE PUSH1 0x2C PUSH1 0x24 DUP3 ADD MSTORE PUSH32 0x4552433732313A20617070726F76656420717565727920666F72206E6F6E6578 PUSH1 0x44 DUP3 ADD MSTORE PUSH12 0x34B9BA32B73A103A37B5B2B7 PUSH1 0xA1 SHL PUSH1 0x64 DUP3 ADD MSTORE PUSH1 0x84 SWAP1 REVERT JUMPDEST ISZERO PUSH2 0x197B JUMPI JUMP JUMPDEST PUSH1 0x40 MLOAD PUSH3 0x461BCD PUSH1 0xE5 SHL DUP2 MSTORE PUSH1 0x20 PUSH1 0x4 DUP3 ADD MSTORE PUSH1 0x31 PUSH1 0x24 DUP3 ADD MSTORE PUSH32 0x4552433732313A207472616E736665722063616C6C6572206973206E6F74206F PUSH1 0x44 DUP3 ADD MSTORE PUSH17 0x1DDB995C881B9BDC88185C1C1C9BDD9959 PUSH1 0x7A SHL PUSH1 0x64 DUP3 ADD MSTORE PUSH1 0x84 SWAP1 REVERT JUMPDEST PUSH1 0x40 MLOAD SWAP1 PUSH1 0x20 DUP3 ADD DUP3 DUP2 LT PUSH8 0xFFFFFFFFFFFFFFFF DUP3 GT OR PUSH2 0x19FF JUMPI JUMPDEST PUSH1 0x40 MSTORE PUSH1 0x0 DUP3 MSTORE JUMP JUMPDEST PUSH2 0x1A07 PUSH2 0xF84 JUMP JUMPDEST PUSH2 0x19F6 JUMP JUMPDEST SWAP1 PUSH2 0x1A30 SWAP4 SWAP3 SWAP2 PUSH2 0x1A20 PUSH2 0x69A DUP5 CALLER PUSH2 0x1AA7 JUMP JUMPDEST PUSH2 0x1A2B DUP4 DUP4 DUP4 PUSH2 0x1C5E JUMP JUMPDEST PUSH2 0x1EE4 JUMP JUMPDEST ISZERO PUSH2 0x1A37 JUMPI JUMP JUMPDEST PUSH1 0x40 MLOAD PUSH3 0x461BCD PUSH1 0xE5 SHL DUP2 MSTORE DUP1 PUSH2 0x1A50 PUSH1 0x4 DUP3 ADD PUSH2 0x1A54 JUMP JUMPDEST SUB SWAP1 REVERT JUMPDEST PUSH1 0x80 SWAP1 PUSH1 0x20 DUP2 MSTORE PUSH1 0x32 PUSH1 0x20 DUP3 ADD MSTORE PUSH32 0x4552433732313A207472616E7366657220746F206E6F6E204552433732315265 PUSH1 0x40 DUP3 ADD MSTORE PUSH18 0x31B2B4BB32B91034B6B83632B6B2B73A32B9 PUSH1 0x71 SHL PUSH1 0x60 DUP3 ADD MSTORE ADD SWAP1 JUMP JUMPDEST PUSH1 0x0 DUP3 DUP2 MSTORE PUSH1 0x2 PUSH1 0x20 MSTORE PUSH1 0x40 SWAP1 KECCAK256 SLOAD PUSH1 0x1 PUSH1 0x1 PUSH1 0xA0 SHL SUB AND ISZERO PUSH2 0x1B38 JUMPI PUSH2 0x1ACD DUP3 PUSH2 0x17F8 JUMP JUMPDEST PUSH1 0x1 PUSH1 0x1 PUSH1 0xA0 SHL SUB DUP3 DUP2 AND DUP3 DUP3 AND DUP2 EQ SWAP5 SWAP1 SWAP2 SWAP1 DUP6 ISZERO PUSH2 0x1B20 JUMPI JUMPDEST POP POP POP DUP3 ISZERO PUSH2 0x1AF6 JUMPI POP POP SWAP1 JUMP JUMPDEST PUSH1 0x1 PUSH1 0x1 PUSH1 0xA0 SHL SUB AND PUSH1 0x0 SWAP1 DUP2 MSTORE PUSH1 0x5 PUSH1 0x20 MSTORE PUSH1 0x40 SWAP1 KECCAK256 PUSH1 0xFF SWAP3 POP PUSH2 0x1B1B SWAP2 SWAP1 PUSH2 0x5B3 JUMP JUMPDEST SLOAD AND SWAP1 JUMP JUMPDEST PUSH2 0x1B2D SWAP2 SWAP3 SWAP4 SWAP6 POP PUSH2 0x18E2 JUMP JUMPDEST AND EQ SWAP2 CODESIZE DUP1 DUP1 PUSH2 0x1AE8 JUMP JUMPDEST PUSH1 0x40 MLOAD PUSH3 0x461BCD PUSH1 0xE5 SHL DUP2 MSTORE PUSH1 0x20 PUSH1 0x4 DUP3 ADD MSTORE PUSH1 0x2C PUSH1 0x24 DUP3 ADD MSTORE PUSH32 0x4552433732313A206F70657261746F7220717565727920666F72206E6F6E6578 PUSH1 0x44 DUP3 ADD MSTORE PUSH12 0x34B9BA32B73A103A37B5B2B7 PUSH1 0xA1 SHL PUSH1 0x64 DUP3 ADD MSTORE PUSH1 0x84 SWAP1 REVERT JUMPDEST ISZERO PUSH2 0x1B99 JUMPI JUMP JUMPDEST PUSH1 0x40 MLOAD PUSH3 0x461BCD PUSH1 0xE5 SHL DUP2 MSTORE PUSH1 0x20 PUSH1 0x4 DUP3 ADD MSTORE PUSH1 0x24 DUP1 DUP3 ADD MSTORE PUSH32 0x4552433732313A207472616E7366657220746F20746865207A65726F20616464 PUSH1 0x44 DUP3 ADD MSTORE PUSH4 0x72657373 PUSH1 0xE0 SHL PUSH1 0x64 DUP3 ADD MSTORE PUSH1 0x84 SWAP1 REVERT JUMPDEST POP PUSH4 0x4E487B71 PUSH1 0xE0 SHL PUSH1 0x0 MSTORE PUSH1 0x11 PUSH1 0x4 MSTORE PUSH1 0x24 PUSH1 0x0 REVERT JUMPDEST PUSH1 0x0 NOT DUP2 ADD SWAP2 SWAP1 DUP3 GT PUSH2 0x1C10 JUMPI JUMP JUMPDEST PUSH2 0x1C18 PUSH2 0x1BEA JUMP JUMPDEST JUMP JUMPDEST SWAP2 SWAP1 DUP3 SUB SWAP2 DUP3 GT PUSH2 0x1C10 JUMPI JUMP JUMPDEST SWAP1 PUSH1 0x1 DUP3 ADD DUP1 SWAP3 GT PUSH2 0x1C10 JUMPI JUMP JUMPDEST SWAP1 PUSH1 0x2 DUP3 ADD DUP1 SWAP3 GT PUSH2 0x1C10 JUMPI JUMP JUMPDEST SWAP1 PUSH1 0x20 DUP3 ADD DUP1 SWAP3 GT PUSH2 0x1C10 JUMPI JUMP JUMPDEST SWAP2 SWAP1 DUP3 ADD DUP1 SWAP3 GT PUSH2 0x1C10 JUMPI JUMP JUMPDEST SWAP1 PUSH2 0x1C68 DUP4 PUSH2 0x17F8 JUMP JUMPDEST PUSH1 0x1 PUSH1 0x1 PUSH1 0xA0 SHL SUB DUP4 DUP2 AND SWAP3 SWAP1 SWAP2 DUP3 AND DUP4 SWAP1 SUB PUSH2 0x1D4E JUMPI PUSH2 0x1CC2 PUSH2 0x1D25 SWAP3 DUP3 AND SWAP5 PUSH2 0x1C94 DUP7 ISZERO ISZERO PUSH2 0x1B92 JUMP JUMPDEST PUSH2 0x1C9F DUP8 DUP5 DUP4 PUSH2 0x1FE9 JUMP JUMPDEST PUSH2 0x1CA8 DUP8 PUSH2 0x1DA5 JUMP JUMPDEST PUSH1 0x1 PUSH1 0x1 PUSH1 0xA0 SHL SUB AND PUSH1 0x0 SWAP1 DUP2 MSTORE PUSH1 0x3 PUSH1 0x20 MSTORE PUSH1 0x40 SWAP1 KECCAK256 SWAP1 JUMP JUMPDEST PUSH2 0x1CCC DUP2 SLOAD PUSH2 0x1C01 JUMP JUMPDEST SWAP1 SSTORE PUSH1 0x1 PUSH1 0x1 PUSH1 0xA0 SHL SUB DUP2 AND PUSH1 0x0 SWAP1 DUP2 MSTORE PUSH1 0x3 PUSH1 0x20 MSTORE PUSH1 0x40 SWAP1 KECCAK256 PUSH2 0x1CF0 DUP2 SLOAD PUSH2 0x1C27 JUMP JUMPDEST SWAP1 SSTORE PUSH2 0x1D06 DUP6 PUSH1 0x0 MSTORE PUSH1 0x2 PUSH1 0x20 MSTORE PUSH1 0x40 PUSH1 0x0 KECCAK256 SWAP1 JUMP JUMPDEST DUP1 SLOAD PUSH1 0x1 PUSH1 0x1 PUSH1 0xA0 SHL SUB NOT AND PUSH1 0x1 PUSH1 0x1 PUSH1 0xA0 SHL SUB SWAP1 SWAP3 AND SWAP2 SWAP1 SWAP2 OR SWAP1 SSTORE JUMP JUMPDEST PUSH32 0xDDF252AD1BE2C89B69C2B068FC378DAA952BA7F163C4A11628F55A4DF523B3EF PUSH1 0x0 PUSH1 0x40 MLOAD LOG4 JUMP JUMPDEST PUSH1 0x40 MLOAD PUSH3 0x461BCD PUSH1 0xE5 SHL DUP2 MSTORE PUSH1 0x20 PUSH1 0x4 DUP3 ADD MSTORE PUSH1 0x29 PUSH1 0x24 DUP3 ADD MSTORE PUSH32 0x4552433732313A207472616E73666572206F6620746F6B656E20746861742069 PUSH1 0x44 DUP3 ADD MSTORE PUSH9 0x39903737BA1037BBB7 PUSH1 0xB9 SHL PUSH1 0x64 DUP3 ADD MSTORE PUSH1 0x84 SWAP1 REVERT JUMPDEST PUSH1 0x0 DUP2 DUP2 MSTORE PUSH1 0x4 PUSH1 0x20 MSTORE PUSH1 0x40 DUP2 KECCAK256 DUP1 SLOAD PUSH1 0x1 PUSH1 0x1 PUSH1 0xA0 SHL SUB NOT AND SWAP1 SSTORE PUSH1 0x1 PUSH1 0x1 PUSH1 0xA0 SHL SUB PUSH2 0x1DD2 DUP4 PUSH2 0x17F8 JUMP JUMPDEST AND PUSH32 0x8C5BE1E5EBEC7D5BD14F71427D1E84F3DD0314C0F7B2291E5B200AC8C7C3B925 DUP3 PUSH1 0x40 MLOAD LOG4 JUMP JUMPDEST PUSH1 0x0 DUP3 DUP2 MSTORE PUSH1 0x4 PUSH1 0x20 MSTORE PUSH1 0x40 SWAP1 KECCAK256 DUP1 SLOAD PUSH1 0x1 PUSH1 0x1 PUSH1 0xA0 SHL SUB NOT AND PUSH1 0x1 PUSH1 0x1 PUSH1 0xA0 SHL SUB DUP4 AND OR SWAP1 SSTORE PUSH1 0x1 PUSH1 0x1 PUSH1 0xA0 SHL SUB DUP1 PUSH2 0x1E34 DUP5 PUSH2 0x17F8 JUMP JUMPDEST AND SWAP2 AND SWAP1 PUSH32 0x8C5BE1E5EBEC7D5BD14F71427D1E84F3DD0314C0F7B2291E5B200AC8C7C3B925 PUSH1 0x0 PUSH1 0x40 MLOAD LOG4 JUMP JUMPDEST SWAP1 DUP2 PUSH1 0x20 SWAP2 SUB SLT PUSH2 0x2DB JUMPI MLOAD PUSH2 0x3CD DUP2 PUSH2 0x2C9 JUMP JUMPDEST PUSH1 0x1 PUSH1 0x1 PUSH1 0xA0 SHL SUB SWAP2 DUP3 AND DUP2 MSTORE SWAP2 AND PUSH1 0x20 DUP3 ADD MSTORE PUSH1 0x40 DUP2 ADD SWAP2 SWAP1 SWAP2 MSTORE PUSH1 0x80 PUSH1 0x60 DUP3 ADD DUP2 SWAP1 MSTORE PUSH2 0x3CD SWAP3 SWAP2 ADD SWAP1 PUSH2 0x397 JUMP JUMPDEST POP PUSH1 0x40 MLOAD RETURNDATASIZE PUSH1 0x0 DUP3 RETURNDATACOPY RETURNDATASIZE SWAP1 REVERT JUMPDEST RETURNDATASIZE ISZERO PUSH2 0x1EDF JUMPI RETURNDATASIZE SWAP1 PUSH2 0x1EC5 DUP3 PUSH2 0xFFA JUMP JUMPDEST SWAP2 PUSH2 0x1ED3 PUSH1 0x40 MLOAD SWAP4 DUP5 PUSH2 0xFD8 JUMP JUMPDEST DUP3 MSTORE RETURNDATASIZE PUSH1 0x0 PUSH1 0x20 DUP5 ADD RETURNDATACOPY JUMP JUMPDEST PUSH1 0x60 SWAP1 JUMP JUMPDEST SWAP3 SWAP1 SWAP2 SWAP1 DUP3 EXTCODESIZE ISZERO PUSH2 0x1F9E JUMPI PUSH2 0x1F17 SWAP3 PUSH1 0x20 SWAP3 PUSH1 0x0 PUSH1 0x40 MLOAD DUP1 SWAP7 DUP2 SWAP6 DUP3 SWAP5 PUSH4 0xA85BD01 PUSH1 0xE1 SHL SWAP11 DUP12 DUP6 MSTORE CALLER PUSH1 0x4 DUP7 ADD PUSH2 0x1E76 JUMP JUMPDEST SUB SWAP3 PUSH1 0x1 PUSH1 0x1 PUSH1 0xA0 SHL SUB AND GAS CALL PUSH1 0x0 SWAP2 DUP2 PUSH2 0x1F6E JUMPI JUMPDEST POP PUSH2 0x1F60 JUMPI PUSH2 0x1F3A PUSH2 0x1EB4 JUMP JUMPDEST DUP1 MLOAD SWAP1 DUP2 PUSH2 0x1F5B JUMPI PUSH1 0x40 MLOAD PUSH3 0x461BCD PUSH1 0xE5 SHL DUP2 MSTORE DUP1 PUSH2 0x1A50 PUSH1 0x4 DUP3 ADD PUSH2 0x1A54 JUMP JUMPDEST PUSH1 0x20 ADD REVERT JUMPDEST PUSH1 0x1 PUSH1 0x1 PUSH1 0xE0 SHL SUB NOT AND EQ SWAP1 JUMP JUMPDEST PUSH2 0x1F90 SWAP2 SWAP3 POP PUSH1 0x20 RETURNDATASIZE DUP2 GT PUSH2 0x1F97 JUMPI JUMPDEST PUSH2 0x1F88 DUP2 DUP4 PUSH2 0xFD8 JUMP JUMPDEST DUP2 ADD SWAP1 PUSH2 0x1E61 JUMP JUMPDEST SWAP1 CODESIZE PUSH2 0x1F2D JUMP JUMPDEST POP RETURNDATASIZE PUSH2 0x1F7E JUMP JUMPDEST POP POP POP POP PUSH1 0x1 SWAP1 JUMP JUMPDEST POP PUSH4 0x4E487B71 PUSH1 0xE0 SHL PUSH1 0x0 MSTORE PUSH1 0x32 PUSH1 0x4 MSTORE PUSH1 0x24 PUSH1 0x0 REVERT JUMPDEST SWAP1 PUSH2 0x1FC8 DUP2 PUSH2 0x2146 JUMP JUMPDEST PUSH1 0x1 PUSH1 0x1 PUSH1 0xA0 SHL SUB DUP3 AND PUSH2 0x1FE0 JUMPI PUSH2 0x1C18 SWAP2 POP PUSH2 0x21BF JUMP JUMPDEST PUSH2 0x1C18 SWAP2 PUSH2 0x210E JUMP JUMPDEST SWAP1 SWAP2 SWAP1 PUSH1 0x1 PUSH1 0x1 PUSH1 0xA0 SHL SUB DUP1 DUP3 AND SWAP2 DUP3 PUSH2 0x2023 JUMPI POP PUSH2 0x2007 DUP4 PUSH2 0x2146 JUMP JUMPDEST DUP4 AND DUP1 PUSH2 0x201A JUMPI POP POP PUSH2 0x1C18 SWAP2 POP PUSH2 0x21BF JUMP JUMPDEST SUB PUSH2 0x1FE0 JUMPI POP POP JUMP JUMPDEST DUP2 DUP6 AND DUP4 SUB PUSH2 0x2033 JUMPI JUMPDEST POP PUSH2 0x2007 JUMP JUMPDEST PUSH2 0x20A7 PUSH2 0x203F DUP3 PUSH2 0x1780 JUMP JUMPDEST PUSH1 0x0 NOT DUP2 ADD SWAP1 DUP2 GT PUSH2 0x2101 JUMPI JUMPDEST PUSH2 0x2098 PUSH1 0x0 SWAP4 DUP8 DUP6 MSTORE PUSH1 0x7 PUSH1 0x20 MSTORE PUSH1 0x40 DUP6 KECCAK256 SLOAD DUP4 DUP2 SUB PUSH2 0x20AE JUMPI JUMPDEST POP DUP5 PUSH2 0x207D DUP10 PUSH1 0x0 MSTORE PUSH1 0x7 PUSH1 0x20 MSTORE PUSH1 0x40 PUSH1 0x0 KECCAK256 SWAP1 JUMP JUMPDEST SSTORE PUSH1 0x1 PUSH1 0x1 PUSH1 0xA0 SHL SUB AND PUSH1 0x0 SWAP1 DUP2 MSTORE PUSH1 0x6 PUSH1 0x20 MSTORE PUSH1 0x40 SWAP1 KECCAK256 SWAP1 JUMP JUMPDEST SWAP1 PUSH1 0x0 MSTORE PUSH1 0x20 MSTORE PUSH1 0x40 PUSH1 0x0 KECCAK256 SWAP1 JUMP JUMPDEST SSTORE CODESIZE PUSH2 0x202D JUMP JUMPDEST DUP8 DUP7 MSTORE PUSH1 0x6 PUSH1 0x20 MSTORE PUSH1 0x40 DUP7 KECCAK256 DUP5 DUP8 MSTORE PUSH1 0x20 MSTORE PUSH2 0x20FA PUSH1 0x40 DUP8 KECCAK256 SLOAD DUP1 PUSH2 0x20E9 DUP5 PUSH2 0x2098 DUP8 PUSH1 0x1 DUP1 PUSH1 0xA0 SHL SUB AND PUSH1 0x0 MSTORE PUSH1 0x6 PUSH1 0x20 MSTORE PUSH1 0x40 PUSH1 0x0 KECCAK256 SWAP1 JUMP JUMPDEST SSTORE PUSH1 0x0 MSTORE PUSH1 0x7 PUSH1 0x20 MSTORE PUSH1 0x40 PUSH1 0x0 KECCAK256 SWAP1 JUMP JUMPDEST SSTORE CODESIZE PUSH2 0x2067 JUMP JUMPDEST PUSH2 0x2109 PUSH2 0x1BEA JUMP JUMPDEST PUSH2 0x204C JUMP JUMPDEST PUSH1 0x40 SWAP1 PUSH2 0x211A DUP2 PUSH2 0x1780 JUMP JUMPDEST SWAP3 PUSH1 0x0 SWAP2 PUSH1 0x1 DUP1 PUSH1 0xA0 SHL SUB AND DUP3 MSTORE PUSH1 0x6 PUSH1 0x20 MSTORE DUP3 DUP3 KECCAK256 DUP5 DUP4 MSTORE PUSH1 0x20 MSTORE DUP1 DUP4 DUP4 KECCAK256 SSTORE DUP2 MSTORE PUSH1 0x7 PUSH1 0x20 MSTORE KECCAK256 SSTORE JUMP JUMPDEST PUSH1 0x8 SLOAD DUP2 PUSH1 0x0 MSTORE PUSH1 0x9 PUSH1 0x20 MSTORE DUP1 PUSH1 0x40 PUSH1 0x0 KECCAK256 SSTORE PUSH9 0x10000000000000000 DUP2 LT ISZERO PUSH2 0x21B2 JUMPI JUMPDEST PUSH1 0x1 DUP2 ADD DUP1 PUSH1 0x8 SSTORE DUP2 LT ISZERO PUSH2 0x21A5 JUMPI JUMPDEST PUSH1 0x8 PUSH1 0x0 MSTORE PUSH32 0xF3F7A9FE364FAAB93B216DA50A3214154F22A0A2B415B23A84C8169E8B636EE3 ADD SSTORE JUMP JUMPDEST PUSH2 0x21AD PUSH2 0x1FA7 JUMP JUMPDEST PUSH2 0x217B JUMP JUMPDEST PUSH2 0x21BA PUSH2 0xF84 JUMP JUMPDEST PUSH2 0x216B JUMP JUMPDEST PUSH1 0x8 DUP1 SLOAD PUSH1 0x0 NOT SWAP3 SWAP1 DUP4 DUP2 ADD DUP2 DUP2 GT PUSH2 0x22C8 JUMPI JUMPDEST PUSH2 0x226F PUSH1 0x0 SWAP4 DUP5 SWAP3 DUP2 DUP5 MSTORE PUSH1 0x9 PUSH1 0x20 MSTORE DUP5 PUSH1 0x40 DUP6 KECCAK256 SLOAD SWAP2 LT ISZERO PUSH2 0x22BB JUMPI JUMPDEST DUP7 DUP5 MSTORE PUSH2 0x225E PUSH32 0xF3F7A9FE364FAAB93B216DA50A3214154F22A0A2B415B23A84C8169E8B636EE2 SWAP6 DUP7 DUP2 ADD SLOAD SWAP1 DUP4 LT ISZERO PUSH2 0x22AE JUMPI JUMPDEST DUP9 DUP7 MSTORE DUP1 DUP4 PUSH32 0xF3F7A9FE364FAAB93B216DA50A3214154F22A0A2B415B23A84C8169E8B636EE3 ADD SSTORE PUSH1 0x0 MSTORE PUSH1 0x9 PUSH1 0x20 MSTORE PUSH1 0x40 PUSH1 0x0 KECCAK256 SWAP1 JUMP JUMPDEST SSTORE PUSH1 0x0 MSTORE PUSH1 0x9 PUSH1 0x20 MSTORE PUSH1 0x40 PUSH1 0x0 KECCAK256 SWAP1 JUMP JUMPDEST SSTORE DUP3 SLOAD SWAP4 DUP5 ISZERO PUSH2 0x229A JUMPI DUP5 ADD SWAP4 DUP1 DUP6 LT ISZERO PUSH2 0x228D JUMPI JUMPDEST DUP4 DUP4 MSTORE ADD SSTORE SSTORE JUMP JUMPDEST PUSH2 0x2295 PUSH2 0x1FA7 JUMP JUMPDEST PUSH2 0x2285 JUMP JUMPDEST PUSH4 0x4E487B71 PUSH1 0xE0 SHL DUP4 MSTORE PUSH1 0x31 PUSH1 0x4 MSTORE PUSH1 0x24 DUP4 REVERT JUMPDEST PUSH2 0x22B6 PUSH2 0x1FA7 JUMP JUMPDEST PUSH2 0x2226 JUMP JUMPDEST PUSH2 0x22C3 PUSH2 0x1FA7 JUMP JUMPDEST PUSH2 0x21F1 JUMP JUMPDEST PUSH2 0x22D0 PUSH2 0x1BEA JUMP JUMPDEST PUSH2 0x21D3 JUMP JUMPDEST PUSH1 0x3 GT ISZERO PUSH2 0xD0A JUMPI JUMP JUMPDEST PUSH1 0x1 SWAP1 PUSH1 0x0 NOT DUP2 EQ PUSH2 0x22EF JUMPI ADD SWAP1 JUMP JUMPDEST PUSH2 0x22F7 PUSH2 0x1BEA JUMP JUMPDEST ADD SWAP1 JUMP JUMPDEST PUSH1 0x1 PUSH1 0x1 PUSH1 0xA0 SHL SUB DUP2 AND SWAP1 DUP2 ISZERO PUSH2 0x23DD JUMPI PUSH1 0x0 DUP4 DUP2 MSTORE PUSH1 0x2 PUSH1 0x20 MSTORE PUSH1 0x40 SWAP1 KECCAK256 SLOAD PUSH1 0x1 PUSH1 0x1 PUSH1 0xA0 SHL SUB AND PUSH2 0x2398 JUMPI DUP1 PUSH2 0x2336 DUP5 PUSH2 0x236E SWAP4 PUSH2 0x1FBE JUMP JUMPDEST PUSH1 0x1 PUSH1 0x1 PUSH1 0xA0 SHL SUB DUP2 AND PUSH1 0x0 SWAP1 DUP2 MSTORE PUSH1 0x3 PUSH1 0x20 MSTORE PUSH1 0x40 SWAP1 KECCAK256 PUSH2 0x2358 DUP2 SLOAD PUSH2 0x1C27 JUMP JUMPDEST SWAP1 SSTORE PUSH2 0x1D06 DUP5 PUSH1 0x0 MSTORE PUSH1 0x2 PUSH1 0x20 MSTORE PUSH1 0x40 PUSH1 0x0 KECCAK256 SWAP1 JUMP JUMPDEST PUSH1 0x0 PUSH32 0xDDF252AD1BE2C89B69C2B068FC378DAA952BA7F163C4A11628F55A4DF523B3EF DUP2 PUSH1 0x40 MLOAD LOG4 JUMP JUMPDEST PUSH1 0x40 MLOAD PUSH3 0x461BCD PUSH1 0xE5 SHL DUP2 MSTORE PUSH1 0x20 PUSH1 0x4 DUP3 ADD MSTORE PUSH1 0x1C PUSH1 0x24 DUP3 ADD MSTORE PUSH32 0x4552433732313A20746F6B656E20616C7265616479206D696E74656400000000 PUSH1 0x44 DUP3 ADD MSTORE PUSH1 0x64 SWAP1 REVERT JUMPDEST PUSH1 0x64 PUSH1 0x40 MLOAD PUSH3 0x461BCD PUSH1 0xE5 SHL DUP2 MSTORE PUSH1 0x20 PUSH1 0x4 DUP3 ADD MSTORE PUSH1 0x20 PUSH1 0x24 DUP3 ADD MSTORE PUSH32 0x4552433732313A206D696E7420746F20746865207A65726F2061646472657373 PUSH1 0x44 DUP3 ADD MSTORE REVERT JUMPDEST ISZERO PUSH2 0x2428 JUMPI JUMP JUMPDEST PUSH1 0x40 MLOAD PUSH3 0x461BCD PUSH1 0xE5 SHL DUP2 MSTORE PUSH1 0x20 PUSH1 0x4 DUP3 ADD MSTORE PUSH1 0x9 PUSH1 0x24 DUP3 ADD MSTORE PUSH9 0x1B9BDD08195E1A5CDD PUSH1 0xBA SHL PUSH1 0x44 DUP3 ADD MSTORE PUSH1 0x64 SWAP1 REVERT JUMPDEST ISZERO PUSH2 0x2460 JUMPI JUMP JUMPDEST PUSH1 0x40 MLOAD PUSH3 0x461BCD PUSH1 0xE5 SHL DUP2 MSTORE PUSH1 0x20 PUSH1 0x4 DUP3 ADD MSTORE PUSH1 0x1B PUSH1 0x24 DUP3 ADD MSTORE PUSH32 0x63616E6E6F74207769746864726177206F6E6365207374616B65640000000000 PUSH1 0x44 DUP3 ADD MSTORE PUSH1 0x64 SWAP1 REVERT JUMPDEST ISZERO PUSH2 0x24AC JUMPI JUMP JUMPDEST PUSH1 0x40 MLOAD PUSH3 0x461BCD PUSH1 0xE5 SHL DUP2 MSTORE PUSH1 0x20 PUSH1 0x4 DUP3 ADD MSTORE PUSH1 0xD PUSH1 0x24 DUP3 ADD MSTORE PUSH13 0x3737BA103A34329037BBB732B9 PUSH1 0x99 SHL PUSH1 0x44 DUP3 ADD MSTORE PUSH1 0x64 SWAP1 REVERT JUMPDEST ISZERO PUSH2 0x24E8 JUMPI JUMP JUMPDEST PUSH1 0x40 MLOAD PUSH3 0x461BCD PUSH1 0xE5 SHL DUP2 MSTORE PUSH1 0x20 PUSH1 0x4 DUP3 ADD MSTORE PUSH1 0x14 PUSH1 0x24 DUP3 ADD MSTORE PUSH20 0x1B9BDD08195B9BDD59DA0819195C1BDCDA5D1959 PUSH1 0x62 SHL PUSH1 0x44 DUP3 ADD MSTORE PUSH1 0x64 SWAP1 REVERT JUMPDEST ISZERO PUSH2 0x252B JUMPI JUMP JUMPDEST PUSH1 0x40 MLOAD PUSH3 0x461BCD PUSH1 0xE5 SHL DUP2 MSTORE PUSH1 0x20 PUSH1 0x4 DUP3 ADD MSTORE PUSH1 0x1C PUSH1 0x24 DUP3 ADD MSTORE PUSH32 0x757365207769746864726177207768656E206E6F74207374616B656400000000 PUSH1 0x44 DUP3 ADD MSTORE PUSH1 0x64 SWAP1 REVERT JUMPDEST PUSH1 0x1 PUSH1 0x1 PUSH1 0xFE SHL SUB DUP2 GT PUSH1 0x1 AND PUSH2 0x2588 JUMPI JUMPDEST PUSH1 0x2 SHL SWAP1 JUMP JUMPDEST PUSH2 0x2590 PUSH2 0x1BEA JUMP JUMPDEST PUSH2 0x2582 JUMP JUMPDEST PUSH1 0x0 MSTORE PUSH1 0xB PUSH1 0x20 MSTORE PUSH1 0x40 PUSH1 0x0 KECCAK256 SLOAD SWAP1 PUSH1 0x0 NOT SWAP2 DUP2 DUP4 DIV DUP2 GT DUP3 ISZERO ISZERO AND PUSH2 0x25ED JUMPI JUMPDEST PUSH1 0xC SLOAD SWAP2 DUP3 ISZERO PUSH2 0x25D7 JUMPI MUL DIV SWAP1 DUP2 ADD SWAP1 DUP2 GT PUSH2 0x25CF JUMPI SWAP1 JUMP JUMPDEST PUSH2 0x3CD PUSH2 0x1BEA JUMP JUMPDEST PUSH4 0x4E487B71 PUSH1 0xE0 SHL PUSH1 0x0 MSTORE PUSH1 0x12 PUSH1 0x4 MSTORE PUSH1 0x24 PUSH1 0x0 REVERT JUMPDEST PUSH2 0x25F5 PUSH2 0x1BEA JUMP JUMPDEST PUSH2 0x25B6 JUMP JUMPDEST PUSH1 0xFF PUSH1 0xE SLOAD AND PUSH1 0x3 DUP2 LT ISZERO PUSH2 0xD0A JUMPI PUSH2 0x2613 JUMPI POP PUSH1 0x0 SWAP1 JUMP JUMPDEST PUSH2 0x3CD SWAP1 SELFBALANCE SWAP1 PUSH2 0x2595 JUMP JUMPDEST ISZERO PUSH2 0x2625 JUMPI JUMP JUMPDEST PUSH1 0x40 MLOAD PUSH3 0x461BCD PUSH1 0xE5 SHL DUP2 MSTORE PUSH1 0x20 PUSH1 0x4 DUP3 ADD MSTORE PUSH1 0xE PUSH1 0x24 DUP3 ADD MSTORE PUSH14 0xDCDEE840CADCDEEACED040CAE8D PUSH1 0x93 SHL PUSH1 0x44 DUP3 ADD MSTORE PUSH1 0x64 SWAP1 REVERT JUMPDEST ISZERO PUSH2 0x2662 JUMPI JUMP JUMPDEST PUSH1 0x40 MLOAD PUSH3 0x461BCD PUSH1 0xE5 SHL DUP2 MSTORE PUSH1 0x20 PUSH1 0x4 DUP3 ADD MSTORE PUSH1 0x1E PUSH1 0x24 DUP3 ADD MSTORE PUSH32 0x7769746864726177616C2063726564656E7469616C206D69736D617463680000 PUSH1 0x44 DUP3 ADD MSTORE PUSH1 0x64 SWAP1 REVERT JUMPDEST SWAP1 DUP1 PUSH1 0x20 SWAP4 SWAP3 DUP2 DUP5 MSTORE DUP5 DUP5 ADD CALLDATACOPY PUSH1 0x0 DUP3 DUP3 ADD DUP5 ADD MSTORE PUSH1 0x1F ADD PUSH1 0x1F NOT AND ADD ADD SWAP1 JUMP JUMPDEST SWAP8 SWAP7 SWAP6 SWAP2 SWAP3 PUSH2 0x2706 SWAP5 PUSH2 0x26EA PUSH2 0x26F8 SWAP4 PUSH1 0x60 SWAP9 SWAP7 PUSH1 0x80 DUP14 MSTORE PUSH1 0x80 DUP14 ADD SWAP2 PUSH2 0x26A7 JUMP JUMPDEST SWAP2 DUP11 DUP4 SUB PUSH1 0x20 DUP13 ADD MSTORE PUSH2 0x26A7 JUMP JUMPDEST SWAP2 DUP8 DUP4 SUB PUSH1 0x40 DUP10 ADD MSTORE PUSH2 0x26A7 JUMP JUMPDEST SWAP4 ADD MSTORE JUMP JUMPDEST PUSH1 0x1 PUSH1 0x1 PUSH1 0xA0 SHL SUB AND PUSH1 0x1 PUSH1 0xF8 SHL DUP2 ADD SWAP1 DUP2 LT PUSH2 0x2739 JUMPI JUMPDEST PUSH1 0x40 MLOAD SWAP1 PUSH1 0x20 DUP3 ADD MSTORE PUSH1 0x20 DUP2 MSTORE PUSH2 0x3CD DUP2 PUSH2 0xFBC JUMP JUMPDEST PUSH2 0x2741 PUSH2 0x1BEA JUMP JUMPDEST PUSH2 0x2723 JUMP JUMPDEST SWAP1 PUSH2 0x22F7 PUSH1 0x20 SWAP3 DUP3 DUP2 MLOAD SWAP5 DUP6 SWAP3 ADD PUSH2 0x374 JUMP JUMPDEST PUSH1 0x40 MLOAD SWAP1 PUSH2 0x2766 DUP3 PUSH2 0xFBC JUMP JUMPDEST PUSH1 0x1 DUP3 MSTORE PUSH1 0x3 PUSH1 0xFC SHL PUSH1 0x20 DUP4 ADD MSTORE JUMP JUMPDEST SWAP1 PUSH2 0x2780 DUP3 PUSH2 0xFFA JUMP JUMPDEST PUSH2 0x278D PUSH1 0x40 MLOAD SWAP2 DUP3 PUSH2 0xFD8 JUMP JUMPDEST DUP3 DUP2 MSTORE DUP1 SWAP3 PUSH2 0x279E PUSH1 0x1F NOT SWAP2 PUSH2 0xFFA JUMP JUMPDEST ADD SWAP1 PUSH1 0x20 CALLDATASIZE SWAP2 ADD CALLDATACOPY JUMP JUMPDEST SWAP1 PUSH1 0x20 SWAP2 DUP1 MLOAD DUP3 LT ISZERO PUSH2 0x27BA JUMPI ADD ADD SWAP1 JUMP JUMPDEST PUSH2 0x27C2 PUSH2 0x1FA7 JUMP JUMPDEST ADD ADD SWAP1 JUMP JUMPDEST DUP1 ISZERO PUSH2 0x2863 JUMPI PUSH1 0x0 DUP2 DUP2 DUP2 DUP1 JUMPDEST PUSH2 0x284B JUMPI POP PUSH2 0x27E2 DUP2 PUSH2 0x2776 JUMP JUMPDEST SWAP4 JUMPDEST PUSH2 0x27EE JUMPI POP POP POP SWAP1 JUMP JUMPDEST PUSH1 0x0 NOT DUP2 ADD SWAP1 DUP2 GT PUSH2 0x283E JUMPI JUMPDEST DUP1 SWAP2 PUSH1 0xA SWAP2 PUSH2 0x2828 PUSH1 0x30 DUP5 DUP5 MOD DUP2 ADD DUP1 SWAP2 GT PUSH2 0x2831 JUMPI JUMPDEST PUSH1 0xF8 SHL PUSH1 0x1 PUSH1 0x1 PUSH1 0xF8 SHL SUB NOT AND DUP7 BYTE SWAP2 DUP8 PUSH2 0x27A8 JUMP JUMPDEST MSTORE8 DIV SWAP1 DUP2 PUSH2 0x27E4 JUMP JUMPDEST PUSH2 0x2839 PUSH2 0x1BEA JUMP JUMPDEST PUSH2 0x2812 JUMP JUMPDEST PUSH2 0x2846 PUSH2 0x1BEA JUMP JUMPDEST PUSH2 0x27FB JUMP JUMPDEST SWAP2 POP PUSH2 0x2858 PUSH1 0xA SWAP2 PUSH2 0x22DF JUMP JUMPDEST SWAP2 DIV DUP1 DUP5 SWAP3 SWAP2 PUSH2 0x27D4 JUMP JUMPDEST POP PUSH2 0x3CD PUSH2 0x2759 JUMP JUMPDEST PUSH1 0x40 MLOAD SWAP1 PUSH1 0x60 DUP3 ADD DUP3 DUP2 LT PUSH8 0xFFFFFFFFFFFFFFFF DUP3 GT OR PUSH2 0x28DD JUMPI JUMPDEST PUSH1 0x40 MSTORE PUSH1 0x40 DUP3 MSTORE PUSH32 0x6768696A6B6C6D6E6F707172737475767778797A303132333435363738392B2F PUSH1 0x40 DUP4 PUSH32 0x4142434445464748494A4B4C4D4E4F505152535455565758595A616263646566 PUSH1 0x20 DUP3 ADD MSTORE ADD MSTORE JUMP JUMPDEST PUSH2 0x28E5 PUSH2 0xF84 JUMP JUMPDEST PUSH2 0x2888 JUMP JUMPDEST DUP1 MLOAD ISZERO PUSH2 0x29CA JUMPI PUSH2 0x28F9 PUSH2 0x286C JUMP JUMPDEST PUSH2 0x2915 PUSH2 0x2910 PUSH2 0x2909 DUP5 MLOAD PUSH2 0x1C35 JUMP JUMPDEST PUSH1 0x3 SWAP1 DIV SWAP1 JUMP JUMPDEST PUSH2 0x2570 JUMP JUMPDEST SWAP2 PUSH2 0x2927 PUSH2 0x2922 DUP5 PUSH2 0x1C43 JUMP JUMPDEST PUSH2 0x2776 JUMP JUMPDEST SWAP3 DUP4 MSTORE DUP1 DUP2 MLOAD DUP3 ADD SWAP1 PUSH1 0x20 DUP6 ADD SWAP4 JUMPDEST DUP3 DUP3 LT PUSH2 0x2978 JUMPI POP POP POP PUSH1 0x3 SWAP1 MLOAD MOD DUP1 PUSH1 0x1 EQ PUSH2 0x2967 JUMPI PUSH1 0x2 EQ PUSH2 0x2958 JUMPI POP SWAP1 JUMP JUMPDEST PUSH1 0x3D PUSH1 0xF8 SHL PUSH1 0x0 NOT SWAP1 SWAP2 ADD MSTORE SWAP1 JUMP JUMPDEST POP PUSH2 0x3D3D PUSH1 0xF0 SHL PUSH1 0x1 NOT SWAP1 SWAP2 ADD MSTORE SWAP1 JUMP JUMPDEST SWAP1 SWAP2 SWAP4 PUSH1 0x4 SWAP1 PUSH1 0x3 DUP1 SWAP5 ADD SWAP4 DUP5 MLOAD PUSH1 0x1 SWAP1 PUSH1 0x3F SWAP1 DUP3 DUP3 DUP3 PUSH1 0x12 SHR AND DUP9 ADD ADD MLOAD DUP6 MSTORE8 DUP3 DUP3 DUP3 PUSH1 0xC SHR AND DUP9 ADD ADD MLOAD DUP4 DUP7 ADD MSTORE8 DUP3 DUP3 DUP3 PUSH1 0x6 SHR AND DUP9 ADD ADD MLOAD PUSH1 0x2 DUP7 ADD MSTORE8 AND DUP6 ADD ADD MLOAD SWAP1 DUP3 ADD MSTORE8 ADD SWAP4 SWAP2 SWAP1 PUSH2 0x2936 JUMP JUMPDEST POP PUSH2 0x3CD PUSH2 0x19DA JUMP JUMPDEST PUSH2 0x29DC SWAP1 PUSH2 0x2A6F JUMP JUMPDEST PUSH2 0x3CD PUSH1 0x67 PUSH1 0x40 MLOAD DUP1 SWAP4 PUSH32 0x3C7376672077696474683D2234303022206865696768743D223430302220786D PUSH1 0x20 DUP4 ADD MSTORE PUSH32 0x6C6E733D22687474703A2F2F7777772E77332E6F72672F323030302F73766722 PUSH1 0x40 DUP4 ADD MSTORE PUSH1 0x1F PUSH1 0xF9 SHL PUSH1 0x60 DUP4 ADD MSTORE PUSH2 0x2A50 DUP2 MLOAD DUP1 SWAP3 PUSH1 0x20 PUSH1 0x61 DUP7 ADD SWAP2 ADD PUSH2 0x374 JUMP JUMPDEST DUP2 ADD PUSH6 0x1E17B9BB339F PUSH1 0xD1 SHL PUSH1 0x61 DUP3 ADD MSTORE SUB PUSH1 0x47 DUP2 ADD DUP5 MSTORE ADD DUP3 PUSH2 0xFD8 JUMP JUMPDEST PUSH2 0x2A83 DUP2 PUSH1 0x0 MSTORE PUSH1 0xB PUSH1 0x20 MSTORE PUSH1 0x40 PUSH1 0x0 KECCAK256 SWAP1 JUMP JUMPDEST SLOAD PUSH8 0xDE0B6B3A7640000 SWAP1 DIV PUSH2 0x2A98 SWAP1 PUSH2 0x4335 JUMP JUMPDEST SWAP1 PUSH2 0x2AA2 SWAP1 PUSH2 0x25FA JUMP JUMPDEST PUSH2 0x2AAB SWAP1 PUSH2 0x4335 JUMP JUMPDEST PUSH1 0x40 DUP1 MLOAD PUSH32 0x3C7376672076696577426F783D222D313030202D313030203130303020313030 PUSH1 0x20 DUP3 ADD MSTORE PUSH3 0x18111F PUSH1 0xE9 SHL SWAP2 DUP2 ADD SWAP2 SWAP1 SWAP2 MSTORE SWAP2 DUP3 SWAP2 SWAP1 PUSH1 0x43 DUP4 ADD PUSH32 0x3C7265637420783D222D3130302220793D222D313030222077696474683D2231 DUP2 MSTORE PUSH32 0x30303022206865696768743D2231303030222069643D227376675F3122206669 PUSH1 0x20 DUP3 ADD MSTORE PUSH32 0x6C6C3D222366666622207374726F6B652D77696474683D223322207374726F6B PUSH1 0x40 DUP3 ADD MSTORE PUSH32 0x653D2223303030222F3E3C7061746820636C69702D72756C653D226576656E6F PUSH1 0x60 DUP3 ADD MSTORE PUSH32 0x64642220643D224D31343420393563302D342D322D372D342D31302D332D332D PUSH1 0x80 DUP3 ADD MSTORE PUSH32 0x362D342D31302D34732D3720312D31302034632D3220332D3420362D34203130 PUSH1 0xA0 DUP3 ADD MSTORE PUSH32 0x6131342031342030203020302031342031342031342031342030203020302031 PUSH1 0xC0 DUP3 ADD MSTORE PUSH32 0x342D31347A222066696C6C3D2223653931653233222066696C6C2D72756C653D PUSH1 0xE0 DUP3 ADD MSTORE PUSH11 0x1132BB32B737B23211179F PUSH1 0xA9 SHL PUSH2 0x100 DUP3 ADD MSTORE PUSH2 0x10B ADD PUSH32 0x3C7061746820636C69702D72756C653D226576656E6F64642220643D224D3334 DUP2 MSTORE PUSH32 0x39203837632D332D332D362D342D31302D34732D3720312D31302034632D3220 PUSH1 0x20 DUP3 ADD MSTORE PUSH32 0x332D3420362D3420313073322037203420313061313420313420302030203020 PUSH1 0x40 DUP3 ADD MSTORE PUSH32 0x3230203063322D3320342D3620342D3130732D322D372D342D31307A22206669 PUSH1 0x60 DUP3 ADD MSTORE PUSH32 0x6C6C3D2223303262326537222066696C6C2D72756C653D226576656E6F646422 PUSH1 0x80 DUP3 ADD MSTORE PUSH2 0x179F PUSH1 0xF1 SHL PUSH1 0xA0 DUP3 ADD MSTORE PUSH1 0xA2 ADD PUSH32 0x3C7061746820636C69702D72756C653D226576656E6F64642220643D224D3439 DUP2 MSTORE PUSH32 0x39203836632D332D322D362D342D31302D34732D3720322D31302034632D3220 PUSH1 0x20 DUP3 ADD MSTORE PUSH32 0x332D3420372D3420313061313420313420302030203020313420313463342030 PUSH1 0x40 DUP3 ADD MSTORE PUSH32 0x20372D312031302D3420322D3220342D3620342D313020302D332D322D372D34 PUSH1 0x60 DUP3 ADD MSTORE PUSH32 0x2D31305A222066696C6C3D2223666162633136222066696C6C2D72756C653D22 PUSH1 0x80 DUP3 ADD MSTORE PUSH10 0x32BB32B737B23211179F PUSH1 0xB1 SHL PUSH1 0xA0 DUP3 ADD MSTORE PUSH1 0xAA ADD PUSH32 0x3C7061746820636C69702D72756C653D226576656E6F64642220643D224D3637 DUP2 MSTORE PUSH32 0x38203930632D332D332D362D352D31302D35732D3720322D31302035632D3320 PUSH1 0x20 DUP3 ADD MSTORE PUSH32 0x322D3420362D3420392030203420312038203420313020332033203620352031 PUSH1 0x40 DUP3 ADD MSTORE PUSH32 0x30203573372D322031302D3563322D3220342D3620342D313020302D332D322D PUSH1 0x60 DUP3 ADD MSTORE PUSH32 0x372D342D395A222066696C6C3D2223303262326537222066696C6C2D72756C65 PUSH1 0x80 DUP3 ADD MSTORE PUSH12 0x1E9132BB32B737B23211179F PUSH1 0xA1 SHL PUSH1 0xA0 DUP3 ADD MSTORE PUSH1 0xAC ADD PUSH32 0x3C7061746820636C69702D72756C653D226576656E6F64642220643D224D3433 DUP2 MSTORE PUSH32 0x33203436762D38632D31352D352D33302D332D343420352D3420322D3820372D PUSH1 0x20 DUP3 ADD MSTORE PUSH32 0x31322031346C2D38203231632D3220332D3320382D332031346C2D3220313463 PUSH1 0x40 DUP3 ADD MSTORE PUSH32 0x2D3220362D332031352D332032392031372D322033302D342034312D37203136 PUSH1 0x60 DUP3 ADD MSTORE PUSH32 0x2D342032382D31312033362D31392D3720302D313620322D323620356C2D3235 PUSH1 0x80 DUP3 ADD MSTORE PUSH32 0x2038632D3520302D392D322D31302D362D322D342D322D382D312D31326C392D PUSH1 0xA0 DUP3 ADD MSTORE PUSH32 0x313263342D3420392D352031352D346C322D3320332D322037203120362D3120 PUSH1 0xC0 DUP3 ADD MSTORE PUSH32 0x31312D3563352D3120392D332031322D36682D35326C2D342D32762D3563302D PUSH1 0xE0 DUP3 ADD MSTORE PUSH32 0x3420332D3720372D382031302D352032332D382034312D31315A6D3820323868 PUSH2 0x100 DUP3 ADD MSTORE PUSH32 0x352D355A6D35203020322031633420312036203120382D31682D31305A222066 PUSH2 0x120 DUP3 ADD MSTORE PUSH20 0x34B63616B93AB6329E9132BB32B737B23211179F PUSH1 0x61 SHL PUSH2 0x140 DUP3 ADD MSTORE PUSH2 0x154 ADD PUSH1 0x0 DUP1 MLOAD PUSH1 0x20 PUSH2 0x43F9 DUP4 CODECOPY DUP2 MLOAD SWAP2 MSTORE DUP2 MSTORE PUSH32 0x224D34343120373268356D302030203220316D30203063342031203620312038 PUSH1 0x20 DUP3 ADD MSTORE PUSH32 0x2D316D302030682D31306D302030682D356D302030682D35326D3020302D342D PUSH1 0x40 DUP3 ADD MSTORE PUSH32 0x32762D3563302D3420332D3720372D382031302D352032332D382034312D3131 PUSH1 0x60 DUP3 ADD MSTORE PUSH32 0x6D302030762D386D302030632D31352D352D33302D332D343420352D3420322D PUSH1 0x80 DUP3 ADD MSTORE PUSH32 0x3820372D31322031346D3020302D382032316D302030632D3220332D3320382D PUSH1 0xA0 DUP3 ADD MSTORE PUSH32 0x332031346C2D32203134632D3220362D332031352D332032392031372D322033 PUSH1 0xC0 DUP3 ADD MSTORE PUSH32 0x302D342034312D372031362D342032382D31312033362D31392D3720302D3136 PUSH1 0xE0 DUP3 ADD MSTORE PUSH32 0x20322D323620356D3020302D323520386D302030632D3520302D392D322D3130 PUSH2 0x100 DUP3 ADD MSTORE PUSH32 0x2D362D322D342D322D382D312D31326C392D313263342D3420392D352031352D PUSH2 0x120 DUP3 ADD MSTORE PUSH32 0x346C322D3320332D326D302030203720316D30203020362D312031312D356335 PUSH2 0x140 DUP3 ADD MSTORE PUSH32 0x2D3120392D332031322D36222066696C6C3D226E6F6E6522207374726F6B653D PUSH2 0x160 DUP3 ADD MSTORE PUSH32 0x222330303022207374726F6B652D77696474683D2231322E3222207374726F6B PUSH2 0x180 DUP3 ADD MSTORE PUSH32 0x652D6C696E656361703D22726F756E6422207374726F6B652D6C696E656A6F69 PUSH2 0x1A0 DUP3 ADD MSTORE PUSH11 0x371E913937BAB73211179F PUSH1 0xA9 SHL PUSH2 0x1C0 DUP3 ADD MSTORE PUSH2 0x1CB ADD PUSH32 0x3C7061746820636C69702D72756C653D226576656E6F64642220643D226D3632 DUP2 MSTORE PUSH32 0x3820343620322D3920332D3920332D3620342D3563322D3520332D3920312D31 PUSH1 0x20 DUP3 ADD MSTORE PUSH32 0x336C2D31352033352D31342033362D35203134632D3320352D3720372D313320 PUSH1 0x40 DUP3 ADD MSTORE PUSH32 0x342D31342D362D32362D31352D33332D32366C2D382D3136632D332D352D362D PUSH1 0x60 DUP3 ADD MSTORE PUSH32 0x372D382D352D3720382D31322031392D31342033356C2D342034316332203020 PUSH1 0x80 DUP3 ADD MSTORE PUSH32 0x3420312034203476326C322D3163322D3320332D3820342D31346C332D313663 PUSH1 0xA0 DUP3 ADD MSTORE PUSH32 0x302D3620312D313020332D313320312D3320342D3420382D3473392032203134 PUSH1 0xC0 DUP3 ADD MSTORE PUSH32 0x20356C3133203130203132203133633620352031302039203135203131203520 PUSH1 0xE0 DUP3 ADD MSTORE PUSH32 0x302037203020372D3220302D313120322D323320352D33366C31312D33355A22 PUSH2 0x100 DUP3 ADD MSTORE PUSH22 0x103334B63616B93AB6329E9132BB32B737B23211179F PUSH1 0x51 SHL PUSH2 0x120 DUP3 ADD MSTORE PUSH2 0x136 ADD PUSH1 0x0 DUP1 MLOAD PUSH1 0x20 PUSH2 0x43F9 DUP4 CODECOPY DUP2 MLOAD SWAP2 MSTORE DUP2 MSTORE PUSH32 0x226D36333020333720332D3920332D366D30203020342D356D30203063322D35 PUSH1 0x20 DUP3 ADD MSTORE PUSH32 0x20332D3920312D31336C2D31352033352D31342033366D3020302D352031346D PUSH1 0x40 DUP3 ADD MSTORE PUSH32 0x302030632D3320352D3720372D313320342D31342D362D32362D31352D33332D PUSH1 0x60 DUP3 ADD MSTORE PUSH32 0x32366D3020302D382D31366D302030632D332D352D362D372D382D352D372038 PUSH1 0x80 DUP3 ADD MSTORE PUSH32 0x2D31322031392D31342033356D3020302D342034316D30203063322030203420 PUSH1 0xA0 DUP3 ADD MSTORE PUSH32 0x31203420346D30203076326D30203020322D3163322D3320332D3820342D3134 PUSH1 0xC0 DUP3 ADD MSTORE PUSH32 0x6D30203020332D31366D30203063302D3620312D313020332D313320312D3320 PUSH1 0xE0 DUP3 ADD MSTORE PUSH32 0x342D3420382D347339203220313420356C31332031306D302030203132203133 PUSH2 0x100 DUP3 ADD MSTORE PUSH32 0x6D302030633620352031302039203135203131203520302037203020372D3220 PUSH2 0x120 DUP3 ADD MSTORE PUSH32 0x302D313120322D323320352D333661363837203638372030203020312031332D PUSH2 0x140 DUP3 ADD MSTORE PUSH32 0x3434222066696C6C3D226E6F6E6522207374726F6B653D222330303022207374 PUSH2 0x160 DUP3 ADD MSTORE PUSH32 0x726F6B652D77696474683D2231322E3222207374726F6B652D6C696E65636170 PUSH2 0x180 DUP3 ADD MSTORE PUSH32 0x3D22726F756E6422207374726F6B652D6C696E656A6F696E3D22726F756E6422 PUSH2 0x1A0 DUP3 ADD MSTORE PUSH2 0x179F PUSH1 0xF1 SHL PUSH2 0x1C0 DUP3 ADD MSTORE PUSH2 0x1C2 ADD PUSH32 0x3C7061746820636C69702D72756C653D226576656E6F64642220643D224D3738 DUP2 MSTORE PUSH32 0x36203338762D38682D386C2D3331203231632D323220392D33332031392D3331 PUSH1 0x20 DUP3 ADD MSTORE PUSH32 0x203239203220342035203720313020386C313620312031392D32203137203120 PUSH1 0x40 DUP3 ADD MSTORE PUSH32 0x3320312032203476366C2D332034632D3620362D31332031302D32322031342D PUSH1 0x60 DUP3 ADD MSTORE PUSH32 0x3820342D313620362D323420382D3320332D3520372D3520313020342D342031 PUSH1 0x80 DUP3 ADD MSTORE PUSH32 0x312D372031392D31316C32322D3863382D332031342D362031382D313020362D PUSH1 0xA0 DUP3 ADD MSTORE PUSH32 0x3520392D31312031302D31382D362D342D31362D362D32382D36682D3331632D PUSH1 0xC0 DUP3 ADD MSTORE PUSH32 0x322D312D332D332D332D366C312D376331362D31332033312D32312034362D32 PUSH1 0xE0 DUP3 ADD MSTORE PUSH32 0x3620322D3120332D3320332D355A222066696C6C2D72756C653D226576656E6F PUSH2 0x100 DUP3 ADD MSTORE PUSH5 0x323211179F PUSH1 0xD9 SHL PUSH2 0x120 DUP3 ADD MSTORE PUSH2 0x125 ADD PUSH1 0x0 DUP1 MLOAD PUSH1 0x20 PUSH2 0x43F9 DUP4 CODECOPY DUP2 MLOAD SWAP2 MSTORE DUP2 MSTORE PUSH32 0x224D373836203330682D386D3020302D3331203231632D323220392D33332031 PUSH1 0x20 DUP3 ADD MSTORE PUSH32 0x392D3331203239203220342035203720313020386D3020302031362031203139 PUSH1 0x40 DUP3 ADD MSTORE PUSH32 0x2D3220313720316D302030203320316D302030203220346D30203076366D3020 PUSH1 0x60 DUP3 ADD MSTORE PUSH32 0x302D3320356D302030632D3620352D313320392D32322031332D3820342D3136 PUSH1 0x80 DUP3 ADD MSTORE PUSH32 0x20362D323420382D3320332D3520372D3520313020342D342031312D37203139 PUSH1 0xA0 DUP3 ADD MSTORE PUSH32 0x2D31316D3020302032322D386D30203063382D332031342D362031382D313020 PUSH1 0xC0 DUP3 ADD MSTORE PUSH32 0x362D3520392D31312031302D31382D362D342D31362D362D32382D366D302030 PUSH1 0xE0 DUP3 ADD MSTORE PUSH32 0x682D33316D302030632D322D312D332D332D332D366D30203020312D376D3020 PUSH2 0x100 DUP3 ADD MSTORE PUSH32 0x306331362D31332033312D32312034362D323620322D3120332D3320332D356D PUSH2 0x120 DUP3 ADD MSTORE PUSH32 0x302030762D38222066696C6C3D226E6F6E6522207374726F6B653D2223303030 PUSH2 0x140 DUP3 ADD MSTORE PUSH32 0x22207374726F6B652D77696474683D2231322E3222207374726F6B652D6C696E PUSH2 0x160 DUP3 ADD MSTORE PUSH32 0x656361703D22726F756E6422207374726F6B652D6C696E656A6F696E3D22726F PUSH2 0x180 DUP3 ADD MSTORE PUSH6 0x3AB73211179F PUSH1 0xD1 SHL PUSH2 0x1A0 DUP3 ADD MSTORE PUSH2 0x1A6 ADD PUSH32 0x3C7061746820636C69702D72756C653D226576656E6F64642220643D224D3234 DUP2 MSTORE PUSH32 0x35203332682D31376C2D3138203130632D3720322D313420302D31382D356C2D PUSH1 0x20 DUP3 ADD MSTORE PUSH32 0x332031312D31332035382D3132203537632D3320372D3220313520322032376C PUSH1 0x40 DUP3 ADD MSTORE PUSH32 0x312D323320332D323263322D313620382D32392031372D333720342D33203131 PUSH1 0x60 DUP3 ADD MSTORE PUSH32 0x2D342032312D326C32322038633139203720333520392034372035762D35632D PUSH1 0x80 DUP3 ADD MSTORE PUSH32 0x3820302D31362D322D32362D356C2D32362D392D332D352D322D3563322D3520 PUSH1 0xA0 DUP3 ADD MSTORE PUSH32 0x372D392031332D31336C31372D313063362D342031302D382031322D31312032 PUSH1 0xC0 DUP3 ADD MSTORE PUSH32 0x2D3520312D31302D332D31362D332D342D372D362D31342D387A6D2D33203234 PUSH1 0xE0 DUP3 ADD MSTORE PUSH32 0x2D31342031332D3138203133632D3620332D313020342D3133203320302D3720 PUSH2 0x100 DUP3 ADD MSTORE PUSH32 0x302D313220322D313620322D3520352D392031302D31326C31382D3863392D34 PUSH2 0x120 DUP3 ADD MSTORE PUSH32 0x2031352D342031382D3220322031203120342D3320397A222066696C6C2D7275 PUSH2 0x140 DUP3 ADD MSTORE PUSH14 0x36329E9132BB32B737B23211179F PUSH1 0x91 SHL PUSH2 0x160 DUP3 ADD MSTORE PUSH2 0x16E ADD PUSH1 0x0 DUP1 MLOAD PUSH1 0x20 PUSH2 0x43F9 DUP4 CODECOPY DUP2 MLOAD SWAP2 MSTORE DUP2 MSTORE PUSH32 0x226D3232382033322D3138203130632D3720322D313420302D31382D356D3020 PUSH1 0x20 DUP3 ADD MSTORE PUSH32 0x302D332031316D3020302D31332035382D3132203537632D3320372D32203135 PUSH1 0x40 DUP3 ADD MSTORE PUSH32 0x20322032376D30203020312D32336D30203020332D323263322D313620382D32 PUSH1 0x60 DUP3 ADD MSTORE PUSH32 0x392031372D333720342D332031312D342032312D326C32322038633139203720 PUSH1 0x80 DUP3 ADD MSTORE PUSH32 0x3335203920343720356D302030762D356D302030632D3820302D31362D322D32 PUSH1 0xA0 DUP3 ADD MSTORE PUSH32 0x362D356D3020302D32362D392D332D356D3020302D322D3563322D3520372D39 PUSH1 0xC0 DUP3 ADD MSTORE PUSH32 0x2031332D31336D3020302031372D31306D30203063362D342031302D38203132 PUSH1 0xE0 DUP3 ADD MSTORE PUSH32 0x2D313120322D3520312D31302D332D31362D332D342D372D362D31342D38682D PUSH2 0x100 DUP3 ADD MSTORE PUSH32 0x3137222066696C6C3D226E6F6E6522207374726F6B653D222330303022207374 PUSH2 0x120 DUP3 ADD MSTORE PUSH32 0x726F6B652D77696474683D2231322E3222207374726F6B652D6C696E65636170 PUSH2 0x140 DUP3 ADD MSTORE PUSH32 0x3D22726F756E6422207374726F6B652D6C696E656A6F696E3D22726F756E6422 PUSH2 0x160 DUP3 ADD MSTORE PUSH2 0x179F PUSH1 0xF1 SHL PUSH2 0x180 DUP3 ADD MSTORE PUSH2 0x182 ADD PUSH32 0x3C7061746820636C69702D72756C653D226576656E6F64642220643D226D3631 DUP2 MSTORE PUSH32 0x2032312032302D356332203020342D3220352D3420322D3320312D342D322D34 PUSH1 0x20 DUP3 ADD MSTORE PUSH32 0x2D392D332D31382D322D323820302D3820332D313620372D32312031332D3520 PUSH1 0x40 DUP3 ADD MSTORE PUSH32 0x332D3920392D31312031396C2D332031332D342031332D362038632D3220332D PUSH1 0x60 DUP3 ADD MSTORE PUSH32 0x3320372D322031302032203220332034203320386C312032342D332032332D33 PUSH1 0x80 DUP3 ADD MSTORE PUSH32 0x2032352D3120323520372D343720392D343763302D3320322D3520362D382033 PUSH1 0xA0 DUP3 ADD MSTORE PUSH32 0x2D3120362D332031302D336C31352D342031352D362031352D3620342D312D34 PUSH1 0xC0 DUP3 ADD MSTORE PUSH32 0x392034632D3320302D352D312D382D332D322D332D332D352D332D3820342D31 PUSH1 0xE0 DUP3 ADD MSTORE PUSH32 0x3420392D32342031362D33317A222066696C6C2D72756C653D226576656E6F64 PUSH2 0x100 DUP3 ADD MSTORE PUSH4 0x3211179F PUSH1 0xE1 SHL PUSH2 0x120 DUP3 ADD MSTORE PUSH2 0x124 ADD PUSH1 0x0 DUP1 MLOAD PUSH1 0x20 PUSH2 0x43F9 DUP4 CODECOPY DUP2 MLOAD SWAP2 MSTORE DUP2 MSTORE PUSH32 0x226D38372036372D353020346D3020302D372D33632D322D332D332D352D332D PUSH1 0x20 DUP3 ADD MSTORE PUSH32 0x3820342D313420392D32342031362D33316D3020302031382D386D3020302032 PUSH1 0x40 DUP3 ADD MSTORE PUSH32 0x302D356332203020342D3220352D3420322D3320312D342D322D342D392D332D PUSH1 0x60 DUP3 ADD MSTORE PUSH32 0x31382D322D323820302D3820332D313620372D32312031332D3520332D392039 PUSH1 0x80 DUP3 ADD MSTORE PUSH32 0x2D31312031396D3020302D332031336D3020302D342031336D3020302D362038 PUSH1 0xA0 DUP3 ADD MSTORE PUSH32 0x6D302030632D3220332D3320372D322031302032203220332034203320386C31 PUSH1 0xC0 DUP3 ADD MSTORE PUSH32 0x2032342D332032336D3020302D332032356D3020302D312032356D3020302037 PUSH1 0xE0 DUP3 ADD MSTORE PUSH32 0x2D34376D30203020392D343763302D3320322D3520362D3820332D3120362D33 PUSH2 0x100 DUP3 ADD MSTORE PUSH32 0x2031302D336C31352D346D3020302031352D366D3020302031352D366D302030 PUSH2 0x120 DUP3 ADD MSTORE PUSH32 0x20342D316D31322D312D31322031222066696C6C3D226E6F6E6522207374726F PUSH2 0x140 DUP3 ADD MSTORE PUSH32 0x6B653D222330303022207374726F6B652D77696474683D2231322E3222207374 PUSH2 0x160 DUP3 ADD MSTORE PUSH32 0x726F6B652D6C696E656361703D22726F756E6422207374726F6B652D6C696E65 PUSH2 0x180 DUP3 ADD MSTORE PUSH14 0x3537B4B71E913937BAB73211179F PUSH1 0x91 SHL PUSH2 0x1A0 DUP3 ADD MSTORE PUSH2 0x1AE ADD PUSH32 0x3C7465787420666F6E742D73697A653D223132302220666F6E742D7765696768 DUP2 MSTORE PUSH32 0x743D22626F6C642220783D223132302220793D22333530222066696C6C3D2262 PUSH1 0x20 DUP3 ADD MSTORE PUSH32 0x6C756522207374726F6B653D222330303022207374726F6B652D77696474683D PUSH1 0x40 DUP3 ADD MSTORE PUSH32 0x22312220666F6E742D66616D696C793D2273616E732D7365726966223E000000 PUSH1 0x60 DUP3 ADD MSTORE PUSH1 0x7D ADD PUSH8 0x2232B837B9B4BA1D PUSH1 0xC1 SHL DUP2 MSTORE PUSH1 0x8 ADD PUSH7 0x1E17BA32BC3A1F PUSH1 0xC9 SHL DUP2 MSTORE PUSH1 0x7 ADD PUSH32 0x3C7465787420666F6E742D73697A653D2238302220666F6E742D776569676874 DUP2 MSTORE PUSH32 0x3D22626F6C642220783D223235302220793D22343630222066696C6C3D22626C PUSH1 0x20 DUP3 ADD MSTORE PUSH32 0x756522207374726F6B653D222330303022207374726F6B652D77696474683D22 PUSH1 0x40 DUP3 ADD MSTORE PUSH32 0x312220666F6E742D66616D696C793D2273616E732D7365726966223E00000000 PUSH1 0x60 DUP3 ADD MSTORE PUSH1 0x7C ADD PUSH2 0x417E SWAP2 PUSH2 0x2746 JUMP JUMPDEST PUSH4 0x408AE8D PUSH1 0xE3 SHL DUP2 MSTORE PUSH1 0x4 ADD PUSH7 0x1E17BA32BC3A1F PUSH1 0xC9 SHL DUP2 MSTORE PUSH1 0x7 ADD PUSH32 0x3C7465787420666F6E742D73697A653D223132302220666F6E742D7765696768 DUP2 MSTORE PUSH32 0x743D22626F6C642220783D2238302220793D22363230222066696C6C3D226772 PUSH1 0x20 DUP3 ADD MSTORE PUSH32 0x65656E22207374726F6B653D222330303022207374726F6B652D77696474683D PUSH1 0x40 DUP3 ADD MSTORE PUSH32 0x22312220666F6E742D66616D696C793D2273616E732D7365726966223E000000 PUSH1 0x60 DUP3 ADD MSTORE PUSH1 0x7D ADD PUSH10 0x21B630B4B6B0B136329D PUSH1 0xB1 SHL DUP2 MSTORE PUSH1 0xA ADD PUSH7 0x1E17BA32BC3A1F PUSH1 0xC9 SHL DUP2 MSTORE PUSH1 0x7 ADD PUSH32 0x3C7465787420666F6E742D73697A653D2238302220666F6E742D776569676874 DUP2 MSTORE PUSH32 0x3D22626F6C642220783D223235302220793D22373330222066696C6C3D226772 PUSH1 0x20 DUP3 ADD MSTORE PUSH32 0x65656E22207374726F6B653D222330303022207374726F6B652D77696474683D PUSH1 0x40 DUP3 ADD MSTORE PUSH32 0x22312220666F6E742D66616D696C793D2273616E732D7365726966223E000000 PUSH1 0x60 DUP3 ADD MSTORE PUSH1 0x7D ADD PUSH2 0x42F7 SWAP2 PUSH2 0x2746 JUMP JUMPDEST PUSH4 0x20576569 PUSH1 0xE0 SHL DUP2 MSTORE PUSH1 0x4 ADD PUSH7 0x1E17BA32BC3A1F PUSH1 0xC9 SHL DUP2 MSTORE PUSH1 0x7 ADD PUSH6 0x1E17B9BB339F PUSH1 0xD1 SHL DUP2 MSTORE PUSH1 0x6 ADD SUB PUSH1 0x1F NOT DUP2 ADD DUP3 MSTORE PUSH2 0x3CD SWAP1 DUP3 PUSH2 0xFD8 JUMP JUMPDEST DUP1 ISZERO PUSH2 0x2863 JUMPI DUP1 PUSH1 0x0 DUP3 DUP2 SWAP4 JUMPDEST PUSH2 0x43E4 JUMPI POP DUP2 PUSH2 0x4351 DUP5 PUSH2 0x2776 JUMP JUMPDEST SWAP4 SWAP1 JUMPDEST PUSH2 0x435E JUMPI POP POP POP SWAP1 JUMP JUMPDEST PUSH2 0x4367 SWAP1 PUSH2 0x1C01 JUMP JUMPDEST SWAP2 DUP3 PUSH2 0x43B5 PUSH1 0xA SWAP3 DUP4 DUP2 DIV SWAP4 DUP5 PUSH1 0x0 NOT DIV DUP2 GT DUP6 ISZERO ISZERO AND PUSH2 0x43D7 JUMPI JUMPDEST DUP5 MUL DUP2 SUB SWAP1 DUP2 GT PUSH2 0x43CA JUMPI JUMPDEST PUSH1 0xFF DUP1 SWAP2 AND PUSH1 0x30 ADD SWAP1 DUP2 GT PUSH2 0x43BD JUMPI JUMPDEST PUSH1 0xF8 SHL PUSH1 0x1 PUSH1 0x1 PUSH1 0xF8 SHL SUB NOT AND DUP5 BYTE SWAP2 DUP7 PUSH2 0x27A8 JUMP JUMPDEST MSTORE8 SWAP2 DUP3 PUSH2 0x4354 JUMP JUMPDEST PUSH2 0x43C5 PUSH2 0x1BEA JUMP JUMPDEST PUSH2 0x439F JUMP JUMPDEST PUSH2 0x43D2 PUSH2 0x1BEA JUMP JUMPDEST PUSH2 0x438F JUMP JUMPDEST PUSH2 0x43DF PUSH2 0x1BEA JUMP JUMPDEST PUSH2 0x4383 JUMP JUMPDEST SWAP3 PUSH2 0x43F0 PUSH1 0xA SWAP2 PUSH2 0x22DF JUMP JUMPDEST SWAP4 DIV DUP1 PUSH2 0x4342 JUMP INVALID EXTCODECOPY PUSH17 0x617468207374726F6B652D6D697465726C PUSH10 0x6D69743D22322E362220 PUSH5 0x3DA2646970 PUSH7 0x73582212203653 DUP5 SSTORE 0x2A 0xCE PUSH29 0xF1A7FA9E32BA305E8BB2EB66E838DBAA7684F3169728BB97AB64736F6C PUSH4 0x43000810 STOP CALLER "
        },
        "gasEstimates": {
          "creation": {
            "codeDepositCost": "3497200",
            "executionCost": "infinite",
            "totalCost": "infinite"
          },
          "external": {
            "": "820",
            "addToDeposit(uint256)": "53530",
            "approve(address,uint256)": "infinite",
            "balanceOf(address)": "2818",
            "deposit(address)": "282613",
            "depositAmount(uint256)": "2775",
            "depositContractAddress()": "2434",
            "distribute()": "infinite",
            "getApproved(uint256)": "4654",
            "getDistributableShare(uint256)": "7102",
            "getOwner()": "2755",
            "getShare(uint256)": "5219",
            "isApprovedForAll(address,address)": "3292",
            "name()": "infinite",
            "owner()": "2777",
            "ownerOf(uint256)": "2770",
            "renderTokenById(uint256)": "infinite",
            "renounceOwnership()": "26342",
            "rugpull()": "infinite",
            "safeTransferFrom(address,address,uint256)": "infinite",
            "safeTransferFrom(address,address,uint256,bytes)": "infinite",
            "sendToOwner()": "30504",
            "setApprovalForAll(address,bool)": "27037",
            "stake(bytes,bytes,bytes,bytes32)": "infinite",
            "supportsInterface(bytes4)": "436",
            "symbol()": "infinite",
            "tokenByIndex(uint256)": "4679",
            "tokenOfOwnerByIndex(address,uint256)": "4941",
            "tokenURI(uint256)": "infinite",
            "totalDeposits()": "2665",
            "totalSupply()": "2357",
            "transferFrom(address,address,uint256)": "infinite",
            "transferOwnership(address)": "28915",
            "unstake()": "24520",
            "withdraw(uint256,uint256)": "infinite"
          },
          "internal": {
            "_getShare(uint256,uint256)": "4439",
            "_toWithdrawalCred(address)": "infinite",
            "generateSVGofTokenById(uint256)": "infinite",
            "uint2str(uint256)": "infinite"
          }
        },
        "methodIdentifiers": {
          "addToDeposit(uint256)": "8620891c",
          "approve(address,uint256)": "095ea7b3",
          "balanceOf(address)": "70a08231",
          "deposit(address)": "f340fa01",
          "depositAmount(uint256)": "87f8ab26",
          "depositContractAddress()": "2a4dbd2b",
          "distribute()": "e4fc6b6d",
          "getApproved(uint256)": "081812fc",
          "getDistributableShare(uint256)": "678e300a",
          "getOwner()": "893d20e8",
          "getShare(uint256)": "cfb5a5f8",
          "isApprovedForAll(address,address)": "e985e9c5",
          "name()": "06fdde03",
          "owner()": "8da5cb5b",
          "ownerOf(uint256)": "6352211e",
          "renderTokenById(uint256)": "a2d6c6da",
          "renounceOwnership()": "715018a6",
          "rugpull()": "e2664e49",
          "safeTransferFrom(address,address,uint256)": "42842e0e",
          "safeTransferFrom(address,address,uint256,bytes)": "b88d4fde",
          "sendToOwner()": "6620a935",
          "setApprovalForAll(address,bool)": "a22cb465",
          "stake(bytes,bytes,bytes,bytes32)": "4b2b4e36",
          "supportsInterface(bytes4)": "01ffc9a7",
          "symbol()": "95d89b41",
          "tokenByIndex(uint256)": "4f6ccce7",
          "tokenOfOwnerByIndex(address,uint256)": "2f745c59",
          "tokenURI(uint256)": "c87b56dd",
          "totalDeposits()": "7d882097",
          "totalSupply()": "18160ddd",
          "transferFrom(address,address,uint256)": "23b872dd",
          "transferOwnership(address)": "f2fde38b",
          "unstake()": "2def6620",
          "withdraw(uint256,uint256)": "441a3e70"
        }
      },
      "storageLayout": {
        "storage": [
          {
            "astId": 130,
            "contract": "contracts/StakingPool.sol:StakingPool",
            "label": "_name",
            "offset": 0,
            "slot": "0",
            "type": "t_string_storage"
          },
          {
            "astId": 132,
            "contract": "contracts/StakingPool.sol:StakingPool",
            "label": "_symbol",
            "offset": 0,
            "slot": "1",
            "type": "t_string_storage"
          },
          {
            "astId": 136,
            "contract": "contracts/StakingPool.sol:StakingPool",
            "label": "_owners",
            "offset": 0,
            "slot": "2",
            "type": "t_mapping(t_uint256,t_address)"
          },
          {
            "astId": 140,
            "contract": "contracts/StakingPool.sol:StakingPool",
            "label": "_balances",
            "offset": 0,
            "slot": "3",
            "type": "t_mapping(t_address,t_uint256)"
          },
          {
            "astId": 144,
            "contract": "contracts/StakingPool.sol:StakingPool",
            "label": "_tokenApprovals",
            "offset": 0,
            "slot": "4",
            "type": "t_mapping(t_uint256,t_address)"
          },
          {
            "astId": 150,
            "contract": "contracts/StakingPool.sol:StakingPool",
            "label": "_operatorApprovals",
            "offset": 0,
            "slot": "5",
            "type": "t_mapping(t_address,t_mapping(t_address,t_bool))"
          },
          {
            "astId": 1084,
            "contract": "contracts/StakingPool.sol:StakingPool",
            "label": "_ownedTokens",
            "offset": 0,
            "slot": "6",
            "type": "t_mapping(t_address,t_mapping(t_uint256,t_uint256))"
          },
          {
            "astId": 1088,
            "contract": "contracts/StakingPool.sol:StakingPool",
            "label": "_ownedTokensIndex",
            "offset": 0,
            "slot": "7",
            "type": "t_mapping(t_uint256,t_uint256)"
          },
          {
            "astId": 1091,
            "contract": "contracts/StakingPool.sol:StakingPool",
            "label": "_allTokens",
            "offset": 0,
            "slot": "8",
            "type": "t_array(t_uint256)dyn_storage"
          },
          {
            "astId": 1095,
            "contract": "contracts/StakingPool.sol:StakingPool",
            "label": "_allTokensIndex",
            "offset": 0,
            "slot": "9",
            "type": "t_mapping(t_uint256,t_uint256)"
          },
          {
            "astId": 7,
            "contract": "contracts/StakingPool.sol:StakingPool",
            "label": "_owner",
            "offset": 0,
            "slot": "10",
            "type": "t_address"
          },
          {
            "astId": 2173,
            "contract": "contracts/StakingPool.sol:StakingPool",
            "label": "depositAmount",
            "offset": 0,
            "slot": "11",
            "type": "t_mapping(t_uint256,t_uint256)"
          },
          {
            "astId": 2175,
            "contract": "contracts/StakingPool.sol:StakingPool",
            "label": "totalDeposits",
            "offset": 0,
            "slot": "12",
            "type": "t_uint256"
          },
          {
            "astId": 2177,
            "contract": "contracts/StakingPool.sol:StakingPool",
            "label": "_tokenId",
            "offset": 0,
            "slot": "13",
            "type": "t_uint256"
          },
          {
            "astId": 2184,
            "contract": "contracts/StakingPool.sol:StakingPool",
            "label": "currentState",
            "offset": 0,
            "slot": "14",
            "type": "t_enum(State)2181"
          },
          {
            "astId": 2186,
            "contract": "contracts/StakingPool.sol:StakingPool",
            "label": "depositContractAddress",
            "offset": 1,
            "slot": "14",
            "type": "t_address"
          },
          {
            "astId": 2189,
            "contract": "contracts/StakingPool.sol:StakingPool",
            "label": "depositContract",
            "offset": 0,
            "slot": "15",
            "type": "t_contract(IDepositContract)2156"
          },
          {
            "astId": 2191,
            "contract": "contracts/StakingPool.sol:StakingPool",
            "label": "rightfulOwner",
            "offset": 0,
            "slot": "16",
            "type": "t_address"
          }
        ],
        "types": {
          "t_address": {
            "encoding": "inplace",
            "label": "address",
            "numberOfBytes": "20"
          },
          "t_array(t_uint256)dyn_storage": {
            "base": "t_uint256",
            "encoding": "dynamic_array",
            "label": "uint256[]",
            "numberOfBytes": "32"
          },
          "t_bool": {
            "encoding": "inplace",
            "label": "bool",
            "numberOfBytes": "1"
          },
          "t_contract(IDepositContract)2156": {
            "encoding": "inplace",
            "label": "contract IDepositContract",
            "numberOfBytes": "20"
          },
          "t_enum(State)2181": {
            "encoding": "inplace",
            "label": "enum StakingPool.State",
            "numberOfBytes": "1"
          },
          "t_mapping(t_address,t_bool)": {
            "encoding": "mapping",
            "key": "t_address",
            "label": "mapping(address => bool)",
            "numberOfBytes": "32",
            "value": "t_bool"
          },
          "t_mapping(t_address,t_mapping(t_address,t_bool))": {
            "encoding": "mapping",
            "key": "t_address",
            "label": "mapping(address => mapping(address => bool))",
            "numberOfBytes": "32",
            "value": "t_mapping(t_address,t_bool)"
          },
          "t_mapping(t_address,t_mapping(t_uint256,t_uint256))": {
            "encoding": "mapping",
            "key": "t_address",
            "label": "mapping(address => mapping(uint256 => uint256))",
            "numberOfBytes": "32",
            "value": "t_mapping(t_uint256,t_uint256)"
          },
          "t_mapping(t_address,t_uint256)": {
            "encoding": "mapping",
            "key": "t_address",
            "label": "mapping(address => uint256)",
            "numberOfBytes": "32",
            "value": "t_uint256"
          },
          "t_mapping(t_uint256,t_address)": {
            "encoding": "mapping",
            "key": "t_uint256",
            "label": "mapping(uint256 => address)",
            "numberOfBytes": "32",
            "value": "t_address"
          },
          "t_mapping(t_uint256,t_uint256)": {
            "encoding": "mapping",
            "key": "t_uint256",
            "label": "mapping(uint256 => uint256)",
            "numberOfBytes": "32",
            "value": "t_uint256"
          },
          "t_string_storage": {
            "encoding": "bytes",
            "label": "string",
            "numberOfBytes": "32"
          },
          "t_uint256": {
            "encoding": "inplace",
            "label": "uint256",
            "numberOfBytes": "32"
          }
        }
      },
      "userdoc": {
        "kind": "user",
        "methods": {},
        "version": 1
      }
    }
  }
}