{
  "contracts/StakingPool.sol": {
    "StakingPool": {
      "abi": [
        {
          "inputs": [],
          "stateMutability": "nonpayable",
          "type": "constructor"
        },
        {
          "stateMutability": "payable",
          "type": "fallback"
        },
        {
          "inputs": [
            {
              "internalType": "address",
              "name": "userAddress",
              "type": "address"
            }
          ],
          "name": "deposit",
          "outputs": [],
          "stateMutability": "payable",
          "type": "function"
        },
        {
          "inputs": [],
          "name": "stake",
          "outputs": [],
          "stateMutability": "nonpayable",
          "type": "function"
        },
        {
          "inputs": [],
          "name": "unstake",
          "outputs": [],
          "stateMutability": "nonpayable",
          "type": "function"
        },
        {
          "inputs": [
            {
              "internalType": "address",
              "name": "",
              "type": "address"
            }
          ],
          "name": "userBalances",
          "outputs": [
            {
              "internalType": "uint256",
              "name": "",
              "type": "uint256"
            }
          ],
          "stateMutability": "view",
          "type": "function"
        },
        {
          "inputs": [
            {
              "internalType": "uint256",
              "name": "_amount",
              "type": "uint256"
            }
          ],
          "name": "withdraw",
          "outputs": [],
          "stateMutability": "nonpayable",
          "type": "function"
        },
        {
          "stateMutability": "payable",
          "type": "receive"
        }
      ],
      "devdoc": {
        "kind": "dev",
        "methods": {},
        "version": 1
      },
      "evm": {
        "bytecode": {
          "linkReferences": {},
          "object": "608060405234801561001057600080fd5b506001805460ff1916905561032c8061002a6000396000f3fe60806040526004361061004b5760003560e01c806326224c64146100545780632def6620146100935780632e1a7d4d146100a85780633a4b66f1146100c8578063f340fa01146100dd57005b3661005257005b005b34801561006057600080fd5b5061008161006f36600461026b565b60006020819052908152604090205481565b60405190815260200160405180910390f35b34801561009f57600080fd5b506100526100f0565b3480156100b457600080fd5b506100526100c3366004610299565b610106565b3480156100d457600080fd5b5061005261022a565b6100526100eb36600461026b565b61023b565b600180546002919060ff191681835b0217905550565b6001805460ff16600281111561012c57634e487b7160e01b600052602160045260246000fd5b141561017f5760405162461bcd60e51b815260206004820152601b60248201527f63616e6e6f74207769746864726177206f6e6365207374616b6564000000000060448201526064015b60405180910390fd5b336000908152602081905260409020548111156101d55760405162461bcd60e51b81526020600482015260146024820152731b9bdd08195b9bdd59da0819195c1bdcda5d195960621b6044820152606401610176565b33600090815260208190526040812080548392906101f49084906102c9565b9091555050604051339082156108fc029083906000818181858888f19350505050158015610226573d6000803e3d6000fd5b5050565b60018054819060ff191681806100ff565b6001600160a01b038116600090815260208190526040812080543492906102639084906102b1565b909155505050565b60006020828403121561027c578081fd5b81356001600160a01b0381168114610292578182fd5b9392505050565b6000602082840312156102aa578081fd5b5035919050565b600082198211156102c4576102c46102e0565b500190565b6000828210156102db576102db6102e0565b500390565b634e487b7160e01b600052601160045260246000fdfea26469706673582212208b45b5d90b260578e0f94d0e3de1ec240721c5dffb898002aa4b8afc9fc12b0264736f6c63430008040033",
          "opcodes": "PUSH1 0x80 PUSH1 0x40 MSTORE CALLVALUE DUP1 ISZERO PUSH2 0x10 JUMPI PUSH1 0x0 DUP1 REVERT JUMPDEST POP PUSH1 0x1 DUP1 SLOAD PUSH1 0xFF NOT AND SWAP1 SSTORE PUSH2 0x32C DUP1 PUSH2 0x2A PUSH1 0x0 CODECOPY PUSH1 0x0 RETURN INVALID PUSH1 0x80 PUSH1 0x40 MSTORE PUSH1 0x4 CALLDATASIZE LT PUSH2 0x4B JUMPI PUSH1 0x0 CALLDATALOAD PUSH1 0xE0 SHR DUP1 PUSH4 0x26224C64 EQ PUSH2 0x54 JUMPI DUP1 PUSH4 0x2DEF6620 EQ PUSH2 0x93 JUMPI DUP1 PUSH4 0x2E1A7D4D EQ PUSH2 0xA8 JUMPI DUP1 PUSH4 0x3A4B66F1 EQ PUSH2 0xC8 JUMPI DUP1 PUSH4 0xF340FA01 EQ PUSH2 0xDD JUMPI STOP JUMPDEST CALLDATASIZE PUSH2 0x52 JUMPI STOP JUMPDEST STOP JUMPDEST CALLVALUE DUP1 ISZERO PUSH2 0x60 JUMPI PUSH1 0x0 DUP1 REVERT JUMPDEST POP PUSH2 0x81 PUSH2 0x6F CALLDATASIZE PUSH1 0x4 PUSH2 0x26B JUMP JUMPDEST PUSH1 0x0 PUSH1 0x20 DUP2 SWAP1 MSTORE SWAP1 DUP2 MSTORE PUSH1 0x40 SWAP1 KECCAK256 SLOAD DUP2 JUMP JUMPDEST PUSH1 0x40 MLOAD SWAP1 DUP2 MSTORE PUSH1 0x20 ADD PUSH1 0x40 MLOAD DUP1 SWAP2 SUB SWAP1 RETURN JUMPDEST CALLVALUE DUP1 ISZERO PUSH2 0x9F JUMPI PUSH1 0x0 DUP1 REVERT JUMPDEST POP PUSH2 0x52 PUSH2 0xF0 JUMP JUMPDEST CALLVALUE DUP1 ISZERO PUSH2 0xB4 JUMPI PUSH1 0x0 DUP1 REVERT JUMPDEST POP PUSH2 0x52 PUSH2 0xC3 CALLDATASIZE PUSH1 0x4 PUSH2 0x299 JUMP JUMPDEST PUSH2 0x106 JUMP JUMPDEST CALLVALUE DUP1 ISZERO PUSH2 0xD4 JUMPI PUSH1 0x0 DUP1 REVERT JUMPDEST POP PUSH2 0x52 PUSH2 0x22A JUMP JUMPDEST PUSH2 0x52 PUSH2 0xEB CALLDATASIZE PUSH1 0x4 PUSH2 0x26B JUMP JUMPDEST PUSH2 0x23B JUMP JUMPDEST PUSH1 0x1 DUP1 SLOAD PUSH1 0x2 SWAP2 SWAP1 PUSH1 0xFF NOT AND DUP2 DUP4 JUMPDEST MUL OR SWAP1 SSTORE POP JUMP JUMPDEST PUSH1 0x1 DUP1 SLOAD PUSH1 0xFF AND PUSH1 0x2 DUP2 GT ISZERO PUSH2 0x12C JUMPI PUSH4 0x4E487B71 PUSH1 0xE0 SHL PUSH1 0x0 MSTORE PUSH1 0x21 PUSH1 0x4 MSTORE PUSH1 0x24 PUSH1 0x0 REVERT JUMPDEST EQ ISZERO PUSH2 0x17F JUMPI PUSH1 0x40 MLOAD PUSH3 0x461BCD PUSH1 0xE5 SHL DUP2 MSTORE PUSH1 0x20 PUSH1 0x4 DUP3 ADD MSTORE PUSH1 0x1B PUSH1 0x24 DUP3 ADD MSTORE PUSH32 0x63616E6E6F74207769746864726177206F6E6365207374616B65640000000000 PUSH1 0x44 DUP3 ADD MSTORE PUSH1 0x64 ADD JUMPDEST PUSH1 0x40 MLOAD DUP1 SWAP2 SUB SWAP1 REVERT JUMPDEST CALLER PUSH1 0x0 SWAP1 DUP2 MSTORE PUSH1 0x20 DUP2 SWAP1 MSTORE PUSH1 0x40 SWAP1 KECCAK256 SLOAD DUP2 GT ISZERO PUSH2 0x1D5 JUMPI PUSH1 0x40 MLOAD PUSH3 0x461BCD PUSH1 0xE5 SHL DUP2 MSTORE PUSH1 0x20 PUSH1 0x4 DUP3 ADD MSTORE PUSH1 0x14 PUSH1 0x24 DUP3 ADD MSTORE PUSH20 0x1B9BDD08195B9BDD59DA0819195C1BDCDA5D1959 PUSH1 0x62 SHL PUSH1 0x44 DUP3 ADD MSTORE PUSH1 0x64 ADD PUSH2 0x176 JUMP JUMPDEST CALLER PUSH1 0x0 SWAP1 DUP2 MSTORE PUSH1 0x20 DUP2 SWAP1 MSTORE PUSH1 0x40 DUP2 KECCAK256 DUP1 SLOAD DUP4 SWAP3 SWAP1 PUSH2 0x1F4 SWAP1 DUP5 SWAP1 PUSH2 0x2C9 JUMP JUMPDEST SWAP1 SWAP2 SSTORE POP POP PUSH1 0x40 MLOAD CALLER SWAP1 DUP3 ISZERO PUSH2 0x8FC MUL SWAP1 DUP4 SWAP1 PUSH1 0x0 DUP2 DUP2 DUP2 DUP6 DUP9 DUP9 CALL SWAP4 POP POP POP POP ISZERO DUP1 ISZERO PUSH2 0x226 JUMPI RETURNDATASIZE PUSH1 0x0 DUP1 RETURNDATACOPY RETURNDATASIZE PUSH1 0x0 REVERT JUMPDEST POP POP JUMP JUMPDEST PUSH1 0x1 DUP1 SLOAD DUP2 SWAP1 PUSH1 0xFF NOT AND DUP2 DUP1 PUSH2 0xFF JUMP JUMPDEST PUSH1 0x1 PUSH1 0x1 PUSH1 0xA0 SHL SUB DUP2 AND PUSH1 0x0 SWAP1 DUP2 MSTORE PUSH1 0x20 DUP2 SWAP1 MSTORE PUSH1 0x40 DUP2 KECCAK256 DUP1 SLOAD CALLVALUE SWAP3 SWAP1 PUSH2 0x263 SWAP1 DUP5 SWAP1 PUSH2 0x2B1 JUMP JUMPDEST SWAP1 SWAP2 SSTORE POP POP POP JUMP JUMPDEST PUSH1 0x0 PUSH1 0x20 DUP3 DUP5 SUB SLT ISZERO PUSH2 0x27C JUMPI DUP1 DUP2 REVERT JUMPDEST DUP2 CALLDATALOAD PUSH1 0x1 PUSH1 0x1 PUSH1 0xA0 SHL SUB DUP2 AND DUP2 EQ PUSH2 0x292 JUMPI DUP2 DUP3 REVERT JUMPDEST SWAP4 SWAP3 POP POP POP JUMP JUMPDEST PUSH1 0x0 PUSH1 0x20 DUP3 DUP5 SUB SLT ISZERO PUSH2 0x2AA JUMPI DUP1 DUP2 REVERT JUMPDEST POP CALLDATALOAD SWAP2 SWAP1 POP JUMP JUMPDEST PUSH1 0x0 DUP3 NOT DUP3 GT ISZERO PUSH2 0x2C4 JUMPI PUSH2 0x2C4 PUSH2 0x2E0 JUMP JUMPDEST POP ADD SWAP1 JUMP JUMPDEST PUSH1 0x0 DUP3 DUP3 LT ISZERO PUSH2 0x2DB JUMPI PUSH2 0x2DB PUSH2 0x2E0 JUMP JUMPDEST POP SUB SWAP1 JUMP JUMPDEST PUSH4 0x4E487B71 PUSH1 0xE0 SHL PUSH1 0x0 MSTORE PUSH1 0x11 PUSH1 0x4 MSTORE PUSH1 0x24 PUSH1 0x0 REVERT INVALID LOG2 PUSH5 0x6970667358 0x22 SLT KECCAK256 DUP12 GASLIMIT 0xB5 0xD9 SIGNEXTEND 0x26 SDIV PUSH25 0xE0F94D0E3DE1EC240721C5DFFB898002AA4B8AFC9FC12B0264 PUSH20 0x6F6C634300080400330000000000000000000000 "
        },
        "gasEstimates": {
          "creation": {
            "codeDepositCost": "162400",
            "executionCost": "21026",
            "totalCost": "183426"
          },
          "external": {
            "": "161",
            "deposit(address)": "21298",
            "stake()": "21040",
            "unstake()": "20988",
            "userBalances(address)": "1153",
            "withdraw(uint256)": "infinite"
          }
        },
        "methodIdentifiers": {
          "deposit(address)": "f340fa01",
          "stake()": "3a4b66f1",
          "unstake()": "2def6620",
          "userBalances(address)": "26224c64",
          "withdraw(uint256)": "2e1a7d4d"
        }
      },
      "storageLayout": {
        "storage": [
          {
            "astId": 5,
            "contract": "contracts/StakingPool.sol:StakingPool",
            "label": "userBalances",
            "offset": 0,
            "slot": "0",
            "type": "t_mapping(t_address,t_uint256)"
          },
          {
            "astId": 12,
            "contract": "contracts/StakingPool.sol:StakingPool",
            "label": "currentState",
            "offset": 0,
            "slot": "1",
            "type": "t_enum(State)9"
          }
        ],
        "types": {
          "t_address": {
            "encoding": "inplace",
            "label": "address",
            "numberOfBytes": "20"
          },
          "t_enum(State)9": {
            "encoding": "inplace",
            "label": "enum StakingPool.State",
            "numberOfBytes": "1"
          },
          "t_mapping(t_address,t_uint256)": {
            "encoding": "mapping",
            "key": "t_address",
            "label": "mapping(address => uint256)",
            "numberOfBytes": "32",
            "value": "t_uint256"
          },
          "t_uint256": {
            "encoding": "inplace",
            "label": "uint256",
            "numberOfBytes": "32"
          }
        }
      },
      "userdoc": {
        "kind": "user",
        "methods": {},
        "version": 1
      }
    }
  }
}